{
  "contractName": "BobaFarm",
  "abi": [
    {
      "inputs": [
        {
          "internalType": "contract BobaToken",
          "name": "_bobaToken",
          "type": "address"
        },
        {
          "internalType": "contract MilkToken2",
          "name": "_milkToken",
          "type": "address"
        },
        {
          "internalType": "contract TeaToken2",
          "name": "_teaToken",
          "type": "address"
        },
        {
          "internalType": "contract PearlToken2",
          "name": "_pearlToken",
          "type": "address"
        }
      ],
      "stateMutability": "nonpayable",
      "type": "constructor"
    },
    {
      "anonymous": false,
      "inputs": [
        {
          "indexed": true,
          "internalType": "address",
          "name": "to",
          "type": "address"
        },
        {
          "indexed": false,
          "internalType": "uint256",
          "name": "amount",
          "type": "uint256"
        }
      ],
      "name": "HarvestRewards",
      "type": "event"
    },
    {
      "anonymous": false,
      "inputs": [
        {
          "indexed": true,
          "internalType": "address",
          "name": "from",
          "type": "address"
        },
        {
          "indexed": false,
          "internalType": "string",
          "name": "lp1",
          "type": "string"
        },
        {
          "indexed": false,
          "internalType": "uint256",
          "name": "amountLp1",
          "type": "uint256"
        },
        {
          "indexed": false,
          "internalType": "string",
          "name": "lp2",
          "type": "string"
        },
        {
          "indexed": false,
          "internalType": "uint256",
          "name": "amountLp2",
          "type": "uint256"
        },
        {
          "indexed": false,
          "internalType": "string",
          "name": "lp3",
          "type": "string"
        },
        {
          "indexed": false,
          "internalType": "uint256",
          "name": "amountLp3",
          "type": "uint256"
        }
      ],
      "name": "Stake",
      "type": "event"
    },
    {
      "anonymous": false,
      "inputs": [
        {
          "indexed": true,
          "internalType": "address",
          "name": "from",
          "type": "address"
        },
        {
          "indexed": false,
          "internalType": "string",
          "name": "lp1",
          "type": "string"
        },
        {
          "indexed": false,
          "internalType": "uint256",
          "name": "amountLp1",
          "type": "uint256"
        },
        {
          "indexed": false,
          "internalType": "string",
          "name": "lp2",
          "type": "string"
        },
        {
          "indexed": false,
          "internalType": "uint256",
          "name": "amountLp2",
          "type": "uint256"
        },
        {
          "indexed": false,
          "internalType": "string",
          "name": "lp3",
          "type": "string"
        },
        {
          "indexed": false,
          "internalType": "uint256",
          "name": "amountLp3",
          "type": "uint256"
        }
      ],
      "name": "Unstake",
      "type": "event"
    },
    {
      "inputs": [
        {
          "internalType": "address",
          "name": "",
          "type": "address"
        }
      ],
      "name": "bobaBalance",
      "outputs": [
        {
          "internalType": "uint256",
          "name": "",
          "type": "uint256"
        }
      ],
      "stateMutability": "view",
      "type": "function",
      "constant": true
    },
    {
      "inputs": [],
      "name": "bobaToken",
      "outputs": [
        {
          "internalType": "contract BobaToken",
          "name": "",
          "type": "address"
        }
      ],
      "stateMutability": "view",
      "type": "function",
      "constant": true
    },
    {
      "inputs": [
        {
          "internalType": "address",
          "name": "",
          "type": "address"
        }
      ],
      "name": "milkStakingBalance",
      "outputs": [
        {
          "internalType": "uint256",
          "name": "",
          "type": "uint256"
        }
      ],
      "stateMutability": "view",
      "type": "function",
      "constant": true
    },
    {
      "inputs": [],
      "name": "milkToken",
      "outputs": [
        {
          "internalType": "contract MilkToken2",
          "name": "",
          "type": "address"
        }
      ],
      "stateMutability": "view",
      "type": "function",
      "constant": true
    },
    {
      "inputs": [],
      "name": "name",
      "outputs": [
        {
          "internalType": "string",
          "name": "",
          "type": "string"
        }
      ],
      "stateMutability": "view",
      "type": "function",
      "constant": true
    },
    {
      "inputs": [
        {
          "internalType": "address",
          "name": "",
          "type": "address"
        }
      ],
      "name": "pearlStakingBalance",
      "outputs": [
        {
          "internalType": "uint256",
          "name": "",
          "type": "uint256"
        }
      ],
      "stateMutability": "view",
      "type": "function",
      "constant": true
    },
    {
      "inputs": [],
      "name": "pearlToken",
      "outputs": [
        {
          "internalType": "contract PearlToken2",
          "name": "",
          "type": "address"
        }
      ],
      "stateMutability": "view",
      "type": "function",
      "constant": true
    },
    {
      "inputs": [
        {
          "internalType": "address",
          "name": "",
          "type": "address"
        }
      ],
      "name": "staking",
      "outputs": [
        {
          "internalType": "bool",
          "name": "",
          "type": "bool"
        }
      ],
      "stateMutability": "view",
      "type": "function",
      "constant": true
    },
    {
      "inputs": [
        {
          "internalType": "address",
          "name": "",
          "type": "address"
        }
      ],
      "name": "startBlock",
      "outputs": [
        {
          "internalType": "uint256",
          "name": "",
          "type": "uint256"
        }
      ],
      "stateMutability": "view",
      "type": "function",
      "constant": true
    },
    {
      "inputs": [
        {
          "internalType": "address",
          "name": "",
          "type": "address"
        }
      ],
      "name": "teaStakingBalance",
      "outputs": [
        {
          "internalType": "uint256",
          "name": "",
          "type": "uint256"
        }
      ],
      "stateMutability": "view",
      "type": "function",
      "constant": true
    },
    {
      "inputs": [],
      "name": "teaToken",
      "outputs": [
        {
          "internalType": "contract TeaToken2",
          "name": "",
          "type": "address"
        }
      ],
      "stateMutability": "view",
      "type": "function",
      "constant": true
    },
    {
      "inputs": [
        {
          "internalType": "address",
          "name": "user",
          "type": "address"
        }
      ],
      "name": "getBobaBalance",
      "outputs": [
        {
          "internalType": "uint256",
          "name": "",
          "type": "uint256"
        }
      ],
      "stateMutability": "view",
      "type": "function",
      "constant": true
    },
    {
      "inputs": [
        {
          "internalType": "address",
          "name": "user",
          "type": "address"
        }
      ],
      "name": "getMilkStakingBalance",
      "outputs": [
        {
          "internalType": "uint256",
          "name": "",
          "type": "uint256"
        }
      ],
      "stateMutability": "view",
      "type": "function",
      "constant": true
    },
    {
      "inputs": [
        {
          "internalType": "address",
          "name": "user",
          "type": "address"
        }
      ],
      "name": "getTeaStakingBalance",
      "outputs": [
        {
          "internalType": "uint256",
          "name": "",
          "type": "uint256"
        }
      ],
      "stateMutability": "view",
      "type": "function",
      "constant": true
    },
    {
      "inputs": [
        {
          "internalType": "address",
          "name": "user",
          "type": "address"
        }
      ],
      "name": "getPearlStakingBalance",
      "outputs": [
        {
          "internalType": "uint256",
          "name": "",
          "type": "uint256"
        }
      ],
      "stateMutability": "view",
      "type": "function",
      "constant": true
    },
    {
      "inputs": [
        {
          "internalType": "uint256",
          "name": "milkAmount",
          "type": "uint256"
        },
        {
          "internalType": "uint256",
          "name": "teaAmount",
          "type": "uint256"
        },
        {
          "internalType": "uint256",
          "name": "pearlAmount",
          "type": "uint256"
        }
      ],
      "name": "stakeTokens",
      "outputs": [],
      "stateMutability": "nonpayable",
      "type": "function"
    },
    {
      "inputs": [
        {
          "internalType": "uint256",
          "name": "milkAmount",
          "type": "uint256"
        },
        {
          "internalType": "uint256",
          "name": "teaAmount",
          "type": "uint256"
        },
        {
          "internalType": "uint256",
          "name": "pearlAmount",
          "type": "uint256"
        }
      ],
      "name": "unstakeTokens",
      "outputs": [],
      "stateMutability": "nonpayable",
      "type": "function"
    },
    {
      "inputs": [
        {
          "internalType": "address",
          "name": "user",
          "type": "address"
        }
      ],
      "name": "getCurrentYield",
      "outputs": [
        {
          "internalType": "uint256",
          "name": "",
          "type": "uint256"
        }
      ],
      "stateMutability": "view",
      "type": "function",
      "constant": true
    },
    {
      "inputs": [],
      "name": "harvestRewards",
      "outputs": [],
      "stateMutability": "nonpayable",
      "type": "function"
    }
  ],
  "bytecode": "0x60806040526040518060400160405280600881526020017f426f62614661726d00000000000000000000000000000000000000000000000081525060009080519060200190620000519291906200019b565b503480156200005f57600080fd5b506040516200275038038062002750833981810160405281019062000085919062000398565b60c860088190555083600760006101000a81548173ffffffffffffffffffffffffffffffffffffffff021916908373ffffffffffffffffffffffffffffffffffffffff16021790555082600960006101000a81548173ffffffffffffffffffffffffffffffffffffffff021916908373ffffffffffffffffffffffffffffffffffffffff16021790555081600a60006101000a81548173ffffffffffffffffffffffffffffffffffffffff021916908373ffffffffffffffffffffffffffffffffffffffff16021790555080600b60006101000a81548173ffffffffffffffffffffffffffffffffffffffff021916908373ffffffffffffffffffffffffffffffffffffffff160217905550505050506200046e565b828054620001a99062000439565b90600052602060002090601f016020900481019282620001cd576000855562000219565b82601f10620001e857805160ff191683800117855562000219565b8280016001018555821562000219579182015b8281111562000218578251825591602001919060010190620001fb565b5b5090506200022891906200022c565b5090565b5b80821115620002475760008160009055506001016200022d565b5090565b600080fd5b600073ffffffffffffffffffffffffffffffffffffffff82169050919050565b60006200027d8262000250565b9050919050565b6000620002918262000270565b9050919050565b620002a38162000284565b8114620002af57600080fd5b50565b600081519050620002c38162000298565b92915050565b6000620002d68262000270565b9050919050565b620002e881620002c9565b8114620002f457600080fd5b50565b6000815190506200030881620002dd565b92915050565b60006200031b8262000270565b9050919050565b6200032d816200030e565b81146200033957600080fd5b50565b6000815190506200034d8162000322565b92915050565b6000620003608262000270565b9050919050565b620003728162000353565b81146200037e57600080fd5b50565b600081519050620003928162000367565b92915050565b60008060008060808587031215620003b557620003b46200024b565b5b6000620003c587828801620002b2565b9450506020620003d887828801620002f7565b9350506040620003eb878288016200033c565b9250506060620003fe8782880162000381565b91505092959194509250565b7f4e487b7100000000000000000000000000000000000000000000000000000000600052602260045260246000fd5b600060028204905060018216806200045257607f821691505b6020821081036200046857620004676200040a565b5b50919050565b6122d2806200047e6000396000f3fe608060405234801561001057600080fd5b50600436106101215760003560e01c80638861f166116100ad578063d1edbc5311610071578063d1edbc5314610332578063d764b78f14610362578063da743f8b14610392578063e4e399ac146103c2578063f14b4eba146103f257610121565b80638861f166146102785780638933b6fd146102965780639fa639ce146102b4578063b114dcaf146102e4578063b23daf011461030257610121565b80634a0b35aa116100f45780634a0b35aa1461019a57806353bb4f3a146101ca57806356ac8f60146101fa5780637453c3181461022a578063762be5971461024857610121565b806306fdde03146101265780631ceb7ee6146101445780632be11ae2146101605780633f697ce91461016a575b600080fd5b61012e61040e565b60405161013b91906119f7565b60405180910390f35b61015e60048036038101906101599190611a54565b61049c565b005b610168610c1e565b005b610184600480360381019061017f9190611b05565b610ec2565b6040516101919190611b41565b60405180910390f35b6101b460048036038101906101af9190611b05565b610eda565b6040516101c19190611b41565b60405180910390f35b6101e460048036038101906101df9190611b05565b610ef2565b6040516101f19190611b41565b60405180910390f35b610214600480360381019061020f9190611b05565b610f3b565b6040516102219190611b41565b60405180910390f35b610232610f53565b60405161023f9190611bbb565b60405180910390f35b610262600480360381019061025d9190611b05565b610f79565b60405161026f9190611b41565b60405180910390f35b610280610f91565b60405161028d9190611bf7565b60405180910390f35b61029e610fb7565b6040516102ab9190611c33565b60405180910390f35b6102ce60048036038101906102c99190611b05565b610fdd565b6040516102db9190611b41565b60405180910390f35b6102ec611026565b6040516102f99190611c6f565b60405180910390f35b61031c60048036038101906103179190611b05565b61104c565b6040516103299190611b41565b60405180910390f35b61034c60048036038101906103479190611b05565b611095565b6040516103599190611b41565b60405180910390f35b61037c60048036038101906103779190611b05565b611232565b6040516103899190611ca5565b60405180910390f35b6103ac60048036038101906103a79190611b05565b611252565b6040516103b99190611b41565b60405180910390f35b6103dc60048036038101906103d79190611b05565b61129b565b6040516103e99190611b41565b60405180910390f35b61040c60048036038101906104079190611a54565b6112b3565b005b6000805461041b90611cef565b80601f016020809104026020016040519081016040528092919081815260200182805461044790611cef565b80156104945780601f1061046957610100808354040283529160200191610494565b820191906000526020600020905b81548152906001019060200180831161047757829003601f168201915b505050505081565b600083118015610547575082600960009054906101000a900473ffffffffffffffffffffffffffffffffffffffff1673ffffffffffffffffffffffffffffffffffffffff166370a08231336040518263ffffffff1660e01b81526004016105039190611d2f565b602060405180830381865afa158015610520573d6000803e3d6000fd5b505050506040513d601f19601f820116820180604052508101906105449190611d5f565b10155b80156105535750600082115b80156105fa575081600a60009054906101000a900473ffffffffffffffffffffffffffffffffffffffff1673ffffffffffffffffffffffffffffffffffffffff166370a08231336040518263ffffffff1660e01b81526004016105b69190611d2f565b602060405180830381865afa1580156105d3573d6000803e3d6000fd5b505050506040513d601f19601f820116820180604052508101906105f79190611d5f565b10155b80156106065750600081115b80156106ad575080600b60009054906101000a900473ffffffffffffffffffffffffffffffffffffffff1673ffffffffffffffffffffffffffffffffffffffff166370a08231336040518263ffffffff1660e01b81526004016106699190611d2f565b602060405180830381865afa158015610686573d6000803e3d6000fd5b505050506040513d601f19601f820116820180604052508101906106aa9190611d5f565b10155b6106ec576040517f08c379a00000000000000000000000000000000000000000000000000000000081526004016106e390611e24565b60405180910390fd5b60011515600660003373ffffffffffffffffffffffffffffffffffffffff1673ffffffffffffffffffffffffffffffffffffffff16815260200190815260200160002060009054906101000a900460ff161515036107a957600061074f33611095565b905080600160003373ffffffffffffffffffffffffffffffffffffffff1673ffffffffffffffffffffffffffffffffffffffff16815260200190815260200160002060008282546107a09190611e73565b92505081905550505b600960009054906101000a900473ffffffffffffffffffffffffffffffffffffffff1673ffffffffffffffffffffffffffffffffffffffff166323b872dd3330866040518463ffffffff1660e01b815260040161080893929190611ec9565b6020604051808303816000875af1158015610827573d6000803e3d6000fd5b505050506040513d601f19601f8201168201806040525081019061084b9190611f2c565b50600a60009054906101000a900473ffffffffffffffffffffffffffffffffffffffff1673ffffffffffffffffffffffffffffffffffffffff166323b872dd3330856040518463ffffffff1660e01b81526004016108ab93929190611ec9565b6020604051808303816000875af11580156108ca573d6000803e3d6000fd5b505050506040513d601f19601f820116820180604052508101906108ee9190611f2c565b50600b60009054906101000a900473ffffffffffffffffffffffffffffffffffffffff1673ffffffffffffffffffffffffffffffffffffffff166323b872dd3330846040518463ffffffff1660e01b815260040161094e93929190611ec9565b6020604051808303816000875af115801561096d573d6000803e3d6000fd5b505050506040513d601f19601f820116820180604052508101906109919190611f2c565b5082600360003373ffffffffffffffffffffffffffffffffffffffff1673ffffffffffffffffffffffffffffffffffffffff16815260200190815260200160002060008282546109e19190611e73565b9250508190555081600460003373ffffffffffffffffffffffffffffffffffffffff1673ffffffffffffffffffffffffffffffffffffffff1681526020019081526020016000206000828254610a379190611e73565b9250508190555080600560003373ffffffffffffffffffffffffffffffffffffffff1673ffffffffffffffffffffffffffffffffffffffff1681526020019081526020016000206000828254610a8d9190611e73565b9250508190555043600260003373ffffffffffffffffffffffffffffffffffffffff1673ffffffffffffffffffffffffffffffffffffffff168152602001908152602001600020819055506001600660003373ffffffffffffffffffffffffffffffffffffffff1673ffffffffffffffffffffffffffffffffffffffff16815260200190815260200160002060006101000a81548160ff02191690831515021790555060006008549050600760009054906101000a900473ffffffffffffffffffffffffffffffffffffffff1673ffffffffffffffffffffffffffffffffffffffff166340c10f1933836040518363ffffffff1660e01b8152600401610b94929190611f59565b600060405180830381600087803b158015610bae57600080fd5b505af1158015610bc2573d6000803e3d6000fd5b505050503373ffffffffffffffffffffffffffffffffffffffff167f4d39ad1d030ac4d5562b3eedc6c0383fd8c9b38af0856a3ceda7e74119ef68b4858585604051610c1093929190612066565b60405180910390a250505050565b6000610c2933611095565b90506000811180610c7957506000600160003373ffffffffffffffffffffffffffffffffffffffff1673ffffffffffffffffffffffffffffffffffffffff16815260200190815260200160002054115b610cb8576040517f08c379a0000000000000000000000000000000000000000000000000000000008152600401610caf90612122565b60405180910390fd5b60008190506000600160003373ffffffffffffffffffffffffffffffffffffffff1673ffffffffffffffffffffffffffffffffffffffff1681526020019081526020016000205414610d9d576000600160003373ffffffffffffffffffffffffffffffffffffffff1673ffffffffffffffffffffffffffffffffffffffff1681526020019081526020016000205490506000600160003373ffffffffffffffffffffffffffffffffffffffff1673ffffffffffffffffffffffffffffffffffffffff168152602001908152602001600020819055508083610d999190611e73565b9150505b43600260003373ffffffffffffffffffffffffffffffffffffffff1673ffffffffffffffffffffffffffffffffffffffff16815260200190815260200160002081905550600760009054906101000a900473ffffffffffffffffffffffffffffffffffffffff1673ffffffffffffffffffffffffffffffffffffffff166340c10f1933836040518363ffffffff1660e01b8152600401610e3e929190611f59565b600060405180830381600087803b158015610e5857600080fd5b505af1158015610e6c573d6000803e3d6000fd5b505050503373ffffffffffffffffffffffffffffffffffffffff167fdaaebb9609cb2f719c59c9d334be287bf4def107ad3dec4a6f90d8abaa94c73c82604051610eb69190611b41565b60405180910390a25050565b60026020528060005260406000206000915090505481565b60016020528060005260406000206000915090505481565b6000600360008373ffffffffffffffffffffffffffffffffffffffff1673ffffffffffffffffffffffffffffffffffffffff168152602001908152602001600020549050919050565b60056020528060005260406000206000915090505481565b600960009054906101000a900473ffffffffffffffffffffffffffffffffffffffff1681565b60046020528060005260406000206000915090505481565b600760009054906101000a900473ffffffffffffffffffffffffffffffffffffffff1681565b600a60009054906101000a900473ffffffffffffffffffffffffffffffffffffffff1681565b6000600460008373ffffffffffffffffffffffffffffffffffffffff1673ffffffffffffffffffffffffffffffffffffffff168152602001908152602001600020549050919050565b600b60009054906101000a900473ffffffffffffffffffffffffffffffffffffffff1681565b6000600160008373ffffffffffffffffffffffffffffffffffffffff1673ffffffffffffffffffffffffffffffffffffffff168152602001908152602001600020549050919050565b6000804390506000600260008573ffffffffffffffffffffffffffffffffffffffff1673ffffffffffffffffffffffffffffffffffffffff16815260200190815260200160002054826110e89190612142565b9050600060646032600360008873ffffffffffffffffffffffffffffffffffffffff1673ffffffffffffffffffffffffffffffffffffffff1681526020019081526020016000205461113a9190612176565b61114491906121ff565b905060006064601e600460008973ffffffffffffffffffffffffffffffffffffffff1673ffffffffffffffffffffffffffffffffffffffff168152602001908152602001600020546111969190612176565b6111a091906121ff565b9050600060646014600560008a73ffffffffffffffffffffffffffffffffffffffff1673ffffffffffffffffffffffffffffffffffffffff168152602001908152602001600020546111f29190612176565b6111fc91906121ff565b9050600081838561120d9190611e73565b6112179190611e73565b856112229190612176565b9050809650505050505050919050565b60066020528060005260406000206000915054906101000a900460ff1681565b6000600560008373ffffffffffffffffffffffffffffffffffffffff1673ffffffffffffffffffffffffffffffffffffffff168152602001908152602001600020549050919050565b60036020528060005260406000206000915090505481565b60011515600660003373ffffffffffffffffffffffffffffffffffffffff1673ffffffffffffffffffffffffffffffffffffffff16815260200190815260200160002060009054906101000a900460ff161515148015611352575082600360003373ffffffffffffffffffffffffffffffffffffffff1673ffffffffffffffffffffffffffffffffffffffff1681526020019081526020016000205410155b801561139d575081600460003373ffffffffffffffffffffffffffffffffffffffff1673ffffffffffffffffffffffffffffffffffffffff1681526020019081526020016000205410155b80156113e8575080600560003373ffffffffffffffffffffffffffffffffffffffff1673ffffffffffffffffffffffffffffffffffffffff1681526020019081526020016000205410155b611427576040517f08c379a000000000000000000000000000000000000000000000000000000000815260040161141e9061227c565b60405180910390fd5b600061143233611095565b905080600160003373ffffffffffffffffffffffffffffffffffffffff1673ffffffffffffffffffffffffffffffffffffffff16815260200190815260200160002060008282546114839190611e73565b9250508190555060008490506000849050600084905060009650600095506000945082600360003373ffffffffffffffffffffffffffffffffffffffff1673ffffffffffffffffffffffffffffffffffffffff16815260200190815260200160002060008282546114f49190612142565b92505081905550600960009054906101000a900473ffffffffffffffffffffffffffffffffffffffff1673ffffffffffffffffffffffffffffffffffffffff1663a9059cbb33856040518363ffffffff1660e01b8152600401611558929190611f59565b6020604051808303816000875af1158015611577573d6000803e3d6000fd5b505050506040513d601f19601f8201168201806040525081019061159b9190611f2c565b5081600460003373ffffffffffffffffffffffffffffffffffffffff1673ffffffffffffffffffffffffffffffffffffffff16815260200190815260200160002060008282546115eb9190612142565b92505081905550600a60009054906101000a900473ffffffffffffffffffffffffffffffffffffffff1673ffffffffffffffffffffffffffffffffffffffff1663a9059cbb33846040518363ffffffff1660e01b815260040161164f929190611f59565b6020604051808303816000875af115801561166e573d6000803e3d6000fd5b505050506040513d601f19601f820116820180604052508101906116929190611f2c565b5080600560003373ffffffffffffffffffffffffffffffffffffffff1673ffffffffffffffffffffffffffffffffffffffff16815260200190815260200160002060008282546116e29190612142565b92505081905550600b60009054906101000a900473ffffffffffffffffffffffffffffffffffffffff1673ffffffffffffffffffffffffffffffffffffffff1663a9059cbb33836040518363ffffffff1660e01b8152600401611746929190611f59565b6020604051808303816000875af1158015611765573d6000803e3d6000fd5b505050506040513d601f19601f820116820180604052508101906117899190611f2c565b506000600360003373ffffffffffffffffffffffffffffffffffffffff1673ffffffffffffffffffffffffffffffffffffffff16815260200190815260200160002054148061181757506000600460003373ffffffffffffffffffffffffffffffffffffffff1673ffffffffffffffffffffffffffffffffffffffff16815260200190815260200160002054145b8061186157506000600560003373ffffffffffffffffffffffffffffffffffffffff1673ffffffffffffffffffffffffffffffffffffffff16815260200190815260200160002054145b156118bf576000600660003373ffffffffffffffffffffffffffffffffffffffff1673ffffffffffffffffffffffffffffffffffffffff16815260200190815260200160002060006101000a81548160ff0219169083151502179055505b43600260003373ffffffffffffffffffffffffffffffffffffffff1673ffffffffffffffffffffffffffffffffffffffff168152602001908152602001600020819055503373ffffffffffffffffffffffffffffffffffffffff167f6f55c2199fe71b3ef029822eb857ccbf5f01fab0bc1a9fc46fecaaeadfa462f588888860405161194d93929190612066565b60405180910390a250505050505050565b600081519050919050565b600082825260208201905092915050565b60005b8381101561199857808201518184015260208101905061197d565b838111156119a7576000848401525b50505050565b6000601f19601f8301169050919050565b60006119c98261195e565b6119d38185611969565b93506119e381856020860161197a565b6119ec816119ad565b840191505092915050565b60006020820190508181036000830152611a1181846119be565b905092915050565b600080fd5b6000819050919050565b611a3181611a1e565b8114611a3c57600080fd5b50565b600081359050611a4e81611a28565b92915050565b600080600060608486031215611a6d57611a6c611a19565b5b6000611a7b86828701611a3f565b9350506020611a8c86828701611a3f565b9250506040611a9d86828701611a3f565b9150509250925092565b600073ffffffffffffffffffffffffffffffffffffffff82169050919050565b6000611ad282611aa7565b9050919050565b611ae281611ac7565b8114611aed57600080fd5b50565b600081359050611aff81611ad9565b92915050565b600060208284031215611b1b57611b1a611a19565b5b6000611b2984828501611af0565b91505092915050565b611b3b81611a1e565b82525050565b6000602082019050611b566000830184611b32565b92915050565b6000819050919050565b6000611b81611b7c611b7784611aa7565b611b5c565b611aa7565b9050919050565b6000611b9382611b66565b9050919050565b6000611ba582611b88565b9050919050565b611bb581611b9a565b82525050565b6000602082019050611bd06000830184611bac565b92915050565b6000611be182611b88565b9050919050565b611bf181611bd6565b82525050565b6000602082019050611c0c6000830184611be8565b92915050565b6000611c1d82611b88565b9050919050565b611c2d81611c12565b82525050565b6000602082019050611c486000830184611c24565b92915050565b6000611c5982611b88565b9050919050565b611c6981611c4e565b82525050565b6000602082019050611c846000830184611c60565b92915050565b60008115159050919050565b611c9f81611c8a565b82525050565b6000602082019050611cba6000830184611c96565b92915050565b7f4e487b7100000000000000000000000000000000000000000000000000000000600052602260045260246000fd5b60006002820490506001821680611d0757607f821691505b602082108103611d1a57611d19611cc0565b5b50919050565b611d2981611ac7565b82525050565b6000602082019050611d446000830184611d20565b92915050565b600081519050611d5981611a28565b92915050565b600060208284031215611d7557611d74611a19565b5b6000611d8384828501611d4a565b91505092915050565b7f43616e6e6f74207374616b65207a65726f204c5020746f6b656e7320746f207460008201527f6865206661726d202f2055736572206d757374206f776e20656e6f756768204c60208201527f5020746f6b656e73206173207370656369666965640000000000000000000000604082015250565b6000611e0e605583611969565b9150611e1982611d8c565b606082019050919050565b60006020820190508181036000830152611e3d81611e01565b9050919050565b7f4e487b7100000000000000000000000000000000000000000000000000000000600052601160045260246000fd5b6000611e7e82611a1e565b9150611e8983611a1e565b9250827fffffffffffffffffffffffffffffffffffffffffffffffffffffffffffffffff03821115611ebe57611ebd611e44565b5b828201905092915050565b6000606082019050611ede6000830186611d20565b611eeb6020830185611d20565b611ef86040830184611b32565b949350505050565b611f0981611c8a565b8114611f1457600080fd5b50565b600081519050611f2681611f00565b92915050565b600060208284031215611f4257611f41611a19565b5b6000611f5084828501611f17565b91505092915050565b6000604082019050611f6e6000830185611d20565b611f7b6020830184611b32565b9392505050565b7f4d494c4b00000000000000000000000000000000000000000000000000000000600082015250565b6000611fb8600483611969565b9150611fc382611f82565b602082019050919050565b7f5445410000000000000000000000000000000000000000000000000000000000600082015250565b6000612004600383611969565b915061200f82611fce565b602082019050919050565b7f504541524c000000000000000000000000000000000000000000000000000000600082015250565b6000612050600583611969565b915061205b8261201a565b602082019050919050565b600060c082019050818103600083015261207f81611fab565b905061208e6020830186611b32565b818103604083015261209f81611ff7565b90506120ae6060830185611b32565b81810360808301526120bf81612043565b90506120ce60a0830184611b32565b949350505050565b7f4e6f207265776172647320746f20686172766573740000000000000000000000600082015250565b600061210c601583611969565b9150612117826120d6565b602082019050919050565b6000602082019050818103600083015261213b816120ff565b9050919050565b600061214d82611a1e565b915061215883611a1e565b92508282101561216b5761216a611e44565b5b828203905092915050565b600061218182611a1e565b915061218c83611a1e565b9250817fffffffffffffffffffffffffffffffffffffffffffffffffffffffffffffffff04831182151516156121c5576121c4611e44565b5b828202905092915050565b7f4e487b7100000000000000000000000000000000000000000000000000000000600052601260045260246000fd5b600061220a82611a1e565b915061221583611a1e565b925082612225576122246121d0565b5b828204905092915050565b7f4e6f204c5020746f6b656e7320746f20756e7374616b65000000000000000000600082015250565b6000612266601783611969565b915061227182612230565b602082019050919050565b6000602082019050818103600083015261229581612259565b905091905056fea264697066735822122020447e8168d9afa8705d71e58fcb6496a414af24ffed0446277e8d49f17c35df64736f6c634300080e0033",
  "immutableReferences": {},
  "source": "pragma solidity ^0.8.7;\r\n\r\nimport \"./BobaToken.sol\";\r\nimport \"./MilkToken.sol\";\r\nimport \"./TeaToken.sol\";\r\nimport \"./PearlToken.sol\";\r\nimport \"./MilkToken2.sol\";\r\nimport \"./TeaToken2.sol\";\r\nimport \"./PearlToken2.sol\";\r\n//import \"./MilkTokenSwap.sol\";\r\n//import \"./TeaTokenSwap.sol\";\r\n//import \"./PearlTokenSwap.sol\";\r\n\r\ncontract BobaFarm {\r\n\r\n    string public name = \"BobaFarm\";\r\n\r\n    //map useraddress to the following values\r\n    mapping(address => uint256) public bobaBalance;\r\n    mapping(address => uint256) public startBlock;\r\n    mapping(address => uint256) public milkStakingBalance;\r\n    mapping(address => uint256) public teaStakingBalance;\r\n    mapping(address => uint256) public pearlStakingBalance;\r\n    mapping(address => bool) public staking;\r\n\r\n    //Reward token\r\n    BobaToken public bobaToken;\r\n    uint256 private rewardTokensPerBlock;\r\n\r\n    //LP tokens\r\n    MilkToken2 public milkToken;\r\n    TeaToken2 public teaToken;\r\n    PearlToken2 public pearlToken;\r\n\r\n    //events\r\n    //event Stake(address indexed from, uint256 amount, string token);\r\n    //event Unstake(address indexed from, uint256 amount, string token);\r\n    event Stake(address indexed from, string lp1, uint256 amountLp1, string lp2, uint256 amountLp2, string lp3, uint256 amountLp3);\r\n    event Unstake(address indexed from, string lp1, uint256 amountLp1, string lp2, uint256 amountLp2, string lp3, uint256 amountLp3);\r\n    event HarvestRewards(address indexed to, uint256 amount);\r\n\r\n    constructor(BobaToken _bobaToken, MilkToken2 _milkToken, TeaToken2 _teaToken, PearlToken2 _pearlToken) {\r\n        rewardTokensPerBlock = 200;\r\n        bobaToken = _bobaToken;\r\n        milkToken = _milkToken;\r\n        teaToken = _teaToken;\r\n        pearlToken = _pearlToken;\r\n    }\r\n\r\n    function getBobaBalance(address user) public view returns (uint256) {\r\n        return bobaBalance[user];\r\n    }\r\n\r\n    function getMilkStakingBalance(address user) public view returns (uint256) {\r\n        return milkStakingBalance[user];\r\n    }\r\n\r\n    function getTeaStakingBalance(address user) public view returns (uint256) {\r\n        return teaStakingBalance[user];\r\n    }\r\n\r\n    function getPearlStakingBalance(address user) public view returns (uint256) {\r\n        return pearlStakingBalance[user];\r\n    }\r\n\r\n    function stakeTokens(uint256 milkAmount, uint256 teaAmount, uint256 pearlAmount) public {\r\n        require(milkAmount > 0 && milkToken.balanceOf(msg.sender) >= milkAmount &&\r\n                teaAmount > 0 && teaToken.balanceOf(msg.sender) >= teaAmount &&\r\n                pearlAmount > 0 && pearlToken.balanceOf(msg.sender) >= pearlAmount,\r\n                \"Cannot stake zero LP tokens to the farm / User must own enough LP tokens as specified\");\r\n\r\n        //check if user has already staked LP tokens, if true add unrealized yield to reward balance (bobaBalance).\r\n        //ensure accumulated yield is always captured.\r\n        if (staking[msg.sender] == true) {\r\n            uint256 amtToTransferToRewards = getCurrentYield(msg.sender);\r\n            bobaBalance[msg.sender] += amtToTransferToRewards;\r\n        }\r\n\r\n        milkToken.transferFrom(msg.sender, address(this), milkAmount);\r\n        teaToken.transferFrom(msg.sender, address(this), teaAmount);\r\n        pearlToken.transferFrom(msg.sender, address(this), pearlAmount);\r\n\r\n        milkStakingBalance[msg.sender] += milkAmount;\r\n        teaStakingBalance[msg.sender] += teaAmount;\r\n        pearlStakingBalance[msg.sender] += pearlAmount;\r\n\r\n        startBlock[msg.sender] = block.number;\r\n        staking[msg.sender] = true;\r\n\r\n        //Award users rewards token when they stake to farm\r\n        uint256 stakingRewards = rewardTokensPerBlock;\r\n        bobaToken.mint(msg.sender, stakingRewards);\r\n\r\n        //emit Stake(msg.sender, milkAmount, \"MILK\");\r\n        //emit Stake(msg.sender, teaAmount, \"TEA\");\r\n        //emit Stake(msg.sender, pearlAmount, \"PEARL\");\r\n        emit Stake(msg.sender, \"MILK\", milkAmount, \"TEA\", teaAmount, \"PEARL\", pearlAmount);\r\n    }\r\n\r\n    function unstakeTokens(uint256 milkAmount, uint256 teaAmount, uint256 pearlAmount) public {\r\n        require(staking[msg.sender] == true && milkStakingBalance[msg.sender] >= milkAmount &&\r\n                teaStakingBalance[msg.sender] >= teaAmount && pearlStakingBalance[msg.sender] >= pearlAmount,\r\n                \"No LP tokens to unstake\");\r\n        \r\n        //ensure accumulated yield is captured.\r\n        uint256 amtToTransferToRewards = getCurrentYield(msg.sender);\r\n        bobaBalance[msg.sender] += amtToTransferToRewards;\r\n\r\n        uint256 milkTransferAmount = milkAmount;\r\n        uint256 teaTransferAmount = teaAmount;\r\n        uint256 pearlTransferAmount = pearlAmount;\r\n\r\n        //reset amounts (prevent re-entrancy)\r\n        milkAmount = 0;\r\n        teaAmount = 0;\r\n        pearlAmount = 0;\r\n\r\n        milkStakingBalance[msg.sender] -= milkTransferAmount;\r\n        milkToken.transfer(msg.sender, milkTransferAmount);\r\n        teaStakingBalance[msg.sender] -= teaTransferAmount;\r\n        teaToken.transfer(msg.sender, teaTransferAmount);\r\n        pearlStakingBalance[msg.sender] -= pearlTransferAmount;\r\n        pearlToken.transfer(msg.sender, pearlTransferAmount);\r\n\r\n        if (milkStakingBalance[msg.sender] == 0 || teaStakingBalance[msg.sender] == 0 || pearlStakingBalance[msg.sender] == 0) {\r\n            staking[msg.sender] = false;\r\n        }\r\n\r\n        startBlock[msg.sender] = block.number;\r\n\r\n        //emit Unstake(msg.sender, milkTransferAmount, \"MILK\");\r\n        //emit Unstake(msg.sender, teaTransferAmount, \"TEA\");\r\n        //emit Unstake(msg.sender, pearlTransferAmount, \"PEARL\");\r\n        emit Unstake(msg.sender, \"MILK\", milkAmount, \"TEA\", teaAmount, \"PEARL\", pearlAmount);\r\n    }\r\n\r\n    function getCurrentYield(address user) public view returns (uint256) {\r\n        uint256 endBlock = block.number;\r\n        uint256 numBlocksSince = endBlock - startBlock[user];\r\n        uint256 milkTokenYield = milkStakingBalance[user] * 50 / 100;\r\n        uint256 teaTokenYield = teaStakingBalance[user] * 30 / 100;\r\n        uint256 pearlTokenYield = pearlStakingBalance[user] * 20 / 100;\r\n        uint256 totalYield = numBlocksSince * (milkTokenYield + teaTokenYield + pearlTokenYield);\r\n        return totalYield;\r\n    }\r\n\r\n    function harvestRewards() public {\r\n        //ensure accumulated yield is captured\r\n        uint256 amtToTransferToRewards = getCurrentYield(msg.sender);\r\n        require(amtToTransferToRewards > 0 || bobaBalance[msg.sender] > 0, \"No rewards to harvest\");\r\n        \r\n        uint256 rewardsAmount = amtToTransferToRewards;\r\n\r\n        if (bobaBalance[msg.sender] != 0) {\r\n            uint256 currentRewards = bobaBalance[msg.sender];\r\n            //reset (prevent re-entrancy)\r\n            bobaBalance[msg.sender] = 0;\r\n            rewardsAmount = amtToTransferToRewards + currentRewards;\r\n        }\r\n\r\n        startBlock[msg.sender] = block.number;\r\n        bobaToken.mint(msg.sender, rewardsAmount);\r\n\r\n        emit HarvestRewards(msg.sender, rewardsAmount);\r\n    }\r\n}",
  "sourcePath": "C:\\Users\\zheru\\OneDrive\\blockchain\\LPFarmApp\\contracts\\BobaFarm.sol",
  "compiler": {
    "name": "solc",
    "version": "0.8.14+commit.80d49f37.Emscripten.clang"
  },
  "schemaVersion": "3.4.7",
  "updatedAt": "2022-06-20T13:21:16.014Z",
  "networkType": "ethereum",
  "devdoc": {
    "kind": "dev",
    "methods": {},
    "version": 1
  },
  "userdoc": {
    "kind": "user",
    "methods": {},
    "version": 1
  }
}