{
  "contractName": "BobaFarm",
  "abi": [
    {
      "inputs": [
        {
          "internalType": "contract BobaToken",
          "name": "_bobaToken",
          "type": "address"
        },
        {
          "internalType": "contract MilkToken",
          "name": "_milkToken",
          "type": "address"
        },
        {
          "internalType": "contract TeaToken",
          "name": "_teaToken",
          "type": "address"
        },
        {
          "internalType": "contract PearlToken",
          "name": "_pearlToken",
          "type": "address"
        }
      ],
      "stateMutability": "nonpayable",
      "type": "constructor"
    },
    {
      "anonymous": false,
      "inputs": [
        {
          "indexed": true,
          "internalType": "address",
          "name": "to",
          "type": "address"
        },
        {
          "indexed": false,
          "internalType": "uint256",
          "name": "amount",
          "type": "uint256"
        }
      ],
      "name": "HarvestRewards",
      "type": "event"
    },
    {
      "anonymous": false,
      "inputs": [
        {
          "indexed": true,
          "internalType": "address",
          "name": "from",
          "type": "address"
        },
        {
          "indexed": false,
          "internalType": "string",
          "name": "lp1",
          "type": "string"
        },
        {
          "indexed": false,
          "internalType": "uint256",
          "name": "amountLp1",
          "type": "uint256"
        },
        {
          "indexed": false,
          "internalType": "string",
          "name": "lp2",
          "type": "string"
        },
        {
          "indexed": false,
          "internalType": "uint256",
          "name": "amountLp2",
          "type": "uint256"
        },
        {
          "indexed": false,
          "internalType": "string",
          "name": "lp3",
          "type": "string"
        },
        {
          "indexed": false,
          "internalType": "uint256",
          "name": "amountLp3",
          "type": "uint256"
        }
      ],
      "name": "Stake",
      "type": "event"
    },
    {
      "anonymous": false,
      "inputs": [
        {
          "indexed": true,
          "internalType": "address",
          "name": "from",
          "type": "address"
        },
        {
          "indexed": false,
          "internalType": "string",
          "name": "lp1",
          "type": "string"
        },
        {
          "indexed": false,
          "internalType": "uint256",
          "name": "amountLp1",
          "type": "uint256"
        },
        {
          "indexed": false,
          "internalType": "string",
          "name": "lp2",
          "type": "string"
        },
        {
          "indexed": false,
          "internalType": "uint256",
          "name": "amountLp2",
          "type": "uint256"
        },
        {
          "indexed": false,
          "internalType": "string",
          "name": "lp3",
          "type": "string"
        },
        {
          "indexed": false,
          "internalType": "uint256",
          "name": "amountLp3",
          "type": "uint256"
        }
      ],
      "name": "Unstake",
      "type": "event"
    },
    {
      "inputs": [
        {
          "internalType": "address",
          "name": "",
          "type": "address"
        }
      ],
      "name": "bobaBalance",
      "outputs": [
        {
          "internalType": "uint256",
          "name": "",
          "type": "uint256"
        }
      ],
      "stateMutability": "view",
      "type": "function",
      "constant": true
    },
    {
      "inputs": [],
      "name": "bobaToken",
      "outputs": [
        {
          "internalType": "contract BobaToken",
          "name": "",
          "type": "address"
        }
      ],
      "stateMutability": "view",
      "type": "function",
      "constant": true
    },
    {
      "inputs": [
        {
          "internalType": "address",
          "name": "",
          "type": "address"
        }
      ],
      "name": "milkStakingBalance",
      "outputs": [
        {
          "internalType": "uint256",
          "name": "",
          "type": "uint256"
        }
      ],
      "stateMutability": "view",
      "type": "function",
      "constant": true
    },
    {
      "inputs": [],
      "name": "milkToken",
      "outputs": [
        {
          "internalType": "contract MilkToken",
          "name": "",
          "type": "address"
        }
      ],
      "stateMutability": "view",
      "type": "function",
      "constant": true
    },
    {
      "inputs": [],
      "name": "name",
      "outputs": [
        {
          "internalType": "string",
          "name": "",
          "type": "string"
        }
      ],
      "stateMutability": "view",
      "type": "function",
      "constant": true
    },
    {
      "inputs": [
        {
          "internalType": "address",
          "name": "",
          "type": "address"
        }
      ],
      "name": "pearlStakingBalance",
      "outputs": [
        {
          "internalType": "uint256",
          "name": "",
          "type": "uint256"
        }
      ],
      "stateMutability": "view",
      "type": "function",
      "constant": true
    },
    {
      "inputs": [],
      "name": "pearlToken",
      "outputs": [
        {
          "internalType": "contract PearlToken",
          "name": "",
          "type": "address"
        }
      ],
      "stateMutability": "view",
      "type": "function",
      "constant": true
    },
    {
      "inputs": [
        {
          "internalType": "address",
          "name": "",
          "type": "address"
        }
      ],
      "name": "staking",
      "outputs": [
        {
          "internalType": "bool",
          "name": "",
          "type": "bool"
        }
      ],
      "stateMutability": "view",
      "type": "function",
      "constant": true
    },
    {
      "inputs": [
        {
          "internalType": "address",
          "name": "",
          "type": "address"
        }
      ],
      "name": "startBlock",
      "outputs": [
        {
          "internalType": "uint256",
          "name": "",
          "type": "uint256"
        }
      ],
      "stateMutability": "view",
      "type": "function",
      "constant": true
    },
    {
      "inputs": [
        {
          "internalType": "address",
          "name": "",
          "type": "address"
        }
      ],
      "name": "teaStakingBalance",
      "outputs": [
        {
          "internalType": "uint256",
          "name": "",
          "type": "uint256"
        }
      ],
      "stateMutability": "view",
      "type": "function",
      "constant": true
    },
    {
      "inputs": [],
      "name": "teaToken",
      "outputs": [
        {
          "internalType": "contract TeaToken",
          "name": "",
          "type": "address"
        }
      ],
      "stateMutability": "view",
      "type": "function",
      "constant": true
    },
    {
      "inputs": [
        {
          "internalType": "uint256",
          "name": "milkAmount",
          "type": "uint256"
        },
        {
          "internalType": "uint256",
          "name": "teaAmount",
          "type": "uint256"
        },
        {
          "internalType": "uint256",
          "name": "pearlAmount",
          "type": "uint256"
        }
      ],
      "name": "stakeTokens",
      "outputs": [],
      "stateMutability": "nonpayable",
      "type": "function"
    },
    {
      "inputs": [
        {
          "internalType": "uint256",
          "name": "milkAmount",
          "type": "uint256"
        },
        {
          "internalType": "uint256",
          "name": "teaAmount",
          "type": "uint256"
        },
        {
          "internalType": "uint256",
          "name": "pearlAmount",
          "type": "uint256"
        }
      ],
      "name": "unstakeTokens",
      "outputs": [],
      "stateMutability": "nonpayable",
      "type": "function"
    },
    {
      "inputs": [
        {
          "internalType": "address",
          "name": "user",
          "type": "address"
        }
      ],
      "name": "getCurrentYield",
      "outputs": [
        {
          "internalType": "uint256",
          "name": "",
          "type": "uint256"
        }
      ],
      "stateMutability": "view",
      "type": "function",
      "constant": true
    },
    {
      "inputs": [],
      "name": "harvestRewards",
      "outputs": [],
      "stateMutability": "nonpayable",
      "type": "function"
    }
  ],
  "bytecode": "0x60806040526040518060400160405280600881526020017f426f62614661726d00000000000000000000000000000000000000000000000081525060009080519060200190620000519291906200019b565b503480156200005f57600080fd5b50604051620025b2380380620025b2833981810160405281019062000085919062000398565b60c860088190555083600760006101000a81548173ffffffffffffffffffffffffffffffffffffffff021916908373ffffffffffffffffffffffffffffffffffffffff16021790555082600960006101000a81548173ffffffffffffffffffffffffffffffffffffffff021916908373ffffffffffffffffffffffffffffffffffffffff16021790555081600a60006101000a81548173ffffffffffffffffffffffffffffffffffffffff021916908373ffffffffffffffffffffffffffffffffffffffff16021790555080600b60006101000a81548173ffffffffffffffffffffffffffffffffffffffff021916908373ffffffffffffffffffffffffffffffffffffffff160217905550505050506200046e565b828054620001a99062000439565b90600052602060002090601f016020900481019282620001cd576000855562000219565b82601f10620001e857805160ff191683800117855562000219565b8280016001018555821562000219579182015b8281111562000218578251825591602001919060010190620001fb565b5b5090506200022891906200022c565b5090565b5b80821115620002475760008160009055506001016200022d565b5090565b600080fd5b600073ffffffffffffffffffffffffffffffffffffffff82169050919050565b60006200027d8262000250565b9050919050565b6000620002918262000270565b9050919050565b620002a38162000284565b8114620002af57600080fd5b50565b600081519050620002c38162000298565b92915050565b6000620002d68262000270565b9050919050565b620002e881620002c9565b8114620002f457600080fd5b50565b6000815190506200030881620002dd565b92915050565b60006200031b8262000270565b9050919050565b6200032d816200030e565b81146200033957600080fd5b50565b6000815190506200034d8162000322565b92915050565b6000620003608262000270565b9050919050565b620003728162000353565b81146200037e57600080fd5b50565b600081519050620003928162000367565b92915050565b60008060008060808587031215620003b557620003b46200024b565b5b6000620003c587828801620002b2565b9450506020620003d887828801620002f7565b9350506040620003eb878288016200033c565b9250506060620003fe8782880162000381565b91505092959194509250565b7f4e487b7100000000000000000000000000000000000000000000000000000000600052602260045260246000fd5b600060028204905060018216806200045257607f821691505b6020821081036200046857620004676200040a565b5b50919050565b612134806200047e6000396000f3fe608060405234801561001057600080fd5b50600436106100f55760003560e01c8063762be59711610097578063d1edbc5311610066578063d1edbc5314610276578063d764b78f146102a6578063e4e399ac146102d6578063f14b4eba14610306576100f5565b8063762be597146101ec5780638861f1661461021c5780638933b6fd1461023a578063b114dcaf14610258576100f5565b80633f697ce9116100d35780633f697ce91461013e5780634a0b35aa1461016e57806356ac8f601461019e5780637453c318146101ce576100f5565b806306fdde03146100fa5780631ceb7ee6146101185780632be11ae214610134575b600080fd5b610102610322565b60405161010f9190611859565b60405180910390f35b610132600480360381019061012d91906118b6565b6103b0565b005b61013c610b6b565b005b61015860048036038101906101539190611967565b610e0f565b60405161016591906119a3565b60405180910390f35b61018860048036038101906101839190611967565b610e27565b60405161019591906119a3565b60405180910390f35b6101b860048036038101906101b39190611967565b610e3f565b6040516101c591906119a3565b60405180910390f35b6101d6610e57565b6040516101e39190611a1d565b60405180910390f35b61020660048036038101906102019190611967565b610e7d565b60405161021391906119a3565b60405180910390f35b610224610e95565b6040516102319190611a59565b60405180910390f35b610242610ebb565b60405161024f9190611a95565b60405180910390f35b610260610ee1565b60405161026d9190611ad1565b60405180910390f35b610290600480360381019061028b9190611967565b610f07565b60405161029d91906119a3565b60405180910390f35b6102c060048036038101906102bb9190611967565b6110a4565b6040516102cd9190611b07565b60405180910390f35b6102f060048036038101906102eb9190611967565b6110c4565b6040516102fd91906119a3565b60405180910390f35b610320600480360381019061031b91906118b6565b6110dc565b005b6000805461032f90611b51565b80601f016020809104026020016040519081016040528092919081815260200182805461035b90611b51565b80156103a85780601f1061037d576101008083540402835291602001916103a8565b820191906000526020600020905b81548152906001019060200180831161038b57829003601f168201915b505050505081565b60008311801561045b575082600960009054906101000a900473ffffffffffffffffffffffffffffffffffffffff1673ffffffffffffffffffffffffffffffffffffffff166370a08231336040518263ffffffff1660e01b81526004016104179190611b91565b602060405180830381865afa158015610434573d6000803e3d6000fd5b505050506040513d601f19601f820116820180604052508101906104589190611bc1565b10155b80156104675750600082115b801561050e575081600a60009054906101000a900473ffffffffffffffffffffffffffffffffffffffff1673ffffffffffffffffffffffffffffffffffffffff166370a08231336040518263ffffffff1660e01b81526004016104ca9190611b91565b602060405180830381865afa1580156104e7573d6000803e3d6000fd5b505050506040513d601f19601f8201168201806040525081019061050b9190611bc1565b10155b801561051a5750600081115b80156105c1575080600b60009054906101000a900473ffffffffffffffffffffffffffffffffffffffff1673ffffffffffffffffffffffffffffffffffffffff166370a08231336040518263ffffffff1660e01b815260040161057d9190611b91565b602060405180830381865afa15801561059a573d6000803e3d6000fd5b505050506040513d601f19601f820116820180604052508101906105be9190611bc1565b10155b610600576040517f08c379a00000000000000000000000000000000000000000000000000000000081526004016105f790611c86565b60405180910390fd5b60011515600660003373ffffffffffffffffffffffffffffffffffffffff1673ffffffffffffffffffffffffffffffffffffffff16815260200190815260200160002060009054906101000a900460ff161515036106bd57600061066333610f07565b905080600160003373ffffffffffffffffffffffffffffffffffffffff1673ffffffffffffffffffffffffffffffffffffffff16815260200190815260200160002060008282546106b49190611cd5565b92505081905550505b600960009054906101000a900473ffffffffffffffffffffffffffffffffffffffff1673ffffffffffffffffffffffffffffffffffffffff166323b872dd3330670de0b6b3a7640000876107119190611d2b565b6040518463ffffffff1660e01b815260040161072f93929190611d85565b6020604051808303816000875af115801561074e573d6000803e3d6000fd5b505050506040513d601f19601f820116820180604052508101906107729190611de8565b50600a60009054906101000a900473ffffffffffffffffffffffffffffffffffffffff1673ffffffffffffffffffffffffffffffffffffffff166323b872dd3330670de0b6b3a7640000866107c79190611d2b565b6040518463ffffffff1660e01b81526004016107e593929190611d85565b6020604051808303816000875af1158015610804573d6000803e3d6000fd5b505050506040513d601f19601f820116820180604052508101906108289190611de8565b50600b60009054906101000a900473ffffffffffffffffffffffffffffffffffffffff1673ffffffffffffffffffffffffffffffffffffffff166323b872dd3330670de0b6b3a76400008561087d9190611d2b565b6040518463ffffffff1660e01b815260040161089b93929190611d85565b6020604051808303816000875af11580156108ba573d6000803e3d6000fd5b505050506040513d601f19601f820116820180604052508101906108de9190611de8565b5082600360003373ffffffffffffffffffffffffffffffffffffffff1673ffffffffffffffffffffffffffffffffffffffff168152602001908152602001600020600082825461092e9190611cd5565b9250508190555081600460003373ffffffffffffffffffffffffffffffffffffffff1673ffffffffffffffffffffffffffffffffffffffff16815260200190815260200160002060008282546109849190611cd5565b9250508190555080600560003373ffffffffffffffffffffffffffffffffffffffff1673ffffffffffffffffffffffffffffffffffffffff16815260200190815260200160002060008282546109da9190611cd5565b9250508190555043600260003373ffffffffffffffffffffffffffffffffffffffff1673ffffffffffffffffffffffffffffffffffffffff168152602001908152602001600020819055506001600660003373ffffffffffffffffffffffffffffffffffffffff1673ffffffffffffffffffffffffffffffffffffffff16815260200190815260200160002060006101000a81548160ff02191690831515021790555060006008549050600760009054906101000a900473ffffffffffffffffffffffffffffffffffffffff1673ffffffffffffffffffffffffffffffffffffffff166340c10f1933836040518363ffffffff1660e01b8152600401610ae1929190611e15565b600060405180830381600087803b158015610afb57600080fd5b505af1158015610b0f573d6000803e3d6000fd5b505050503373ffffffffffffffffffffffffffffffffffffffff167f4d39ad1d030ac4d5562b3eedc6c0383fd8c9b38af0856a3ceda7e74119ef68b4858585604051610b5d93929190611f22565b60405180910390a250505050565b6000610b7633610f07565b90506000811180610bc657506000600160003373ffffffffffffffffffffffffffffffffffffffff1673ffffffffffffffffffffffffffffffffffffffff16815260200190815260200160002054115b610c05576040517f08c379a0000000000000000000000000000000000000000000000000000000008152600401610bfc90611fde565b60405180910390fd5b60008190506000600160003373ffffffffffffffffffffffffffffffffffffffff1673ffffffffffffffffffffffffffffffffffffffff1681526020019081526020016000205414610cea576000600160003373ffffffffffffffffffffffffffffffffffffffff1673ffffffffffffffffffffffffffffffffffffffff1681526020019081526020016000205490506000600160003373ffffffffffffffffffffffffffffffffffffffff1673ffffffffffffffffffffffffffffffffffffffff168152602001908152602001600020819055508083610ce69190611cd5565b9150505b43600260003373ffffffffffffffffffffffffffffffffffffffff1673ffffffffffffffffffffffffffffffffffffffff16815260200190815260200160002081905550600760009054906101000a900473ffffffffffffffffffffffffffffffffffffffff1673ffffffffffffffffffffffffffffffffffffffff166340c10f1933836040518363ffffffff1660e01b8152600401610d8b929190611e15565b600060405180830381600087803b158015610da557600080fd5b505af1158015610db9573d6000803e3d6000fd5b505050503373ffffffffffffffffffffffffffffffffffffffff167fdaaebb9609cb2f719c59c9d334be287bf4def107ad3dec4a6f90d8abaa94c73c82604051610e0391906119a3565b60405180910390a25050565b60026020528060005260406000206000915090505481565b60016020528060005260406000206000915090505481565b60056020528060005260406000206000915090505481565b600960009054906101000a900473ffffffffffffffffffffffffffffffffffffffff1681565b60046020528060005260406000206000915090505481565b600760009054906101000a900473ffffffffffffffffffffffffffffffffffffffff1681565b600a60009054906101000a900473ffffffffffffffffffffffffffffffffffffffff1681565b600b60009054906101000a900473ffffffffffffffffffffffffffffffffffffffff1681565b6000804390506000600260008573ffffffffffffffffffffffffffffffffffffffff1673ffffffffffffffffffffffffffffffffffffffff1681526020019081526020016000205482610f5a9190611ffe565b9050600060646032600360008873ffffffffffffffffffffffffffffffffffffffff1673ffffffffffffffffffffffffffffffffffffffff16815260200190815260200160002054610fac9190611d2b565b610fb69190612061565b905060006064601e600460008973ffffffffffffffffffffffffffffffffffffffff1673ffffffffffffffffffffffffffffffffffffffff168152602001908152602001600020546110089190611d2b565b6110129190612061565b9050600060646014600560008a73ffffffffffffffffffffffffffffffffffffffff1673ffffffffffffffffffffffffffffffffffffffff168152602001908152602001600020546110649190611d2b565b61106e9190612061565b9050600081838561107f9190611cd5565b6110899190611cd5565b856110949190611d2b565b9050809650505050505050919050565b60066020528060005260406000206000915054906101000a900460ff1681565b60036020528060005260406000206000915090505481565b60011515600660003373ffffffffffffffffffffffffffffffffffffffff1673ffffffffffffffffffffffffffffffffffffffff16815260200190815260200160002060009054906101000a900460ff16151514801561117b575082600360003373ffffffffffffffffffffffffffffffffffffffff1673ffffffffffffffffffffffffffffffffffffffff1681526020019081526020016000205410155b80156111c6575081600460003373ffffffffffffffffffffffffffffffffffffffff1673ffffffffffffffffffffffffffffffffffffffff1681526020019081526020016000205410155b8015611211575080600560003373ffffffffffffffffffffffffffffffffffffffff1673ffffffffffffffffffffffffffffffffffffffff1681526020019081526020016000205410155b611250576040517f08c379a0000000000000000000000000000000000000000000000000000000008152600401611247906120de565b60405180910390fd5b600061125b33610f07565b905080600160003373ffffffffffffffffffffffffffffffffffffffff1673ffffffffffffffffffffffffffffffffffffffff16815260200190815260200160002060008282546112ac9190611cd5565b9250508190555060008490506000849050600084905060009650600095506000945082600360003373ffffffffffffffffffffffffffffffffffffffff1673ffffffffffffffffffffffffffffffffffffffff168152602001908152602001600020600082825461131d9190611ffe565b92505081905550600960009054906101000a900473ffffffffffffffffffffffffffffffffffffffff1673ffffffffffffffffffffffffffffffffffffffff1663a9059cbb33670de0b6b3a7640000866113779190611d2b565b6040518363ffffffff1660e01b8152600401611394929190611e15565b6020604051808303816000875af11580156113b3573d6000803e3d6000fd5b505050506040513d601f19601f820116820180604052508101906113d79190611de8565b5081600460003373ffffffffffffffffffffffffffffffffffffffff1673ffffffffffffffffffffffffffffffffffffffff16815260200190815260200160002060008282546114279190611ffe565b92505081905550600a60009054906101000a900473ffffffffffffffffffffffffffffffffffffffff1673ffffffffffffffffffffffffffffffffffffffff1663a9059cbb33670de0b6b3a7640000856114819190611d2b565b6040518363ffffffff1660e01b815260040161149e929190611e15565b6020604051808303816000875af11580156114bd573d6000803e3d6000fd5b505050506040513d601f19601f820116820180604052508101906114e19190611de8565b5080600560003373ffffffffffffffffffffffffffffffffffffffff1673ffffffffffffffffffffffffffffffffffffffff16815260200190815260200160002060008282546115319190611ffe565b92505081905550600b60009054906101000a900473ffffffffffffffffffffffffffffffffffffffff1673ffffffffffffffffffffffffffffffffffffffff1663a9059cbb33670de0b6b3a76400008461158b9190611d2b565b6040518363ffffffff1660e01b81526004016115a8929190611e15565b6020604051808303816000875af11580156115c7573d6000803e3d6000fd5b505050506040513d601f19601f820116820180604052508101906115eb9190611de8565b506000600360003373ffffffffffffffffffffffffffffffffffffffff1673ffffffffffffffffffffffffffffffffffffffff16815260200190815260200160002054148061167957506000600460003373ffffffffffffffffffffffffffffffffffffffff1673ffffffffffffffffffffffffffffffffffffffff16815260200190815260200160002054145b806116c357506000600560003373ffffffffffffffffffffffffffffffffffffffff1673ffffffffffffffffffffffffffffffffffffffff16815260200190815260200160002054145b15611721576000600660003373ffffffffffffffffffffffffffffffffffffffff1673ffffffffffffffffffffffffffffffffffffffff16815260200190815260200160002060006101000a81548160ff0219169083151502179055505b43600260003373ffffffffffffffffffffffffffffffffffffffff1673ffffffffffffffffffffffffffffffffffffffff168152602001908152602001600020819055503373ffffffffffffffffffffffffffffffffffffffff167f6f55c2199fe71b3ef029822eb857ccbf5f01fab0bc1a9fc46fecaaeadfa462f58888886040516117af93929190611f22565b60405180910390a250505050505050565b600081519050919050565b600082825260208201905092915050565b60005b838110156117fa5780820151818401526020810190506117df565b83811115611809576000848401525b50505050565b6000601f19601f8301169050919050565b600061182b826117c0565b61183581856117cb565b93506118458185602086016117dc565b61184e8161180f565b840191505092915050565b600060208201905081810360008301526118738184611820565b905092915050565b600080fd5b6000819050919050565b61189381611880565b811461189e57600080fd5b50565b6000813590506118b08161188a565b92915050565b6000806000606084860312156118cf576118ce61187b565b5b60006118dd868287016118a1565b93505060206118ee868287016118a1565b92505060406118ff868287016118a1565b9150509250925092565b600073ffffffffffffffffffffffffffffffffffffffff82169050919050565b600061193482611909565b9050919050565b61194481611929565b811461194f57600080fd5b50565b6000813590506119618161193b565b92915050565b60006020828403121561197d5761197c61187b565b5b600061198b84828501611952565b91505092915050565b61199d81611880565b82525050565b60006020820190506119b86000830184611994565b92915050565b6000819050919050565b60006119e36119de6119d984611909565b6119be565b611909565b9050919050565b60006119f5826119c8565b9050919050565b6000611a07826119ea565b9050919050565b611a17816119fc565b82525050565b6000602082019050611a326000830184611a0e565b92915050565b6000611a43826119ea565b9050919050565b611a5381611a38565b82525050565b6000602082019050611a6e6000830184611a4a565b92915050565b6000611a7f826119ea565b9050919050565b611a8f81611a74565b82525050565b6000602082019050611aaa6000830184611a86565b92915050565b6000611abb826119ea565b9050919050565b611acb81611ab0565b82525050565b6000602082019050611ae66000830184611ac2565b92915050565b60008115159050919050565b611b0181611aec565b82525050565b6000602082019050611b1c6000830184611af8565b92915050565b7f4e487b7100000000000000000000000000000000000000000000000000000000600052602260045260246000fd5b60006002820490506001821680611b6957607f821691505b602082108103611b7c57611b7b611b22565b5b50919050565b611b8b81611929565b82525050565b6000602082019050611ba66000830184611b82565b92915050565b600081519050611bbb8161188a565b92915050565b600060208284031215611bd757611bd661187b565b5b6000611be584828501611bac565b91505092915050565b7f43616e6e6f74207374616b65207a65726f204c5020746f6b656e7320746f207460008201527f6865206661726d202f2055736572206d757374206f776e20656e6f756768204c60208201527f5020746f6b656e73206173207370656369666965640000000000000000000000604082015250565b6000611c706055836117cb565b9150611c7b82611bee565b606082019050919050565b60006020820190508181036000830152611c9f81611c63565b9050919050565b7f4e487b7100000000000000000000000000000000000000000000000000000000600052601160045260246000fd5b6000611ce082611880565b9150611ceb83611880565b9250827fffffffffffffffffffffffffffffffffffffffffffffffffffffffffffffffff03821115611d2057611d1f611ca6565b5b828201905092915050565b6000611d3682611880565b9150611d4183611880565b9250817fffffffffffffffffffffffffffffffffffffffffffffffffffffffffffffffff0483118215151615611d7a57611d79611ca6565b5b828202905092915050565b6000606082019050611d9a6000830186611b82565b611da76020830185611b82565b611db46040830184611994565b949350505050565b611dc581611aec565b8114611dd057600080fd5b50565b600081519050611de281611dbc565b92915050565b600060208284031215611dfe57611dfd61187b565b5b6000611e0c84828501611dd3565b91505092915050565b6000604082019050611e2a6000830185611b82565b611e376020830184611994565b9392505050565b7f4d494c4b00000000000000000000000000000000000000000000000000000000600082015250565b6000611e746004836117cb565b9150611e7f82611e3e565b602082019050919050565b7f5445410000000000000000000000000000000000000000000000000000000000600082015250565b6000611ec06003836117cb565b9150611ecb82611e8a565b602082019050919050565b7f504541524c000000000000000000000000000000000000000000000000000000600082015250565b6000611f0c6005836117cb565b9150611f1782611ed6565b602082019050919050565b600060c0820190508181036000830152611f3b81611e67565b9050611f4a6020830186611994565b8181036040830152611f5b81611eb3565b9050611f6a6060830185611994565b8181036080830152611f7b81611eff565b9050611f8a60a0830184611994565b949350505050565b7f4e6f207265776172647320746f20686172766573740000000000000000000000600082015250565b6000611fc86015836117cb565b9150611fd382611f92565b602082019050919050565b60006020820190508181036000830152611ff781611fbb565b9050919050565b600061200982611880565b915061201483611880565b92508282101561202757612026611ca6565b5b828203905092915050565b7f4e487b7100000000000000000000000000000000000000000000000000000000600052601260045260246000fd5b600061206c82611880565b915061207783611880565b92508261208757612086612032565b5b828204905092915050565b7f4e6f204c5020746f6b656e7320746f20756e7374616b65000000000000000000600082015250565b60006120c86017836117cb565b91506120d382612092565b602082019050919050565b600060208201905081810360008301526120f7816120bb565b905091905056fea26469706673582212203a2813621158c494f4f0c44d984d1a19dfbfced40af9dd4deaafc0057218f22764736f6c634300080e0033",
  "immutableReferences": {},
  "source": "pragma solidity ^0.8.7;\r\n\r\nimport \"./BobaToken.sol\";\r\nimport \"./MilkToken.sol\";\r\nimport \"./TeaToken.sol\";\r\nimport \"./PearlToken.sol\";\r\n//import \"./MilkTokenSwap.sol\";\r\n//import \"./TeaTokenSwap.sol\";\r\n//import \"./PearlTokenSwap.sol\";\r\n\r\ncontract BobaFarm {\r\n\r\n    string public name = \"BobaFarm\";\r\n\r\n    //map useraddress to the following values\r\n    mapping(address => uint256) public bobaBalance;\r\n    mapping(address => uint256) public startBlock;\r\n    mapping(address => uint256) public milkStakingBalance;\r\n    mapping(address => uint256) public teaStakingBalance;\r\n    mapping(address => uint256) public pearlStakingBalance;\r\n    mapping(address => bool) public staking;\r\n\r\n    //Reward token\r\n    BobaToken public bobaToken;\r\n    uint256 private rewardTokensPerBlock;\r\n\r\n    //LP tokens\r\n    MilkToken public milkToken;\r\n    TeaToken public teaToken;\r\n    PearlToken public pearlToken;\r\n\r\n    //events\r\n    //event Stake(address indexed from, uint256 amount, string token);\r\n    //event Unstake(address indexed from, uint256 amount, string token);\r\n    event Stake(address indexed from, string lp1, uint256 amountLp1, string lp2, uint256 amountLp2, string lp3, uint256 amountLp3);\r\n    event Unstake(address indexed from, string lp1, uint256 amountLp1, string lp2, uint256 amountLp2, string lp3, uint256 amountLp3);\r\n    event HarvestRewards(address indexed to, uint256 amount);\r\n\r\n    constructor(BobaToken _bobaToken, MilkToken _milkToken, TeaToken _teaToken, PearlToken _pearlToken) {\r\n        rewardTokensPerBlock = 200;\r\n        bobaToken = _bobaToken;\r\n        milkToken = _milkToken;\r\n        teaToken = _teaToken;\r\n        pearlToken = _pearlToken;\r\n    }\r\n\r\n    function stakeTokens(uint256 milkAmount, uint256 teaAmount, uint256 pearlAmount) public {\r\n        require(milkAmount > 0 && milkToken.balanceOf(msg.sender) >= milkAmount &&\r\n                teaAmount > 0 && teaToken.balanceOf(msg.sender) >= teaAmount &&\r\n                pearlAmount > 0 && pearlToken.balanceOf(msg.sender) >= pearlAmount,\r\n                \"Cannot stake zero LP tokens to the farm / User must own enough LP tokens as specified\");\r\n\r\n        //check if user has already staked LP tokens, if true add unrealized yield to reward balance (bobaBalance).\r\n        //ensure accumulated yield is always captured.\r\n        if (staking[msg.sender] == true) {\r\n            uint256 amtToTransferToRewards = getCurrentYield(msg.sender);\r\n            bobaBalance[msg.sender] += amtToTransferToRewards;\r\n        }\r\n\r\n        milkToken.transferFrom(msg.sender, address(this), milkAmount * 10 ** 18);\r\n        teaToken.transferFrom(msg.sender, address(this), teaAmount * 10 ** 18);\r\n        pearlToken.transferFrom(msg.sender, address(this), pearlAmount * 10 ** 18);\r\n\r\n        milkStakingBalance[msg.sender] += milkAmount;\r\n        teaStakingBalance[msg.sender] += teaAmount;\r\n        pearlStakingBalance[msg.sender] += pearlAmount;\r\n\r\n        startBlock[msg.sender] = block.number;\r\n        staking[msg.sender] = true;\r\n\r\n        //Award users rewards token when they stake to farm\r\n        uint256 stakingRewards = rewardTokensPerBlock;\r\n        bobaToken.mint(msg.sender, stakingRewards);\r\n\r\n        //emit Stake(msg.sender, milkAmount, \"MILK\");\r\n        //emit Stake(msg.sender, teaAmount, \"TEA\");\r\n        //emit Stake(msg.sender, pearlAmount, \"PEARL\");\r\n        emit Stake(msg.sender, \"MILK\", milkAmount, \"TEA\", teaAmount, \"PEARL\", pearlAmount);\r\n    }\r\n\r\n    function unstakeTokens(uint256 milkAmount, uint256 teaAmount, uint256 pearlAmount) public {\r\n        require(staking[msg.sender] == true && milkStakingBalance[msg.sender] >= milkAmount &&\r\n                teaStakingBalance[msg.sender] >= teaAmount && pearlStakingBalance[msg.sender] >= pearlAmount,\r\n                \"No LP tokens to unstake\");\r\n        \r\n        //ensure accumulated yield is captured.\r\n        uint256 amtToTransferToRewards = getCurrentYield(msg.sender);\r\n        bobaBalance[msg.sender] += amtToTransferToRewards;\r\n\r\n        uint256 milkTransferAmount = milkAmount;\r\n        uint256 teaTransferAmount = teaAmount;\r\n        uint256 pearlTransferAmount = pearlAmount;\r\n\r\n        //reset amounts (prevent re-entrancy)\r\n        milkAmount = 0;\r\n        teaAmount = 0;\r\n        pearlAmount = 0;\r\n\r\n        milkStakingBalance[msg.sender] -= milkTransferAmount;\r\n        milkToken.transfer(msg.sender, milkTransferAmount * 10 ** 18);\r\n        teaStakingBalance[msg.sender] -= teaTransferAmount;\r\n        teaToken.transfer(msg.sender, teaTransferAmount * 10 ** 18);\r\n        pearlStakingBalance[msg.sender] -= pearlTransferAmount;\r\n        pearlToken.transfer(msg.sender, pearlTransferAmount * 10 ** 18);\r\n\r\n        if (milkStakingBalance[msg.sender] == 0 || teaStakingBalance[msg.sender] == 0 || pearlStakingBalance[msg.sender] == 0) {\r\n            staking[msg.sender] = false;\r\n        }\r\n\r\n        startBlock[msg.sender] = block.number;\r\n\r\n        //emit Unstake(msg.sender, milkTransferAmount, \"MILK\");\r\n        //emit Unstake(msg.sender, teaTransferAmount, \"TEA\");\r\n        //emit Unstake(msg.sender, pearlTransferAmount, \"PEARL\");\r\n        emit Unstake(msg.sender, \"MILK\", milkAmount, \"TEA\", teaAmount, \"PEARL\", pearlAmount);\r\n    }\r\n\r\n    function getCurrentYield(address user) public view returns (uint256) {\r\n        uint256 endBlock = block.number;\r\n        uint256 numBlocksSince = endBlock - startBlock[user];\r\n        uint256 milkTokenYield = milkStakingBalance[user] * 50 / 100;\r\n        uint256 teaTokenYield = teaStakingBalance[user] * 30 / 100;\r\n        uint256 pearlTokenYield = pearlStakingBalance[user] * 20 / 100;\r\n        uint256 totalYield = numBlocksSince * (milkTokenYield + teaTokenYield + pearlTokenYield);\r\n        return totalYield;\r\n    }\r\n\r\n    function harvestRewards() public {\r\n        //ensure accumulated yield is captured\r\n        uint256 amtToTransferToRewards = getCurrentYield(msg.sender);\r\n        require(amtToTransferToRewards > 0 || bobaBalance[msg.sender] > 0, \"No rewards to harvest\");\r\n        \r\n        uint256 rewardsAmount = amtToTransferToRewards;\r\n\r\n        if (bobaBalance[msg.sender] != 0) {\r\n            uint256 currentRewards = bobaBalance[msg.sender];\r\n            //reset (prevent re-entrancy)\r\n            bobaBalance[msg.sender] = 0;\r\n            rewardsAmount = amtToTransferToRewards + currentRewards;\r\n        }\r\n\r\n        startBlock[msg.sender] = block.number;\r\n        bobaToken.mint(msg.sender, rewardsAmount);\r\n\r\n        emit HarvestRewards(msg.sender, rewardsAmount);\r\n    }\r\n}",
  "sourcePath": "C:\\Users\\zheru\\OneDrive\\blockchain\\LPFarmApp\\contracts\\BobaFarm.sol",
  "compiler": {
    "name": "solc",
    "version": "0.8.14+commit.80d49f37.Emscripten.clang"
  },
  "schemaVersion": "3.4.7",
  "updatedAt": "2022-06-17T14:39:02.945Z",
  "networkType": "ethereum",
  "devdoc": {
    "kind": "dev",
    "methods": {},
    "version": 1
  },
  "userdoc": {
    "kind": "user",
    "methods": {},
    "version": 1
  }
}