{
  "contractName": "BobaFarm",
  "abi": [
    {
      "inputs": [
        {
          "internalType": "contract BobaToken",
          "name": "_bobaToken",
          "type": "address"
        },
        {
          "internalType": "contract MilkToken2",
          "name": "_milkToken",
          "type": "address"
        },
        {
          "internalType": "contract TeaToken2",
          "name": "_teaToken",
          "type": "address"
        },
        {
          "internalType": "contract PearlToken2",
          "name": "_pearlToken",
          "type": "address"
        }
      ],
      "stateMutability": "nonpayable",
      "type": "constructor"
    },
    {
      "anonymous": false,
      "inputs": [
        {
          "indexed": true,
          "internalType": "address",
          "name": "to",
          "type": "address"
        },
        {
          "indexed": false,
          "internalType": "uint256",
          "name": "amount",
          "type": "uint256"
        }
      ],
      "name": "HarvestRewards",
      "type": "event"
    },
    {
      "anonymous": false,
      "inputs": [
        {
          "indexed": true,
          "internalType": "address",
          "name": "from",
          "type": "address"
        },
        {
          "indexed": false,
          "internalType": "string",
          "name": "lp1",
          "type": "string"
        },
        {
          "indexed": false,
          "internalType": "uint256",
          "name": "amountLp1",
          "type": "uint256"
        },
        {
          "indexed": false,
          "internalType": "string",
          "name": "lp2",
          "type": "string"
        },
        {
          "indexed": false,
          "internalType": "uint256",
          "name": "amountLp2",
          "type": "uint256"
        },
        {
          "indexed": false,
          "internalType": "string",
          "name": "lp3",
          "type": "string"
        },
        {
          "indexed": false,
          "internalType": "uint256",
          "name": "amountLp3",
          "type": "uint256"
        }
      ],
      "name": "Stake",
      "type": "event"
    },
    {
      "anonymous": false,
      "inputs": [
        {
          "indexed": true,
          "internalType": "address",
          "name": "from",
          "type": "address"
        },
        {
          "indexed": false,
          "internalType": "string",
          "name": "lp1",
          "type": "string"
        },
        {
          "indexed": false,
          "internalType": "uint256",
          "name": "amountLp1",
          "type": "uint256"
        },
        {
          "indexed": false,
          "internalType": "string",
          "name": "lp2",
          "type": "string"
        },
        {
          "indexed": false,
          "internalType": "uint256",
          "name": "amountLp2",
          "type": "uint256"
        },
        {
          "indexed": false,
          "internalType": "string",
          "name": "lp3",
          "type": "string"
        },
        {
          "indexed": false,
          "internalType": "uint256",
          "name": "amountLp3",
          "type": "uint256"
        }
      ],
      "name": "Unstake",
      "type": "event"
    },
    {
      "inputs": [
        {
          "internalType": "address",
          "name": "",
          "type": "address"
        }
      ],
      "name": "bobaBalance",
      "outputs": [
        {
          "internalType": "uint256",
          "name": "",
          "type": "uint256"
        }
      ],
      "stateMutability": "view",
      "type": "function",
      "constant": true
    },
    {
      "inputs": [],
      "name": "bobaToken",
      "outputs": [
        {
          "internalType": "contract BobaToken",
          "name": "",
          "type": "address"
        }
      ],
      "stateMutability": "view",
      "type": "function",
      "constant": true
    },
    {
      "inputs": [
        {
          "internalType": "address",
          "name": "",
          "type": "address"
        }
      ],
      "name": "milkStakingBalance",
      "outputs": [
        {
          "internalType": "uint256",
          "name": "",
          "type": "uint256"
        }
      ],
      "stateMutability": "view",
      "type": "function",
      "constant": true
    },
    {
      "inputs": [],
      "name": "milkToken",
      "outputs": [
        {
          "internalType": "contract MilkToken2",
          "name": "",
          "type": "address"
        }
      ],
      "stateMutability": "view",
      "type": "function",
      "constant": true
    },
    {
      "inputs": [],
      "name": "name",
      "outputs": [
        {
          "internalType": "string",
          "name": "",
          "type": "string"
        }
      ],
      "stateMutability": "view",
      "type": "function",
      "constant": true
    },
    {
      "inputs": [
        {
          "internalType": "address",
          "name": "",
          "type": "address"
        }
      ],
      "name": "pearlStakingBalance",
      "outputs": [
        {
          "internalType": "uint256",
          "name": "",
          "type": "uint256"
        }
      ],
      "stateMutability": "view",
      "type": "function",
      "constant": true
    },
    {
      "inputs": [],
      "name": "pearlToken",
      "outputs": [
        {
          "internalType": "contract PearlToken2",
          "name": "",
          "type": "address"
        }
      ],
      "stateMutability": "view",
      "type": "function",
      "constant": true
    },
    {
      "inputs": [
        {
          "internalType": "address",
          "name": "",
          "type": "address"
        }
      ],
      "name": "staking",
      "outputs": [
        {
          "internalType": "bool",
          "name": "",
          "type": "bool"
        }
      ],
      "stateMutability": "view",
      "type": "function",
      "constant": true
    },
    {
      "inputs": [
        {
          "internalType": "address",
          "name": "",
          "type": "address"
        }
      ],
      "name": "startBlock",
      "outputs": [
        {
          "internalType": "uint256",
          "name": "",
          "type": "uint256"
        }
      ],
      "stateMutability": "view",
      "type": "function",
      "constant": true
    },
    {
      "inputs": [
        {
          "internalType": "address",
          "name": "",
          "type": "address"
        }
      ],
      "name": "teaStakingBalance",
      "outputs": [
        {
          "internalType": "uint256",
          "name": "",
          "type": "uint256"
        }
      ],
      "stateMutability": "view",
      "type": "function",
      "constant": true
    },
    {
      "inputs": [],
      "name": "teaToken",
      "outputs": [
        {
          "internalType": "contract TeaToken2",
          "name": "",
          "type": "address"
        }
      ],
      "stateMutability": "view",
      "type": "function",
      "constant": true
    },
    {
      "inputs": [
        {
          "internalType": "uint256",
          "name": "milkAmount",
          "type": "uint256"
        },
        {
          "internalType": "uint256",
          "name": "teaAmount",
          "type": "uint256"
        },
        {
          "internalType": "uint256",
          "name": "pearlAmount",
          "type": "uint256"
        }
      ],
      "name": "stakeTokens",
      "outputs": [],
      "stateMutability": "nonpayable",
      "type": "function"
    },
    {
      "inputs": [
        {
          "internalType": "uint256",
          "name": "milkAmount",
          "type": "uint256"
        },
        {
          "internalType": "uint256",
          "name": "teaAmount",
          "type": "uint256"
        },
        {
          "internalType": "uint256",
          "name": "pearlAmount",
          "type": "uint256"
        }
      ],
      "name": "unstakeTokens",
      "outputs": [],
      "stateMutability": "nonpayable",
      "type": "function"
    },
    {
      "inputs": [
        {
          "internalType": "address",
          "name": "user",
          "type": "address"
        }
      ],
      "name": "getCurrentYield",
      "outputs": [
        {
          "internalType": "uint256",
          "name": "",
          "type": "uint256"
        }
      ],
      "stateMutability": "view",
      "type": "function",
      "constant": true
    },
    {
      "inputs": [],
      "name": "harvestRewards",
      "outputs": [],
      "stateMutability": "nonpayable",
      "type": "function"
    }
  ],
  "bytecode": "0x60806040526040518060400160405280600881526020017f426f62614661726d00000000000000000000000000000000000000000000000081525060009080519060200190620000519291906200019b565b503480156200005f57600080fd5b506040516200254038038062002540833981810160405281019062000085919062000398565b60c860088190555083600760006101000a81548173ffffffffffffffffffffffffffffffffffffffff021916908373ffffffffffffffffffffffffffffffffffffffff16021790555082600960006101000a81548173ffffffffffffffffffffffffffffffffffffffff021916908373ffffffffffffffffffffffffffffffffffffffff16021790555081600a60006101000a81548173ffffffffffffffffffffffffffffffffffffffff021916908373ffffffffffffffffffffffffffffffffffffffff16021790555080600b60006101000a81548173ffffffffffffffffffffffffffffffffffffffff021916908373ffffffffffffffffffffffffffffffffffffffff160217905550505050506200046e565b828054620001a99062000439565b90600052602060002090601f016020900481019282620001cd576000855562000219565b82601f10620001e857805160ff191683800117855562000219565b8280016001018555821562000219579182015b8281111562000218578251825591602001919060010190620001fb565b5b5090506200022891906200022c565b5090565b5b80821115620002475760008160009055506001016200022d565b5090565b600080fd5b600073ffffffffffffffffffffffffffffffffffffffff82169050919050565b60006200027d8262000250565b9050919050565b6000620002918262000270565b9050919050565b620002a38162000284565b8114620002af57600080fd5b50565b600081519050620002c38162000298565b92915050565b6000620002d68262000270565b9050919050565b620002e881620002c9565b8114620002f457600080fd5b50565b6000815190506200030881620002dd565b92915050565b60006200031b8262000270565b9050919050565b6200032d816200030e565b81146200033957600080fd5b50565b6000815190506200034d8162000322565b92915050565b6000620003608262000270565b9050919050565b620003728162000353565b81146200037e57600080fd5b50565b600081519050620003928162000367565b92915050565b60008060008060808587031215620003b557620003b46200024b565b5b6000620003c587828801620002b2565b9450506020620003d887828801620002f7565b9350506040620003eb878288016200033c565b9250506060620003fe8782880162000381565b91505092959194509250565b7f4e487b7100000000000000000000000000000000000000000000000000000000600052602260045260246000fd5b600060028204905060018216806200045257607f821691505b6020821081036200046857620004676200040a565b5b50919050565b6120c2806200047e6000396000f3fe608060405234801561001057600080fd5b50600436106100f55760003560e01c8063762be59711610097578063d1edbc5311610066578063d1edbc5314610276578063d764b78f146102a6578063e4e399ac146102d6578063f14b4eba14610306576100f5565b8063762be597146101ec5780638861f1661461021c5780638933b6fd1461023a578063b114dcaf14610258576100f5565b80633f697ce9116100d35780633f697ce91461013e5780634a0b35aa1461016e57806356ac8f601461019e5780637453c318146101ce576100f5565b806306fdde03146100fa5780631ceb7ee6146101185780632be11ae214610134575b600080fd5b610102610322565b60405161010f91906117e7565b60405180910390f35b610132600480360381019061012d9190611844565b6103b0565b005b61013c610b32565b005b610158600480360381019061015391906118f5565b610dd6565b6040516101659190611931565b60405180910390f35b610188600480360381019061018391906118f5565b610dee565b6040516101959190611931565b60405180910390f35b6101b860048036038101906101b391906118f5565b610e06565b6040516101c59190611931565b60405180910390f35b6101d6610e1e565b6040516101e391906119ab565b60405180910390f35b610206600480360381019061020191906118f5565b610e44565b6040516102139190611931565b60405180910390f35b610224610e5c565b60405161023191906119e7565b60405180910390f35b610242610e82565b60405161024f9190611a23565b60405180910390f35b610260610ea8565b60405161026d9190611a5f565b60405180910390f35b610290600480360381019061028b91906118f5565b610ece565b60405161029d9190611931565b60405180910390f35b6102c060048036038101906102bb91906118f5565b61106b565b6040516102cd9190611a95565b60405180910390f35b6102f060048036038101906102eb91906118f5565b61108b565b6040516102fd9190611931565b60405180910390f35b610320600480360381019061031b9190611844565b6110a3565b005b6000805461032f90611adf565b80601f016020809104026020016040519081016040528092919081815260200182805461035b90611adf565b80156103a85780601f1061037d576101008083540402835291602001916103a8565b820191906000526020600020905b81548152906001019060200180831161038b57829003601f168201915b505050505081565b60008311801561045b575082600960009054906101000a900473ffffffffffffffffffffffffffffffffffffffff1673ffffffffffffffffffffffffffffffffffffffff166370a08231336040518263ffffffff1660e01b81526004016104179190611b1f565b602060405180830381865afa158015610434573d6000803e3d6000fd5b505050506040513d601f19601f820116820180604052508101906104589190611b4f565b10155b80156104675750600082115b801561050e575081600a60009054906101000a900473ffffffffffffffffffffffffffffffffffffffff1673ffffffffffffffffffffffffffffffffffffffff166370a08231336040518263ffffffff1660e01b81526004016104ca9190611b1f565b602060405180830381865afa1580156104e7573d6000803e3d6000fd5b505050506040513d601f19601f8201168201806040525081019061050b9190611b4f565b10155b801561051a5750600081115b80156105c1575080600b60009054906101000a900473ffffffffffffffffffffffffffffffffffffffff1673ffffffffffffffffffffffffffffffffffffffff166370a08231336040518263ffffffff1660e01b815260040161057d9190611b1f565b602060405180830381865afa15801561059a573d6000803e3d6000fd5b505050506040513d601f19601f820116820180604052508101906105be9190611b4f565b10155b610600576040517f08c379a00000000000000000000000000000000000000000000000000000000081526004016105f790611c14565b60405180910390fd5b60011515600660003373ffffffffffffffffffffffffffffffffffffffff1673ffffffffffffffffffffffffffffffffffffffff16815260200190815260200160002060009054906101000a900460ff161515036106bd57600061066333610ece565b905080600160003373ffffffffffffffffffffffffffffffffffffffff1673ffffffffffffffffffffffffffffffffffffffff16815260200190815260200160002060008282546106b49190611c63565b92505081905550505b600960009054906101000a900473ffffffffffffffffffffffffffffffffffffffff1673ffffffffffffffffffffffffffffffffffffffff166323b872dd3330866040518463ffffffff1660e01b815260040161071c93929190611cb9565b6020604051808303816000875af115801561073b573d6000803e3d6000fd5b505050506040513d601f19601f8201168201806040525081019061075f9190611d1c565b50600a60009054906101000a900473ffffffffffffffffffffffffffffffffffffffff1673ffffffffffffffffffffffffffffffffffffffff166323b872dd3330856040518463ffffffff1660e01b81526004016107bf93929190611cb9565b6020604051808303816000875af11580156107de573d6000803e3d6000fd5b505050506040513d601f19601f820116820180604052508101906108029190611d1c565b50600b60009054906101000a900473ffffffffffffffffffffffffffffffffffffffff1673ffffffffffffffffffffffffffffffffffffffff166323b872dd3330846040518463ffffffff1660e01b815260040161086293929190611cb9565b6020604051808303816000875af1158015610881573d6000803e3d6000fd5b505050506040513d601f19601f820116820180604052508101906108a59190611d1c565b5082600360003373ffffffffffffffffffffffffffffffffffffffff1673ffffffffffffffffffffffffffffffffffffffff16815260200190815260200160002060008282546108f59190611c63565b9250508190555081600460003373ffffffffffffffffffffffffffffffffffffffff1673ffffffffffffffffffffffffffffffffffffffff168152602001908152602001600020600082825461094b9190611c63565b9250508190555080600560003373ffffffffffffffffffffffffffffffffffffffff1673ffffffffffffffffffffffffffffffffffffffff16815260200190815260200160002060008282546109a19190611c63565b9250508190555043600260003373ffffffffffffffffffffffffffffffffffffffff1673ffffffffffffffffffffffffffffffffffffffff168152602001908152602001600020819055506001600660003373ffffffffffffffffffffffffffffffffffffffff1673ffffffffffffffffffffffffffffffffffffffff16815260200190815260200160002060006101000a81548160ff02191690831515021790555060006008549050600760009054906101000a900473ffffffffffffffffffffffffffffffffffffffff1673ffffffffffffffffffffffffffffffffffffffff166340c10f1933836040518363ffffffff1660e01b8152600401610aa8929190611d49565b600060405180830381600087803b158015610ac257600080fd5b505af1158015610ad6573d6000803e3d6000fd5b505050503373ffffffffffffffffffffffffffffffffffffffff167f4d39ad1d030ac4d5562b3eedc6c0383fd8c9b38af0856a3ceda7e74119ef68b4858585604051610b2493929190611e56565b60405180910390a250505050565b6000610b3d33610ece565b90506000811180610b8d57506000600160003373ffffffffffffffffffffffffffffffffffffffff1673ffffffffffffffffffffffffffffffffffffffff16815260200190815260200160002054115b610bcc576040517f08c379a0000000000000000000000000000000000000000000000000000000008152600401610bc390611f12565b60405180910390fd5b60008190506000600160003373ffffffffffffffffffffffffffffffffffffffff1673ffffffffffffffffffffffffffffffffffffffff1681526020019081526020016000205414610cb1576000600160003373ffffffffffffffffffffffffffffffffffffffff1673ffffffffffffffffffffffffffffffffffffffff1681526020019081526020016000205490506000600160003373ffffffffffffffffffffffffffffffffffffffff1673ffffffffffffffffffffffffffffffffffffffff168152602001908152602001600020819055508083610cad9190611c63565b9150505b43600260003373ffffffffffffffffffffffffffffffffffffffff1673ffffffffffffffffffffffffffffffffffffffff16815260200190815260200160002081905550600760009054906101000a900473ffffffffffffffffffffffffffffffffffffffff1673ffffffffffffffffffffffffffffffffffffffff166340c10f1933836040518363ffffffff1660e01b8152600401610d52929190611d49565b600060405180830381600087803b158015610d6c57600080fd5b505af1158015610d80573d6000803e3d6000fd5b505050503373ffffffffffffffffffffffffffffffffffffffff167fdaaebb9609cb2f719c59c9d334be287bf4def107ad3dec4a6f90d8abaa94c73c82604051610dca9190611931565b60405180910390a25050565b60026020528060005260406000206000915090505481565b60016020528060005260406000206000915090505481565b60056020528060005260406000206000915090505481565b600960009054906101000a900473ffffffffffffffffffffffffffffffffffffffff1681565b60046020528060005260406000206000915090505481565b600760009054906101000a900473ffffffffffffffffffffffffffffffffffffffff1681565b600a60009054906101000a900473ffffffffffffffffffffffffffffffffffffffff1681565b600b60009054906101000a900473ffffffffffffffffffffffffffffffffffffffff1681565b6000804390506000600260008573ffffffffffffffffffffffffffffffffffffffff1673ffffffffffffffffffffffffffffffffffffffff1681526020019081526020016000205482610f219190611f32565b9050600060646032600360008873ffffffffffffffffffffffffffffffffffffffff1673ffffffffffffffffffffffffffffffffffffffff16815260200190815260200160002054610f739190611f66565b610f7d9190611fef565b905060006064601e600460008973ffffffffffffffffffffffffffffffffffffffff1673ffffffffffffffffffffffffffffffffffffffff16815260200190815260200160002054610fcf9190611f66565b610fd99190611fef565b9050600060646014600560008a73ffffffffffffffffffffffffffffffffffffffff1673ffffffffffffffffffffffffffffffffffffffff1681526020019081526020016000205461102b9190611f66565b6110359190611fef565b905060008183856110469190611c63565b6110509190611c63565b8561105b9190611f66565b9050809650505050505050919050565b60066020528060005260406000206000915054906101000a900460ff1681565b60036020528060005260406000206000915090505481565b60011515600660003373ffffffffffffffffffffffffffffffffffffffff1673ffffffffffffffffffffffffffffffffffffffff16815260200190815260200160002060009054906101000a900460ff161515148015611142575082600360003373ffffffffffffffffffffffffffffffffffffffff1673ffffffffffffffffffffffffffffffffffffffff1681526020019081526020016000205410155b801561118d575081600460003373ffffffffffffffffffffffffffffffffffffffff1673ffffffffffffffffffffffffffffffffffffffff1681526020019081526020016000205410155b80156111d8575080600560003373ffffffffffffffffffffffffffffffffffffffff1673ffffffffffffffffffffffffffffffffffffffff1681526020019081526020016000205410155b611217576040517f08c379a000000000000000000000000000000000000000000000000000000000815260040161120e9061206c565b60405180910390fd5b600061122233610ece565b905080600160003373ffffffffffffffffffffffffffffffffffffffff1673ffffffffffffffffffffffffffffffffffffffff16815260200190815260200160002060008282546112739190611c63565b9250508190555060008490506000849050600084905060009650600095506000945082600360003373ffffffffffffffffffffffffffffffffffffffff1673ffffffffffffffffffffffffffffffffffffffff16815260200190815260200160002060008282546112e49190611f32565b92505081905550600960009054906101000a900473ffffffffffffffffffffffffffffffffffffffff1673ffffffffffffffffffffffffffffffffffffffff1663a9059cbb33856040518363ffffffff1660e01b8152600401611348929190611d49565b6020604051808303816000875af1158015611367573d6000803e3d6000fd5b505050506040513d601f19601f8201168201806040525081019061138b9190611d1c565b5081600460003373ffffffffffffffffffffffffffffffffffffffff1673ffffffffffffffffffffffffffffffffffffffff16815260200190815260200160002060008282546113db9190611f32565b92505081905550600a60009054906101000a900473ffffffffffffffffffffffffffffffffffffffff1673ffffffffffffffffffffffffffffffffffffffff1663a9059cbb33846040518363ffffffff1660e01b815260040161143f929190611d49565b6020604051808303816000875af115801561145e573d6000803e3d6000fd5b505050506040513d601f19601f820116820180604052508101906114829190611d1c565b5080600560003373ffffffffffffffffffffffffffffffffffffffff1673ffffffffffffffffffffffffffffffffffffffff16815260200190815260200160002060008282546114d29190611f32565b92505081905550600b60009054906101000a900473ffffffffffffffffffffffffffffffffffffffff1673ffffffffffffffffffffffffffffffffffffffff1663a9059cbb33836040518363ffffffff1660e01b8152600401611536929190611d49565b6020604051808303816000875af1158015611555573d6000803e3d6000fd5b505050506040513d601f19601f820116820180604052508101906115799190611d1c565b506000600360003373ffffffffffffffffffffffffffffffffffffffff1673ffffffffffffffffffffffffffffffffffffffff16815260200190815260200160002054148061160757506000600460003373ffffffffffffffffffffffffffffffffffffffff1673ffffffffffffffffffffffffffffffffffffffff16815260200190815260200160002054145b8061165157506000600560003373ffffffffffffffffffffffffffffffffffffffff1673ffffffffffffffffffffffffffffffffffffffff16815260200190815260200160002054145b156116af576000600660003373ffffffffffffffffffffffffffffffffffffffff1673ffffffffffffffffffffffffffffffffffffffff16815260200190815260200160002060006101000a81548160ff0219169083151502179055505b43600260003373ffffffffffffffffffffffffffffffffffffffff1673ffffffffffffffffffffffffffffffffffffffff168152602001908152602001600020819055503373ffffffffffffffffffffffffffffffffffffffff167f6f55c2199fe71b3ef029822eb857ccbf5f01fab0bc1a9fc46fecaaeadfa462f588888860405161173d93929190611e56565b60405180910390a250505050505050565b600081519050919050565b600082825260208201905092915050565b60005b8381101561178857808201518184015260208101905061176d565b83811115611797576000848401525b50505050565b6000601f19601f8301169050919050565b60006117b98261174e565b6117c38185611759565b93506117d381856020860161176a565b6117dc8161179d565b840191505092915050565b6000602082019050818103600083015261180181846117ae565b905092915050565b600080fd5b6000819050919050565b6118218161180e565b811461182c57600080fd5b50565b60008135905061183e81611818565b92915050565b60008060006060848603121561185d5761185c611809565b5b600061186b8682870161182f565b935050602061187c8682870161182f565b925050604061188d8682870161182f565b9150509250925092565b600073ffffffffffffffffffffffffffffffffffffffff82169050919050565b60006118c282611897565b9050919050565b6118d2816118b7565b81146118dd57600080fd5b50565b6000813590506118ef816118c9565b92915050565b60006020828403121561190b5761190a611809565b5b6000611919848285016118e0565b91505092915050565b61192b8161180e565b82525050565b60006020820190506119466000830184611922565b92915050565b6000819050919050565b600061197161196c61196784611897565b61194c565b611897565b9050919050565b600061198382611956565b9050919050565b600061199582611978565b9050919050565b6119a58161198a565b82525050565b60006020820190506119c0600083018461199c565b92915050565b60006119d182611978565b9050919050565b6119e1816119c6565b82525050565b60006020820190506119fc60008301846119d8565b92915050565b6000611a0d82611978565b9050919050565b611a1d81611a02565b82525050565b6000602082019050611a386000830184611a14565b92915050565b6000611a4982611978565b9050919050565b611a5981611a3e565b82525050565b6000602082019050611a746000830184611a50565b92915050565b60008115159050919050565b611a8f81611a7a565b82525050565b6000602082019050611aaa6000830184611a86565b92915050565b7f4e487b7100000000000000000000000000000000000000000000000000000000600052602260045260246000fd5b60006002820490506001821680611af757607f821691505b602082108103611b0a57611b09611ab0565b5b50919050565b611b19816118b7565b82525050565b6000602082019050611b346000830184611b10565b92915050565b600081519050611b4981611818565b92915050565b600060208284031215611b6557611b64611809565b5b6000611b7384828501611b3a565b91505092915050565b7f43616e6e6f74207374616b65207a65726f204c5020746f6b656e7320746f207460008201527f6865206661726d202f2055736572206d757374206f776e20656e6f756768204c60208201527f5020746f6b656e73206173207370656369666965640000000000000000000000604082015250565b6000611bfe605583611759565b9150611c0982611b7c565b606082019050919050565b60006020820190508181036000830152611c2d81611bf1565b9050919050565b7f4e487b7100000000000000000000000000000000000000000000000000000000600052601160045260246000fd5b6000611c6e8261180e565b9150611c798361180e565b9250827fffffffffffffffffffffffffffffffffffffffffffffffffffffffffffffffff03821115611cae57611cad611c34565b5b828201905092915050565b6000606082019050611cce6000830186611b10565b611cdb6020830185611b10565b611ce86040830184611922565b949350505050565b611cf981611a7a565b8114611d0457600080fd5b50565b600081519050611d1681611cf0565b92915050565b600060208284031215611d3257611d31611809565b5b6000611d4084828501611d07565b91505092915050565b6000604082019050611d5e6000830185611b10565b611d6b6020830184611922565b9392505050565b7f4d494c4b00000000000000000000000000000000000000000000000000000000600082015250565b6000611da8600483611759565b9150611db382611d72565b602082019050919050565b7f5445410000000000000000000000000000000000000000000000000000000000600082015250565b6000611df4600383611759565b9150611dff82611dbe565b602082019050919050565b7f504541524c000000000000000000000000000000000000000000000000000000600082015250565b6000611e40600583611759565b9150611e4b82611e0a565b602082019050919050565b600060c0820190508181036000830152611e6f81611d9b565b9050611e7e6020830186611922565b8181036040830152611e8f81611de7565b9050611e9e6060830185611922565b8181036080830152611eaf81611e33565b9050611ebe60a0830184611922565b949350505050565b7f4e6f207265776172647320746f20686172766573740000000000000000000000600082015250565b6000611efc601583611759565b9150611f0782611ec6565b602082019050919050565b60006020820190508181036000830152611f2b81611eef565b9050919050565b6000611f3d8261180e565b9150611f488361180e565b925082821015611f5b57611f5a611c34565b5b828203905092915050565b6000611f718261180e565b9150611f7c8361180e565b9250817fffffffffffffffffffffffffffffffffffffffffffffffffffffffffffffffff0483118215151615611fb557611fb4611c34565b5b828202905092915050565b7f4e487b7100000000000000000000000000000000000000000000000000000000600052601260045260246000fd5b6000611ffa8261180e565b91506120058361180e565b92508261201557612014611fc0565b5b828204905092915050565b7f4e6f204c5020746f6b656e7320746f20756e7374616b65000000000000000000600082015250565b6000612056601783611759565b915061206182612020565b602082019050919050565b6000602082019050818103600083015261208581612049565b905091905056fea264697066735822122026f929ef04ef0b66d9810724ed329c7822eb2e53fd2829f946950c150676dee664736f6c634300080e0033",
  "immutableReferences": {},
  "source": "pragma solidity ^0.8.7;\r\n\r\nimport \"./BobaToken.sol\";\r\nimport \"./MilkToken.sol\";\r\nimport \"./TeaToken.sol\";\r\nimport \"./PearlToken.sol\";\r\nimport \"./MilkToken2.sol\";\r\nimport \"./TeaToken2.sol\";\r\nimport \"./PearlToken2.sol\";\r\n//import \"./MilkTokenSwap.sol\";\r\n//import \"./TeaTokenSwap.sol\";\r\n//import \"./PearlTokenSwap.sol\";\r\n\r\ncontract BobaFarm {\r\n\r\n    string public name = \"BobaFarm\";\r\n\r\n    //map useraddress to the following values\r\n    mapping(address => uint256) public bobaBalance;\r\n    mapping(address => uint256) public startBlock;\r\n    mapping(address => uint256) public milkStakingBalance;\r\n    mapping(address => uint256) public teaStakingBalance;\r\n    mapping(address => uint256) public pearlStakingBalance;\r\n    mapping(address => bool) public staking;\r\n\r\n    //Reward token\r\n    BobaToken public bobaToken;\r\n    uint256 private rewardTokensPerBlock;\r\n\r\n    //LP tokens\r\n    MilkToken2 public milkToken;\r\n    TeaToken2 public teaToken;\r\n    PearlToken2 public pearlToken;\r\n\r\n    //events\r\n    //event Stake(address indexed from, uint256 amount, string token);\r\n    //event Unstake(address indexed from, uint256 amount, string token);\r\n    event Stake(address indexed from, string lp1, uint256 amountLp1, string lp2, uint256 amountLp2, string lp3, uint256 amountLp3);\r\n    event Unstake(address indexed from, string lp1, uint256 amountLp1, string lp2, uint256 amountLp2, string lp3, uint256 amountLp3);\r\n    event HarvestRewards(address indexed to, uint256 amount);\r\n\r\n    constructor(BobaToken _bobaToken, MilkToken2 _milkToken, TeaToken2 _teaToken, PearlToken2 _pearlToken) {\r\n        rewardTokensPerBlock = 200;\r\n        bobaToken = _bobaToken;\r\n        milkToken = _milkToken;\r\n        teaToken = _teaToken;\r\n        pearlToken = _pearlToken;\r\n    }\r\n\r\n    //function addTokensToFarm(MilkToken2 _milkToken, TeaToken2 _teaToken, PearlToken2 _pearlToken) public {\r\n    //    milkToken = _milkToken;\r\n    //    teaToken = _teaToken;\r\n    //    pearlToken = _pearlToken;\r\n    //}\r\n\r\n    function stakeTokens(uint256 milkAmount, uint256 teaAmount, uint256 pearlAmount) public {\r\n        require(milkAmount > 0 && milkToken.balanceOf(msg.sender) >= milkAmount &&\r\n                teaAmount > 0 && teaToken.balanceOf(msg.sender) >= teaAmount &&\r\n                pearlAmount > 0 && pearlToken.balanceOf(msg.sender) >= pearlAmount,\r\n                \"Cannot stake zero LP tokens to the farm / User must own enough LP tokens as specified\");\r\n\r\n        //check if user has already staked LP tokens, if true add unrealized yield to reward balance (bobaBalance).\r\n        //ensure accumulated yield is always captured.\r\n        if (staking[msg.sender] == true) {\r\n            uint256 amtToTransferToRewards = getCurrentYield(msg.sender);\r\n            bobaBalance[msg.sender] += amtToTransferToRewards;\r\n        }\r\n\r\n        milkToken.transferFrom(msg.sender, address(this), milkAmount);\r\n        teaToken.transferFrom(msg.sender, address(this), teaAmount);\r\n        pearlToken.transferFrom(msg.sender, address(this), pearlAmount);\r\n\r\n        milkStakingBalance[msg.sender] += milkAmount;\r\n        teaStakingBalance[msg.sender] += teaAmount;\r\n        pearlStakingBalance[msg.sender] += pearlAmount;\r\n\r\n        startBlock[msg.sender] = block.number;\r\n        staking[msg.sender] = true;\r\n\r\n        //Award users rewards token when they stake to farm\r\n        uint256 stakingRewards = rewardTokensPerBlock;\r\n        bobaToken.mint(msg.sender, stakingRewards);\r\n\r\n        //emit Stake(msg.sender, milkAmount, \"MILK\");\r\n        //emit Stake(msg.sender, teaAmount, \"TEA\");\r\n        //emit Stake(msg.sender, pearlAmount, \"PEARL\");\r\n        emit Stake(msg.sender, \"MILK\", milkAmount, \"TEA\", teaAmount, \"PEARL\", pearlAmount);\r\n    }\r\n\r\n    function unstakeTokens(uint256 milkAmount, uint256 teaAmount, uint256 pearlAmount) public {\r\n        require(staking[msg.sender] == true && milkStakingBalance[msg.sender] >= milkAmount &&\r\n                teaStakingBalance[msg.sender] >= teaAmount && pearlStakingBalance[msg.sender] >= pearlAmount,\r\n                \"No LP tokens to unstake\");\r\n        \r\n        //ensure accumulated yield is captured.\r\n        uint256 amtToTransferToRewards = getCurrentYield(msg.sender);\r\n        bobaBalance[msg.sender] += amtToTransferToRewards;\r\n\r\n        uint256 milkTransferAmount = milkAmount;\r\n        uint256 teaTransferAmount = teaAmount;\r\n        uint256 pearlTransferAmount = pearlAmount;\r\n\r\n        //reset amounts (prevent re-entrancy)\r\n        milkAmount = 0;\r\n        teaAmount = 0;\r\n        pearlAmount = 0;\r\n\r\n        milkStakingBalance[msg.sender] -= milkTransferAmount;\r\n        milkToken.transfer(msg.sender, milkTransferAmount);\r\n        teaStakingBalance[msg.sender] -= teaTransferAmount;\r\n        teaToken.transfer(msg.sender, teaTransferAmount);\r\n        pearlStakingBalance[msg.sender] -= pearlTransferAmount;\r\n        pearlToken.transfer(msg.sender, pearlTransferAmount);\r\n\r\n        if (milkStakingBalance[msg.sender] == 0 || teaStakingBalance[msg.sender] == 0 || pearlStakingBalance[msg.sender] == 0) {\r\n            staking[msg.sender] = false;\r\n        }\r\n\r\n        startBlock[msg.sender] = block.number;\r\n\r\n        //emit Unstake(msg.sender, milkTransferAmount, \"MILK\");\r\n        //emit Unstake(msg.sender, teaTransferAmount, \"TEA\");\r\n        //emit Unstake(msg.sender, pearlTransferAmount, \"PEARL\");\r\n        emit Unstake(msg.sender, \"MILK\", milkAmount, \"TEA\", teaAmount, \"PEARL\", pearlAmount);\r\n    }\r\n\r\n    function getCurrentYield(address user) public view returns (uint256) {\r\n        uint256 endBlock = block.number;\r\n        uint256 numBlocksSince = endBlock - startBlock[user];\r\n        uint256 milkTokenYield = milkStakingBalance[user] * 50 / 100;\r\n        uint256 teaTokenYield = teaStakingBalance[user] * 30 / 100;\r\n        uint256 pearlTokenYield = pearlStakingBalance[user] * 20 / 100;\r\n        uint256 totalYield = numBlocksSince * (milkTokenYield + teaTokenYield + pearlTokenYield);\r\n        return totalYield;\r\n    }\r\n\r\n    function harvestRewards() public {\r\n        //ensure accumulated yield is captured\r\n        uint256 amtToTransferToRewards = getCurrentYield(msg.sender);\r\n        require(amtToTransferToRewards > 0 || bobaBalance[msg.sender] > 0, \"No rewards to harvest\");\r\n        \r\n        uint256 rewardsAmount = amtToTransferToRewards;\r\n\r\n        if (bobaBalance[msg.sender] != 0) {\r\n            uint256 currentRewards = bobaBalance[msg.sender];\r\n            //reset (prevent re-entrancy)\r\n            bobaBalance[msg.sender] = 0;\r\n            rewardsAmount = amtToTransferToRewards + currentRewards;\r\n        }\r\n\r\n        startBlock[msg.sender] = block.number;\r\n        bobaToken.mint(msg.sender, rewardsAmount);\r\n\r\n        emit HarvestRewards(msg.sender, rewardsAmount);\r\n    }\r\n}",
  "sourcePath": "C:\\Users\\zheru\\OneDrive\\blockchain\\LPFarmApp\\contracts\\BobaFarm.sol",
  "compiler": {
    "name": "solc",
    "version": "0.8.14+commit.80d49f37.Emscripten.clang"
  },
  "schemaVersion": "3.4.7",
  "updatedAt": "2022-06-19T01:05:50.766Z",
  "networkType": "ethereum",
  "devdoc": {
    "kind": "dev",
    "methods": {},
    "version": 1
  },
  "userdoc": {
    "kind": "user",
    "methods": {},
    "version": 1
  }
}