{
  "contractName": "TokenFactory2",
  "abi": [
    {
      "anonymous": false,
      "inputs": [
        {
          "indexed": false,
          "internalType": "address",
          "name": "contractAddress",
          "type": "address"
        }
      ],
      "name": "MilkToken2Created",
      "type": "event"
    },
    {
      "anonymous": false,
      "inputs": [
        {
          "indexed": false,
          "internalType": "address",
          "name": "contractAddress",
          "type": "address"
        }
      ],
      "name": "PearlToken2Created",
      "type": "event"
    },
    {
      "anonymous": false,
      "inputs": [
        {
          "indexed": false,
          "internalType": "address",
          "name": "contractAddress",
          "type": "address"
        }
      ],
      "name": "TeaToken2Created",
      "type": "event"
    },
    {
      "inputs": [
        {
          "internalType": "uint256",
          "name": "initialSupply",
          "type": "uint256"
        }
      ],
      "name": "createNewMilkToken2",
      "outputs": [
        {
          "internalType": "address",
          "name": "",
          "type": "address"
        }
      ],
      "stateMutability": "nonpayable",
      "type": "function"
    },
    {
      "inputs": [
        {
          "internalType": "uint256",
          "name": "initialSupply",
          "type": "uint256"
        }
      ],
      "name": "createNewTeaToken2",
      "outputs": [
        {
          "internalType": "address",
          "name": "",
          "type": "address"
        }
      ],
      "stateMutability": "nonpayable",
      "type": "function"
    },
    {
      "inputs": [
        {
          "internalType": "uint256",
          "name": "initialSupply",
          "type": "uint256"
        }
      ],
      "name": "createNewPearlToken2",
      "outputs": [
        {
          "internalType": "address",
          "name": "",
          "type": "address"
        }
      ],
      "stateMutability": "nonpayable",
      "type": "function"
    },
    {
      "inputs": [],
      "name": "getRecentMilkToken2Address",
      "outputs": [
        {
          "internalType": "address",
          "name": "",
          "type": "address"
        }
      ],
      "stateMutability": "view",
      "type": "function",
      "constant": true
    },
    {
      "inputs": [],
      "name": "getRecentTeaToken2Address",
      "outputs": [
        {
          "internalType": "address",
          "name": "",
          "type": "address"
        }
      ],
      "stateMutability": "view",
      "type": "function",
      "constant": true
    },
    {
      "inputs": [],
      "name": "getRecentPearlToken2Address",
      "outputs": [
        {
          "internalType": "address",
          "name": "",
          "type": "address"
        }
      ],
      "stateMutability": "view",
      "type": "function",
      "constant": true
    }
  ],
  "bytecode": "0x608060405234801561001057600080fd5b50615d36806100206000396000f3fe60806040523480156200001157600080fd5b50600436106200006a5760003560e01c80630a377a77146200006f5780632604054514620000915780633b5c112214620000b357806350a1052414620000d55780635d838277146200010b578063a71aa4771462000141575b600080fd5b6200007962000177565b604051620000889190620005a0565b60405180910390f35b6200009b620001d1565b604051620000aa9190620005a0565b60405180910390f35b620000bd6200022c565b604051620000cc9190620005a0565b60405180910390f35b620000f36004803603810190620000ed9190620005fd565b62000288565b604051620001029190620005a0565b60405180910390f35b620001296004803603810190620001239190620005fd565b6200036b565b604051620001389190620005a0565b60405180910390f35b6200015f6004803603810190620001599190620005fd565b6200044e565b6040516200016e9190620005a0565b60405180910390f35b600060018080805490506200018d91906200065e565b81548110620001a157620001a062000699565b5b9060005260206000200160009054906101000a900473ffffffffffffffffffffffffffffffffffffffff16905090565b6000806001600080549050620001e891906200065e565b81548110620001fc57620001fb62000699565b5b9060005260206000200160009054906101000a900473ffffffffffffffffffffffffffffffffffffffff16905090565b6000600260016002805490506200024491906200065e565b8154811062000258576200025762000699565b5b9060005260206000200160009054906101000a900473ffffffffffffffffffffffffffffffffffffffff16905090565b600080826040516200029a9062000531565b620002a69190620006d9565b604051809103906000f080158015620002c3573d6000803e3d6000fd5b5090506001819080600181540180825580915050600190039060005260206000200160009091909190916101000a81548173ffffffffffffffffffffffffffffffffffffffff021916908373ffffffffffffffffffffffffffffffffffffffff1602179055507f2b4a8a25c5d5c0e886c1f5dd7198d0e5dee408c4fdfddac1d1f06ca52a3cc3fe816040516200035a9190620005a0565b60405180910390a180915050919050565b600080826040516200037d906200053f565b620003899190620006d9565b604051809103906000f080158015620003a6573d6000803e3d6000fd5b5090506002819080600181540180825580915050600190039060005260206000200160009091909190916101000a81548173ffffffffffffffffffffffffffffffffffffffff021916908373ffffffffffffffffffffffffffffffffffffffff1602179055507f1f9827d103bc6922db23a1b3da0e1f3840c70f72dbc91ca3726519201683e843816040516200043d9190620005a0565b60405180910390a180915050919050565b6000808260405162000460906200054d565b6200046c9190620006d9565b604051809103906000f08015801562000489573d6000803e3d6000fd5b5090506000819080600181540180825580915050600190039060005260206000200160009091909190916101000a81548173ffffffffffffffffffffffffffffffffffffffff021916908373ffffffffffffffffffffffffffffffffffffffff1602179055507fb7fcdc13378b46f7a2ed519fc2941c784d9cf5838a5d47e9ecb4ee6e088516b181604051620005209190620005a0565b60405180910390a180915050919050565b611cae80620006f783390190565b611cae80620023a583390190565b611cae806200405383390190565b600073ffffffffffffffffffffffffffffffffffffffff82169050919050565b600062000588826200055b565b9050919050565b6200059a816200057b565b82525050565b6000602082019050620005b760008301846200058f565b92915050565b600080fd5b6000819050919050565b620005d781620005c2565b8114620005e357600080fd5b50565b600081359050620005f781620005cc565b92915050565b600060208284031215620006165762000615620005bd565b5b60006200062684828501620005e6565b91505092915050565b7f4e487b7100000000000000000000000000000000000000000000000000000000600052601160045260246000fd5b60006200066b82620005c2565b91506200067883620005c2565b9250828210156200068e576200068d6200062f565b5b828203905092915050565b7f4e487b7100000000000000000000000000000000000000000000000000000000600052603260045260246000fd5b620006d381620005c2565b82525050565b6000602082019050620006f06000830184620006c8565b9291505056fe60806040523480156200001157600080fd5b5060405162001cae38038062001cae833981810160405281019062000037919062000450565b6040518060400160405280600981526020017f546561546f6b656e3200000000000000000000000000000000000000000000008152506040518060400160405280600481526020017f54454132000000000000000000000000000000000000000000000000000000008152508160039080519060200190620000bb92919062000360565b508060049080519060200190620000d492919062000360565b505050620000f7620000eb6200011060201b60201c565b6200011860201b60201c565b620001093382620001de60201b60201c565b5062000623565b600033905090565b6000600560009054906101000a900473ffffffffffffffffffffffffffffffffffffffff16905081600560006101000a81548173ffffffffffffffffffffffffffffffffffffffff021916908373ffffffffffffffffffffffffffffffffffffffff1602179055508173ffffffffffffffffffffffffffffffffffffffff168173ffffffffffffffffffffffffffffffffffffffff167f8be0079c531659141344cd1fd0a4f28419497f9722a3daafe3b4186f6b6457e060405160405180910390a35050565b600073ffffffffffffffffffffffffffffffffffffffff168273ffffffffffffffffffffffffffffffffffffffff160362000250576040517f08c379a00000000000000000000000000000000000000000000000000000000081526004016200024790620004e3565b60405180910390fd5b62000264600083836200035660201b60201c565b806002600082825462000278919062000534565b92505081905550806000808473ffffffffffffffffffffffffffffffffffffffff1673ffffffffffffffffffffffffffffffffffffffff1681526020019081526020016000206000828254620002cf919062000534565b925050819055508173ffffffffffffffffffffffffffffffffffffffff16600073ffffffffffffffffffffffffffffffffffffffff167fddf252ad1be2c89b69c2b068fc378daa952ba7f163c4a11628f55a4df523b3ef83604051620003369190620005a2565b60405180910390a362000352600083836200035b60201b60201c565b5050565b505050565b505050565b8280546200036e90620005ee565b90600052602060002090601f016020900481019282620003925760008555620003de565b82601f10620003ad57805160ff1916838001178555620003de565b82800160010185558215620003de579182015b82811115620003dd578251825591602001919060010190620003c0565b5b509050620003ed9190620003f1565b5090565b5b808211156200040c576000816000905550600101620003f2565b5090565b600080fd5b6000819050919050565b6200042a8162000415565b81146200043657600080fd5b50565b6000815190506200044a816200041f565b92915050565b60006020828403121562000469576200046862000410565b5b6000620004798482850162000439565b91505092915050565b600082825260208201905092915050565b7f45524332303a206d696e7420746f20746865207a65726f206164647265737300600082015250565b6000620004cb601f8362000482565b9150620004d88262000493565b602082019050919050565b60006020820190508181036000830152620004fe81620004bc565b9050919050565b7f4e487b7100000000000000000000000000000000000000000000000000000000600052601160045260246000fd5b6000620005418262000415565b91506200054e8362000415565b9250827fffffffffffffffffffffffffffffffffffffffffffffffffffffffffffffffff0382111562000586576200058562000505565b5b828201905092915050565b6200059c8162000415565b82525050565b6000602082019050620005b9600083018462000591565b92915050565b7f4e487b7100000000000000000000000000000000000000000000000000000000600052602260045260246000fd5b600060028204905060018216806200060757607f821691505b6020821081036200061d576200061c620005bf565b5b50919050565b61167b80620006336000396000f3fe608060405234801561001057600080fd5b50600436106100ea5760003560e01c8063715018a61161008c578063a457c2d711610066578063a457c2d71461024f578063a9059cbb1461027f578063dd62ed3e146102af578063f2fde38b146102df576100ea565b8063715018a6146102095780638da5cb5b1461021357806395d89b4114610231576100ea565b806323b872dd116100c857806323b872dd1461015b578063313ce5671461018b57806339509351146101a957806370a08231146101d9576100ea565b806306fdde03146100ef578063095ea7b31461010d57806318160ddd1461013d575b600080fd5b6100f76102fb565b6040516101049190610e0e565b60405180910390f35b61012760048036038101906101229190610ec9565b61038d565b6040516101349190610f24565b60405180910390f35b6101456103b0565b6040516101529190610f4e565b60405180910390f35b61017560048036038101906101709190610f69565b6103ba565b6040516101829190610f24565b60405180910390f35b6101936103e9565b6040516101a09190610fd8565b60405180910390f35b6101c360048036038101906101be9190610ec9565b6103ee565b6040516101d09190610f24565b60405180910390f35b6101f360048036038101906101ee9190610ff3565b610425565b6040516102009190610f4e565b60405180910390f35b61021161046d565b005b61021b6104f5565b604051610228919061102f565b60405180910390f35b61023961051f565b6040516102469190610e0e565b60405180910390f35b61026960048036038101906102649190610ec9565b6105b1565b6040516102769190610f24565b60405180910390f35b61029960048036038101906102949190610ec9565b610628565b6040516102a69190610f24565b60405180910390f35b6102c960048036038101906102c4919061104a565b61064b565b6040516102d69190610f4e565b60405180910390f35b6102f960048036038101906102f49190610ff3565b6106d2565b005b60606003805461030a906110b9565b80601f0160208091040260200160405190810160405280929190818152602001828054610336906110b9565b80156103835780601f1061035857610100808354040283529160200191610383565b820191906000526020600020905b81548152906001019060200180831161036657829003601f168201915b5050505050905090565b6000806103986107c9565b90506103a58185856107d1565b600191505092915050565b6000600254905090565b6000806103c56107c9565b90506103d285828561099a565b6103dd858585610a26565b60019150509392505050565b600090565b6000806103f96107c9565b905061041a81858561040b858961064b565b6104159190611119565b6107d1565b600191505092915050565b60008060008373ffffffffffffffffffffffffffffffffffffffff1673ffffffffffffffffffffffffffffffffffffffff168152602001908152602001600020549050919050565b6104756107c9565b73ffffffffffffffffffffffffffffffffffffffff166104936104f5565b73ffffffffffffffffffffffffffffffffffffffff16146104e9576040517f08c379a00000000000000000000000000000000000000000000000000000000081526004016104e0906111bb565b60405180910390fd5b6104f36000610ca5565b565b6000600560009054906101000a900473ffffffffffffffffffffffffffffffffffffffff16905090565b60606004805461052e906110b9565b80601f016020809104026020016040519081016040528092919081815260200182805461055a906110b9565b80156105a75780601f1061057c576101008083540402835291602001916105a7565b820191906000526020600020905b81548152906001019060200180831161058a57829003601f168201915b5050505050905090565b6000806105bc6107c9565b905060006105ca828661064b565b90508381101561060f576040517f08c379a00000000000000000000000000000000000000000000000000000000081526004016106069061124d565b60405180910390fd5b61061c82868684036107d1565b60019250505092915050565b6000806106336107c9565b9050610640818585610a26565b600191505092915050565b6000600160008473ffffffffffffffffffffffffffffffffffffffff1673ffffffffffffffffffffffffffffffffffffffff16815260200190815260200160002060008373ffffffffffffffffffffffffffffffffffffffff1673ffffffffffffffffffffffffffffffffffffffff16815260200190815260200160002054905092915050565b6106da6107c9565b73ffffffffffffffffffffffffffffffffffffffff166106f86104f5565b73ffffffffffffffffffffffffffffffffffffffff161461074e576040517f08c379a0000000000000000000000000000000000000000000000000000000008152600401610745906111bb565b60405180910390fd5b600073ffffffffffffffffffffffffffffffffffffffff168173ffffffffffffffffffffffffffffffffffffffff16036107bd576040517f08c379a00000000000000000000000000000000000000000000000000000000081526004016107b4906112df565b60405180910390fd5b6107c681610ca5565b50565b600033905090565b600073ffffffffffffffffffffffffffffffffffffffff168373ffffffffffffffffffffffffffffffffffffffff1603610840576040517f08c379a000000000000000000000000000000000000000000000000000000000815260040161083790611371565b60405180910390fd5b600073ffffffffffffffffffffffffffffffffffffffff168273ffffffffffffffffffffffffffffffffffffffff16036108af576040517f08c379a00000000000000000000000000000000000000000000000000000000081526004016108a690611403565b60405180910390fd5b80600160008573ffffffffffffffffffffffffffffffffffffffff1673ffffffffffffffffffffffffffffffffffffffff16815260200190815260200160002060008473ffffffffffffffffffffffffffffffffffffffff1673ffffffffffffffffffffffffffffffffffffffff168152602001908152602001600020819055508173ffffffffffffffffffffffffffffffffffffffff168373ffffffffffffffffffffffffffffffffffffffff167f8c5be1e5ebec7d5bd14f71427d1e84f3dd0314c0f7b2291e5b200ac8c7c3b9258360405161098d9190610f4e565b60405180910390a3505050565b60006109a6848461064b565b90507fffffffffffffffffffffffffffffffffffffffffffffffffffffffffffffffff8114610a205781811015610a12576040517f08c379a0000000000000000000000000000000000000000000000000000000008152600401610a099061146f565b60405180910390fd5b610a1f84848484036107d1565b5b50505050565b600073ffffffffffffffffffffffffffffffffffffffff168373ffffffffffffffffffffffffffffffffffffffff1603610a95576040517f08c379a0000000000000000000000000000000000000000000000000000000008152600401610a8c90611501565b60405180910390fd5b600073ffffffffffffffffffffffffffffffffffffffff168273ffffffffffffffffffffffffffffffffffffffff1603610b04576040517f08c379a0000000000000000000000000000000000000000000000000000000008152600401610afb90611593565b60405180910390fd5b610b0f838383610d6b565b60008060008573ffffffffffffffffffffffffffffffffffffffff1673ffffffffffffffffffffffffffffffffffffffff16815260200190815260200160002054905081811015610b95576040517f08c379a0000000000000000000000000000000000000000000000000000000008152600401610b8c90611625565b60405180910390fd5b8181036000808673ffffffffffffffffffffffffffffffffffffffff1673ffffffffffffffffffffffffffffffffffffffff16815260200190815260200160002081905550816000808573ffffffffffffffffffffffffffffffffffffffff1673ffffffffffffffffffffffffffffffffffffffff1681526020019081526020016000206000828254610c289190611119565b925050819055508273ffffffffffffffffffffffffffffffffffffffff168473ffffffffffffffffffffffffffffffffffffffff167fddf252ad1be2c89b69c2b068fc378daa952ba7f163c4a11628f55a4df523b3ef84604051610c8c9190610f4e565b60405180910390a3610c9f848484610d70565b50505050565b6000600560009054906101000a900473ffffffffffffffffffffffffffffffffffffffff16905081600560006101000a81548173ffffffffffffffffffffffffffffffffffffffff021916908373ffffffffffffffffffffffffffffffffffffffff1602179055508173ffffffffffffffffffffffffffffffffffffffff168173ffffffffffffffffffffffffffffffffffffffff167f8be0079c531659141344cd1fd0a4f28419497f9722a3daafe3b4186f6b6457e060405160405180910390a35050565b505050565b505050565b600081519050919050565b600082825260208201905092915050565b60005b83811015610daf578082015181840152602081019050610d94565b83811115610dbe576000848401525b50505050565b6000601f19601f8301169050919050565b6000610de082610d75565b610dea8185610d80565b9350610dfa818560208601610d91565b610e0381610dc4565b840191505092915050565b60006020820190508181036000830152610e288184610dd5565b905092915050565b600080fd5b600073ffffffffffffffffffffffffffffffffffffffff82169050919050565b6000610e6082610e35565b9050919050565b610e7081610e55565b8114610e7b57600080fd5b50565b600081359050610e8d81610e67565b92915050565b6000819050919050565b610ea681610e93565b8114610eb157600080fd5b50565b600081359050610ec381610e9d565b92915050565b60008060408385031215610ee057610edf610e30565b5b6000610eee85828601610e7e565b9250506020610eff85828601610eb4565b9150509250929050565b60008115159050919050565b610f1e81610f09565b82525050565b6000602082019050610f396000830184610f15565b92915050565b610f4881610e93565b82525050565b6000602082019050610f636000830184610f3f565b92915050565b600080600060608486031215610f8257610f81610e30565b5b6000610f9086828701610e7e565b9350506020610fa186828701610e7e565b9250506040610fb286828701610eb4565b9150509250925092565b600060ff82169050919050565b610fd281610fbc565b82525050565b6000602082019050610fed6000830184610fc9565b92915050565b60006020828403121561100957611008610e30565b5b600061101784828501610e7e565b91505092915050565b61102981610e55565b82525050565b60006020820190506110446000830184611020565b92915050565b6000806040838503121561106157611060610e30565b5b600061106f85828601610e7e565b925050602061108085828601610e7e565b9150509250929050565b7f4e487b7100000000000000000000000000000000000000000000000000000000600052602260045260246000fd5b600060028204905060018216806110d157607f821691505b6020821081036110e4576110e361108a565b5b50919050565b7f4e487b7100000000000000000000000000000000000000000000000000000000600052601160045260246000fd5b600061112482610e93565b915061112f83610e93565b9250827fffffffffffffffffffffffffffffffffffffffffffffffffffffffffffffffff03821115611164576111636110ea565b5b828201905092915050565b7f4f776e61626c653a2063616c6c6572206973206e6f7420746865206f776e6572600082015250565b60006111a5602083610d80565b91506111b08261116f565b602082019050919050565b600060208201905081810360008301526111d481611198565b9050919050565b7f45524332303a2064656372656173656420616c6c6f77616e63652062656c6f7760008201527f207a65726f000000000000000000000000000000000000000000000000000000602082015250565b6000611237602583610d80565b9150611242826111db565b604082019050919050565b600060208201905081810360008301526112668161122a565b9050919050565b7f4f776e61626c653a206e6577206f776e657220697320746865207a65726f206160008201527f6464726573730000000000000000000000000000000000000000000000000000602082015250565b60006112c9602683610d80565b91506112d48261126d565b604082019050919050565b600060208201905081810360008301526112f8816112bc565b9050919050565b7f45524332303a20617070726f76652066726f6d20746865207a65726f2061646460008201527f7265737300000000000000000000000000000000000000000000000000000000602082015250565b600061135b602483610d80565b9150611366826112ff565b604082019050919050565b6000602082019050818103600083015261138a8161134e565b9050919050565b7f45524332303a20617070726f766520746f20746865207a65726f20616464726560008201527f7373000000000000000000000000000000000000000000000000000000000000602082015250565b60006113ed602283610d80565b91506113f882611391565b604082019050919050565b6000602082019050818103600083015261141c816113e0565b9050919050565b7f45524332303a20696e73756666696369656e7420616c6c6f77616e6365000000600082015250565b6000611459601d83610d80565b915061146482611423565b602082019050919050565b600060208201905081810360008301526114888161144c565b9050919050565b7f45524332303a207472616e736665722066726f6d20746865207a65726f20616460008201527f6472657373000000000000000000000000000000000000000000000000000000602082015250565b60006114eb602583610d80565b91506114f68261148f565b604082019050919050565b6000602082019050818103600083015261151a816114de565b9050919050565b7f45524332303a207472616e7366657220746f20746865207a65726f206164647260008201527f6573730000000000000000000000000000000000000000000000000000000000602082015250565b600061157d602383610d80565b915061158882611521565b604082019050919050565b600060208201905081810360008301526115ac81611570565b9050919050565b7f45524332303a207472616e7366657220616d6f756e742065786365656473206260008201527f616c616e63650000000000000000000000000000000000000000000000000000602082015250565b600061160f602683610d80565b915061161a826115b3565b604082019050919050565b6000602082019050818103600083015261163e81611602565b905091905056fea2646970667358221220fb7ea9f6a7507721116a375cf59b5cc78482edd2880d14f4e9b2ad65c3ca944f64736f6c634300080e003360806040523480156200001157600080fd5b5060405162001cae38038062001cae833981810160405281019062000037919062000450565b6040518060400160405280600b81526020017f506561726c546f6b656e320000000000000000000000000000000000000000008152506040518060400160405280600681526020017f504541524c3200000000000000000000000000000000000000000000000000008152508160039080519060200190620000bb92919062000360565b508060049080519060200190620000d492919062000360565b505050620000f7620000eb6200011060201b60201c565b6200011860201b60201c565b620001093382620001de60201b60201c565b5062000623565b600033905090565b6000600560009054906101000a900473ffffffffffffffffffffffffffffffffffffffff16905081600560006101000a81548173ffffffffffffffffffffffffffffffffffffffff021916908373ffffffffffffffffffffffffffffffffffffffff1602179055508173ffffffffffffffffffffffffffffffffffffffff168173ffffffffffffffffffffffffffffffffffffffff167f8be0079c531659141344cd1fd0a4f28419497f9722a3daafe3b4186f6b6457e060405160405180910390a35050565b600073ffffffffffffffffffffffffffffffffffffffff168273ffffffffffffffffffffffffffffffffffffffff160362000250576040517f08c379a00000000000000000000000000000000000000000000000000000000081526004016200024790620004e3565b60405180910390fd5b62000264600083836200035660201b60201c565b806002600082825462000278919062000534565b92505081905550806000808473ffffffffffffffffffffffffffffffffffffffff1673ffffffffffffffffffffffffffffffffffffffff1681526020019081526020016000206000828254620002cf919062000534565b925050819055508173ffffffffffffffffffffffffffffffffffffffff16600073ffffffffffffffffffffffffffffffffffffffff167fddf252ad1be2c89b69c2b068fc378daa952ba7f163c4a11628f55a4df523b3ef83604051620003369190620005a2565b60405180910390a362000352600083836200035b60201b60201c565b5050565b505050565b505050565b8280546200036e90620005ee565b90600052602060002090601f016020900481019282620003925760008555620003de565b82601f10620003ad57805160ff1916838001178555620003de565b82800160010185558215620003de579182015b82811115620003dd578251825591602001919060010190620003c0565b5b509050620003ed9190620003f1565b5090565b5b808211156200040c576000816000905550600101620003f2565b5090565b600080fd5b6000819050919050565b6200042a8162000415565b81146200043657600080fd5b50565b6000815190506200044a816200041f565b92915050565b60006020828403121562000469576200046862000410565b5b6000620004798482850162000439565b91505092915050565b600082825260208201905092915050565b7f45524332303a206d696e7420746f20746865207a65726f206164647265737300600082015250565b6000620004cb601f8362000482565b9150620004d88262000493565b602082019050919050565b60006020820190508181036000830152620004fe81620004bc565b9050919050565b7f4e487b7100000000000000000000000000000000000000000000000000000000600052601160045260246000fd5b6000620005418262000415565b91506200054e8362000415565b9250827fffffffffffffffffffffffffffffffffffffffffffffffffffffffffffffffff0382111562000586576200058562000505565b5b828201905092915050565b6200059c8162000415565b82525050565b6000602082019050620005b9600083018462000591565b92915050565b7f4e487b7100000000000000000000000000000000000000000000000000000000600052602260045260246000fd5b600060028204905060018216806200060757607f821691505b6020821081036200061d576200061c620005bf565b5b50919050565b61167b80620006336000396000f3fe608060405234801561001057600080fd5b50600436106100ea5760003560e01c8063715018a61161008c578063a457c2d711610066578063a457c2d71461024f578063a9059cbb1461027f578063dd62ed3e146102af578063f2fde38b146102df576100ea565b8063715018a6146102095780638da5cb5b1461021357806395d89b4114610231576100ea565b806323b872dd116100c857806323b872dd1461015b578063313ce5671461018b57806339509351146101a957806370a08231146101d9576100ea565b806306fdde03146100ef578063095ea7b31461010d57806318160ddd1461013d575b600080fd5b6100f76102fb565b6040516101049190610e0e565b60405180910390f35b61012760048036038101906101229190610ec9565b61038d565b6040516101349190610f24565b60405180910390f35b6101456103b0565b6040516101529190610f4e565b60405180910390f35b61017560048036038101906101709190610f69565b6103ba565b6040516101829190610f24565b60405180910390f35b6101936103e9565b6040516101a09190610fd8565b60405180910390f35b6101c360048036038101906101be9190610ec9565b6103ee565b6040516101d09190610f24565b60405180910390f35b6101f360048036038101906101ee9190610ff3565b610425565b6040516102009190610f4e565b60405180910390f35b61021161046d565b005b61021b6104f5565b604051610228919061102f565b60405180910390f35b61023961051f565b6040516102469190610e0e565b60405180910390f35b61026960048036038101906102649190610ec9565b6105b1565b6040516102769190610f24565b60405180910390f35b61029960048036038101906102949190610ec9565b610628565b6040516102a69190610f24565b60405180910390f35b6102c960048036038101906102c4919061104a565b61064b565b6040516102d69190610f4e565b60405180910390f35b6102f960048036038101906102f49190610ff3565b6106d2565b005b60606003805461030a906110b9565b80601f0160208091040260200160405190810160405280929190818152602001828054610336906110b9565b80156103835780601f1061035857610100808354040283529160200191610383565b820191906000526020600020905b81548152906001019060200180831161036657829003601f168201915b5050505050905090565b6000806103986107c9565b90506103a58185856107d1565b600191505092915050565b6000600254905090565b6000806103c56107c9565b90506103d285828561099a565b6103dd858585610a26565b60019150509392505050565b600090565b6000806103f96107c9565b905061041a81858561040b858961064b565b6104159190611119565b6107d1565b600191505092915050565b60008060008373ffffffffffffffffffffffffffffffffffffffff1673ffffffffffffffffffffffffffffffffffffffff168152602001908152602001600020549050919050565b6104756107c9565b73ffffffffffffffffffffffffffffffffffffffff166104936104f5565b73ffffffffffffffffffffffffffffffffffffffff16146104e9576040517f08c379a00000000000000000000000000000000000000000000000000000000081526004016104e0906111bb565b60405180910390fd5b6104f36000610ca5565b565b6000600560009054906101000a900473ffffffffffffffffffffffffffffffffffffffff16905090565b60606004805461052e906110b9565b80601f016020809104026020016040519081016040528092919081815260200182805461055a906110b9565b80156105a75780601f1061057c576101008083540402835291602001916105a7565b820191906000526020600020905b81548152906001019060200180831161058a57829003601f168201915b5050505050905090565b6000806105bc6107c9565b905060006105ca828661064b565b90508381101561060f576040517f08c379a00000000000000000000000000000000000000000000000000000000081526004016106069061124d565b60405180910390fd5b61061c82868684036107d1565b60019250505092915050565b6000806106336107c9565b9050610640818585610a26565b600191505092915050565b6000600160008473ffffffffffffffffffffffffffffffffffffffff1673ffffffffffffffffffffffffffffffffffffffff16815260200190815260200160002060008373ffffffffffffffffffffffffffffffffffffffff1673ffffffffffffffffffffffffffffffffffffffff16815260200190815260200160002054905092915050565b6106da6107c9565b73ffffffffffffffffffffffffffffffffffffffff166106f86104f5565b73ffffffffffffffffffffffffffffffffffffffff161461074e576040517f08c379a0000000000000000000000000000000000000000000000000000000008152600401610745906111bb565b60405180910390fd5b600073ffffffffffffffffffffffffffffffffffffffff168173ffffffffffffffffffffffffffffffffffffffff16036107bd576040517f08c379a00000000000000000000000000000000000000000000000000000000081526004016107b4906112df565b60405180910390fd5b6107c681610ca5565b50565b600033905090565b600073ffffffffffffffffffffffffffffffffffffffff168373ffffffffffffffffffffffffffffffffffffffff1603610840576040517f08c379a000000000000000000000000000000000000000000000000000000000815260040161083790611371565b60405180910390fd5b600073ffffffffffffffffffffffffffffffffffffffff168273ffffffffffffffffffffffffffffffffffffffff16036108af576040517f08c379a00000000000000000000000000000000000000000000000000000000081526004016108a690611403565b60405180910390fd5b80600160008573ffffffffffffffffffffffffffffffffffffffff1673ffffffffffffffffffffffffffffffffffffffff16815260200190815260200160002060008473ffffffffffffffffffffffffffffffffffffffff1673ffffffffffffffffffffffffffffffffffffffff168152602001908152602001600020819055508173ffffffffffffffffffffffffffffffffffffffff168373ffffffffffffffffffffffffffffffffffffffff167f8c5be1e5ebec7d5bd14f71427d1e84f3dd0314c0f7b2291e5b200ac8c7c3b9258360405161098d9190610f4e565b60405180910390a3505050565b60006109a6848461064b565b90507fffffffffffffffffffffffffffffffffffffffffffffffffffffffffffffffff8114610a205781811015610a12576040517f08c379a0000000000000000000000000000000000000000000000000000000008152600401610a099061146f565b60405180910390fd5b610a1f84848484036107d1565b5b50505050565b600073ffffffffffffffffffffffffffffffffffffffff168373ffffffffffffffffffffffffffffffffffffffff1603610a95576040517f08c379a0000000000000000000000000000000000000000000000000000000008152600401610a8c90611501565b60405180910390fd5b600073ffffffffffffffffffffffffffffffffffffffff168273ffffffffffffffffffffffffffffffffffffffff1603610b04576040517f08c379a0000000000000000000000000000000000000000000000000000000008152600401610afb90611593565b60405180910390fd5b610b0f838383610d6b565b60008060008573ffffffffffffffffffffffffffffffffffffffff1673ffffffffffffffffffffffffffffffffffffffff16815260200190815260200160002054905081811015610b95576040517f08c379a0000000000000000000000000000000000000000000000000000000008152600401610b8c90611625565b60405180910390fd5b8181036000808673ffffffffffffffffffffffffffffffffffffffff1673ffffffffffffffffffffffffffffffffffffffff16815260200190815260200160002081905550816000808573ffffffffffffffffffffffffffffffffffffffff1673ffffffffffffffffffffffffffffffffffffffff1681526020019081526020016000206000828254610c289190611119565b925050819055508273ffffffffffffffffffffffffffffffffffffffff168473ffffffffffffffffffffffffffffffffffffffff167fddf252ad1be2c89b69c2b068fc378daa952ba7f163c4a11628f55a4df523b3ef84604051610c8c9190610f4e565b60405180910390a3610c9f848484610d70565b50505050565b6000600560009054906101000a900473ffffffffffffffffffffffffffffffffffffffff16905081600560006101000a81548173ffffffffffffffffffffffffffffffffffffffff021916908373ffffffffffffffffffffffffffffffffffffffff1602179055508173ffffffffffffffffffffffffffffffffffffffff168173ffffffffffffffffffffffffffffffffffffffff167f8be0079c531659141344cd1fd0a4f28419497f9722a3daafe3b4186f6b6457e060405160405180910390a35050565b505050565b505050565b600081519050919050565b600082825260208201905092915050565b60005b83811015610daf578082015181840152602081019050610d94565b83811115610dbe576000848401525b50505050565b6000601f19601f8301169050919050565b6000610de082610d75565b610dea8185610d80565b9350610dfa818560208601610d91565b610e0381610dc4565b840191505092915050565b60006020820190508181036000830152610e288184610dd5565b905092915050565b600080fd5b600073ffffffffffffffffffffffffffffffffffffffff82169050919050565b6000610e6082610e35565b9050919050565b610e7081610e55565b8114610e7b57600080fd5b50565b600081359050610e8d81610e67565b92915050565b6000819050919050565b610ea681610e93565b8114610eb157600080fd5b50565b600081359050610ec381610e9d565b92915050565b60008060408385031215610ee057610edf610e30565b5b6000610eee85828601610e7e565b9250506020610eff85828601610eb4565b9150509250929050565b60008115159050919050565b610f1e81610f09565b82525050565b6000602082019050610f396000830184610f15565b92915050565b610f4881610e93565b82525050565b6000602082019050610f636000830184610f3f565b92915050565b600080600060608486031215610f8257610f81610e30565b5b6000610f9086828701610e7e565b9350506020610fa186828701610e7e565b9250506040610fb286828701610eb4565b9150509250925092565b600060ff82169050919050565b610fd281610fbc565b82525050565b6000602082019050610fed6000830184610fc9565b92915050565b60006020828403121561100957611008610e30565b5b600061101784828501610e7e565b91505092915050565b61102981610e55565b82525050565b60006020820190506110446000830184611020565b92915050565b6000806040838503121561106157611060610e30565b5b600061106f85828601610e7e565b925050602061108085828601610e7e565b9150509250929050565b7f4e487b7100000000000000000000000000000000000000000000000000000000600052602260045260246000fd5b600060028204905060018216806110d157607f821691505b6020821081036110e4576110e361108a565b5b50919050565b7f4e487b7100000000000000000000000000000000000000000000000000000000600052601160045260246000fd5b600061112482610e93565b915061112f83610e93565b9250827fffffffffffffffffffffffffffffffffffffffffffffffffffffffffffffffff03821115611164576111636110ea565b5b828201905092915050565b7f4f776e61626c653a2063616c6c6572206973206e6f7420746865206f776e6572600082015250565b60006111a5602083610d80565b91506111b08261116f565b602082019050919050565b600060208201905081810360008301526111d481611198565b9050919050565b7f45524332303a2064656372656173656420616c6c6f77616e63652062656c6f7760008201527f207a65726f000000000000000000000000000000000000000000000000000000602082015250565b6000611237602583610d80565b9150611242826111db565b604082019050919050565b600060208201905081810360008301526112668161122a565b9050919050565b7f4f776e61626c653a206e6577206f776e657220697320746865207a65726f206160008201527f6464726573730000000000000000000000000000000000000000000000000000602082015250565b60006112c9602683610d80565b91506112d48261126d565b604082019050919050565b600060208201905081810360008301526112f8816112bc565b9050919050565b7f45524332303a20617070726f76652066726f6d20746865207a65726f2061646460008201527f7265737300000000000000000000000000000000000000000000000000000000602082015250565b600061135b602483610d80565b9150611366826112ff565b604082019050919050565b6000602082019050818103600083015261138a8161134e565b9050919050565b7f45524332303a20617070726f766520746f20746865207a65726f20616464726560008201527f7373000000000000000000000000000000000000000000000000000000000000602082015250565b60006113ed602283610d80565b91506113f882611391565b604082019050919050565b6000602082019050818103600083015261141c816113e0565b9050919050565b7f45524332303a20696e73756666696369656e7420616c6c6f77616e6365000000600082015250565b6000611459601d83610d80565b915061146482611423565b602082019050919050565b600060208201905081810360008301526114888161144c565b9050919050565b7f45524332303a207472616e736665722066726f6d20746865207a65726f20616460008201527f6472657373000000000000000000000000000000000000000000000000000000602082015250565b60006114eb602583610d80565b91506114f68261148f565b604082019050919050565b6000602082019050818103600083015261151a816114de565b9050919050565b7f45524332303a207472616e7366657220746f20746865207a65726f206164647260008201527f6573730000000000000000000000000000000000000000000000000000000000602082015250565b600061157d602383610d80565b915061158882611521565b604082019050919050565b600060208201905081810360008301526115ac81611570565b9050919050565b7f45524332303a207472616e7366657220616d6f756e742065786365656473206260008201527f616c616e63650000000000000000000000000000000000000000000000000000602082015250565b600061160f602683610d80565b915061161a826115b3565b604082019050919050565b6000602082019050818103600083015261163e81611602565b905091905056fea2646970667358221220de726c4bdfd576db072a3768ee397df282a3e59e8587cec644a993b52e7c509364736f6c634300080e003360806040523480156200001157600080fd5b5060405162001cae38038062001cae833981810160405281019062000037919062000450565b6040518060400160405280600a81526020017f4d696c6b546f6b656e32000000000000000000000000000000000000000000008152506040518060400160405280600581526020017f4d494c4b320000000000000000000000000000000000000000000000000000008152508160039080519060200190620000bb92919062000360565b508060049080519060200190620000d492919062000360565b505050620000f7620000eb6200011060201b60201c565b6200011860201b60201c565b620001093382620001de60201b60201c565b5062000623565b600033905090565b6000600560009054906101000a900473ffffffffffffffffffffffffffffffffffffffff16905081600560006101000a81548173ffffffffffffffffffffffffffffffffffffffff021916908373ffffffffffffffffffffffffffffffffffffffff1602179055508173ffffffffffffffffffffffffffffffffffffffff168173ffffffffffffffffffffffffffffffffffffffff167f8be0079c531659141344cd1fd0a4f28419497f9722a3daafe3b4186f6b6457e060405160405180910390a35050565b600073ffffffffffffffffffffffffffffffffffffffff168273ffffffffffffffffffffffffffffffffffffffff160362000250576040517f08c379a00000000000000000000000000000000000000000000000000000000081526004016200024790620004e3565b60405180910390fd5b62000264600083836200035660201b60201c565b806002600082825462000278919062000534565b92505081905550806000808473ffffffffffffffffffffffffffffffffffffffff1673ffffffffffffffffffffffffffffffffffffffff1681526020019081526020016000206000828254620002cf919062000534565b925050819055508173ffffffffffffffffffffffffffffffffffffffff16600073ffffffffffffffffffffffffffffffffffffffff167fddf252ad1be2c89b69c2b068fc378daa952ba7f163c4a11628f55a4df523b3ef83604051620003369190620005a2565b60405180910390a362000352600083836200035b60201b60201c565b5050565b505050565b505050565b8280546200036e90620005ee565b90600052602060002090601f016020900481019282620003925760008555620003de565b82601f10620003ad57805160ff1916838001178555620003de565b82800160010185558215620003de579182015b82811115620003dd578251825591602001919060010190620003c0565b5b509050620003ed9190620003f1565b5090565b5b808211156200040c576000816000905550600101620003f2565b5090565b600080fd5b6000819050919050565b6200042a8162000415565b81146200043657600080fd5b50565b6000815190506200044a816200041f565b92915050565b60006020828403121562000469576200046862000410565b5b6000620004798482850162000439565b91505092915050565b600082825260208201905092915050565b7f45524332303a206d696e7420746f20746865207a65726f206164647265737300600082015250565b6000620004cb601f8362000482565b9150620004d88262000493565b602082019050919050565b60006020820190508181036000830152620004fe81620004bc565b9050919050565b7f4e487b7100000000000000000000000000000000000000000000000000000000600052601160045260246000fd5b6000620005418262000415565b91506200054e8362000415565b9250827fffffffffffffffffffffffffffffffffffffffffffffffffffffffffffffffff0382111562000586576200058562000505565b5b828201905092915050565b6200059c8162000415565b82525050565b6000602082019050620005b9600083018462000591565b92915050565b7f4e487b7100000000000000000000000000000000000000000000000000000000600052602260045260246000fd5b600060028204905060018216806200060757607f821691505b6020821081036200061d576200061c620005bf565b5b50919050565b61167b80620006336000396000f3fe608060405234801561001057600080fd5b50600436106100ea5760003560e01c8063715018a61161008c578063a457c2d711610066578063a457c2d71461024f578063a9059cbb1461027f578063dd62ed3e146102af578063f2fde38b146102df576100ea565b8063715018a6146102095780638da5cb5b1461021357806395d89b4114610231576100ea565b806323b872dd116100c857806323b872dd1461015b578063313ce5671461018b57806339509351146101a957806370a08231146101d9576100ea565b806306fdde03146100ef578063095ea7b31461010d57806318160ddd1461013d575b600080fd5b6100f76102fb565b6040516101049190610e0e565b60405180910390f35b61012760048036038101906101229190610ec9565b61038d565b6040516101349190610f24565b60405180910390f35b6101456103b0565b6040516101529190610f4e565b60405180910390f35b61017560048036038101906101709190610f69565b6103ba565b6040516101829190610f24565b60405180910390f35b6101936103e9565b6040516101a09190610fd8565b60405180910390f35b6101c360048036038101906101be9190610ec9565b6103ee565b6040516101d09190610f24565b60405180910390f35b6101f360048036038101906101ee9190610ff3565b610425565b6040516102009190610f4e565b60405180910390f35b61021161046d565b005b61021b6104f5565b604051610228919061102f565b60405180910390f35b61023961051f565b6040516102469190610e0e565b60405180910390f35b61026960048036038101906102649190610ec9565b6105b1565b6040516102769190610f24565b60405180910390f35b61029960048036038101906102949190610ec9565b610628565b6040516102a69190610f24565b60405180910390f35b6102c960048036038101906102c4919061104a565b61064b565b6040516102d69190610f4e565b60405180910390f35b6102f960048036038101906102f49190610ff3565b6106d2565b005b60606003805461030a906110b9565b80601f0160208091040260200160405190810160405280929190818152602001828054610336906110b9565b80156103835780601f1061035857610100808354040283529160200191610383565b820191906000526020600020905b81548152906001019060200180831161036657829003601f168201915b5050505050905090565b6000806103986107c9565b90506103a58185856107d1565b600191505092915050565b6000600254905090565b6000806103c56107c9565b90506103d285828561099a565b6103dd858585610a26565b60019150509392505050565b600090565b6000806103f96107c9565b905061041a81858561040b858961064b565b6104159190611119565b6107d1565b600191505092915050565b60008060008373ffffffffffffffffffffffffffffffffffffffff1673ffffffffffffffffffffffffffffffffffffffff168152602001908152602001600020549050919050565b6104756107c9565b73ffffffffffffffffffffffffffffffffffffffff166104936104f5565b73ffffffffffffffffffffffffffffffffffffffff16146104e9576040517f08c379a00000000000000000000000000000000000000000000000000000000081526004016104e0906111bb565b60405180910390fd5b6104f36000610ca5565b565b6000600560009054906101000a900473ffffffffffffffffffffffffffffffffffffffff16905090565b60606004805461052e906110b9565b80601f016020809104026020016040519081016040528092919081815260200182805461055a906110b9565b80156105a75780601f1061057c576101008083540402835291602001916105a7565b820191906000526020600020905b81548152906001019060200180831161058a57829003601f168201915b5050505050905090565b6000806105bc6107c9565b905060006105ca828661064b565b90508381101561060f576040517f08c379a00000000000000000000000000000000000000000000000000000000081526004016106069061124d565b60405180910390fd5b61061c82868684036107d1565b60019250505092915050565b6000806106336107c9565b9050610640818585610a26565b600191505092915050565b6000600160008473ffffffffffffffffffffffffffffffffffffffff1673ffffffffffffffffffffffffffffffffffffffff16815260200190815260200160002060008373ffffffffffffffffffffffffffffffffffffffff1673ffffffffffffffffffffffffffffffffffffffff16815260200190815260200160002054905092915050565b6106da6107c9565b73ffffffffffffffffffffffffffffffffffffffff166106f86104f5565b73ffffffffffffffffffffffffffffffffffffffff161461074e576040517f08c379a0000000000000000000000000000000000000000000000000000000008152600401610745906111bb565b60405180910390fd5b600073ffffffffffffffffffffffffffffffffffffffff168173ffffffffffffffffffffffffffffffffffffffff16036107bd576040517f08c379a00000000000000000000000000000000000000000000000000000000081526004016107b4906112df565b60405180910390fd5b6107c681610ca5565b50565b600033905090565b600073ffffffffffffffffffffffffffffffffffffffff168373ffffffffffffffffffffffffffffffffffffffff1603610840576040517f08c379a000000000000000000000000000000000000000000000000000000000815260040161083790611371565b60405180910390fd5b600073ffffffffffffffffffffffffffffffffffffffff168273ffffffffffffffffffffffffffffffffffffffff16036108af576040517f08c379a00000000000000000000000000000000000000000000000000000000081526004016108a690611403565b60405180910390fd5b80600160008573ffffffffffffffffffffffffffffffffffffffff1673ffffffffffffffffffffffffffffffffffffffff16815260200190815260200160002060008473ffffffffffffffffffffffffffffffffffffffff1673ffffffffffffffffffffffffffffffffffffffff168152602001908152602001600020819055508173ffffffffffffffffffffffffffffffffffffffff168373ffffffffffffffffffffffffffffffffffffffff167f8c5be1e5ebec7d5bd14f71427d1e84f3dd0314c0f7b2291e5b200ac8c7c3b9258360405161098d9190610f4e565b60405180910390a3505050565b60006109a6848461064b565b90507fffffffffffffffffffffffffffffffffffffffffffffffffffffffffffffffff8114610a205781811015610a12576040517f08c379a0000000000000000000000000000000000000000000000000000000008152600401610a099061146f565b60405180910390fd5b610a1f84848484036107d1565b5b50505050565b600073ffffffffffffffffffffffffffffffffffffffff168373ffffffffffffffffffffffffffffffffffffffff1603610a95576040517f08c379a0000000000000000000000000000000000000000000000000000000008152600401610a8c90611501565b60405180910390fd5b600073ffffffffffffffffffffffffffffffffffffffff168273ffffffffffffffffffffffffffffffffffffffff1603610b04576040517f08c379a0000000000000000000000000000000000000000000000000000000008152600401610afb90611593565b60405180910390fd5b610b0f838383610d6b565b60008060008573ffffffffffffffffffffffffffffffffffffffff1673ffffffffffffffffffffffffffffffffffffffff16815260200190815260200160002054905081811015610b95576040517f08c379a0000000000000000000000000000000000000000000000000000000008152600401610b8c90611625565b60405180910390fd5b8181036000808673ffffffffffffffffffffffffffffffffffffffff1673ffffffffffffffffffffffffffffffffffffffff16815260200190815260200160002081905550816000808573ffffffffffffffffffffffffffffffffffffffff1673ffffffffffffffffffffffffffffffffffffffff1681526020019081526020016000206000828254610c289190611119565b925050819055508273ffffffffffffffffffffffffffffffffffffffff168473ffffffffffffffffffffffffffffffffffffffff167fddf252ad1be2c89b69c2b068fc378daa952ba7f163c4a11628f55a4df523b3ef84604051610c8c9190610f4e565b60405180910390a3610c9f848484610d70565b50505050565b6000600560009054906101000a900473ffffffffffffffffffffffffffffffffffffffff16905081600560006101000a81548173ffffffffffffffffffffffffffffffffffffffff021916908373ffffffffffffffffffffffffffffffffffffffff1602179055508173ffffffffffffffffffffffffffffffffffffffff168173ffffffffffffffffffffffffffffffffffffffff167f8be0079c531659141344cd1fd0a4f28419497f9722a3daafe3b4186f6b6457e060405160405180910390a35050565b505050565b505050565b600081519050919050565b600082825260208201905092915050565b60005b83811015610daf578082015181840152602081019050610d94565b83811115610dbe576000848401525b50505050565b6000601f19601f8301169050919050565b6000610de082610d75565b610dea8185610d80565b9350610dfa818560208601610d91565b610e0381610dc4565b840191505092915050565b60006020820190508181036000830152610e288184610dd5565b905092915050565b600080fd5b600073ffffffffffffffffffffffffffffffffffffffff82169050919050565b6000610e6082610e35565b9050919050565b610e7081610e55565b8114610e7b57600080fd5b50565b600081359050610e8d81610e67565b92915050565b6000819050919050565b610ea681610e93565b8114610eb157600080fd5b50565b600081359050610ec381610e9d565b92915050565b60008060408385031215610ee057610edf610e30565b5b6000610eee85828601610e7e565b9250506020610eff85828601610eb4565b9150509250929050565b60008115159050919050565b610f1e81610f09565b82525050565b6000602082019050610f396000830184610f15565b92915050565b610f4881610e93565b82525050565b6000602082019050610f636000830184610f3f565b92915050565b600080600060608486031215610f8257610f81610e30565b5b6000610f9086828701610e7e565b9350506020610fa186828701610e7e565b9250506040610fb286828701610eb4565b9150509250925092565b600060ff82169050919050565b610fd281610fbc565b82525050565b6000602082019050610fed6000830184610fc9565b92915050565b60006020828403121561100957611008610e30565b5b600061101784828501610e7e565b91505092915050565b61102981610e55565b82525050565b60006020820190506110446000830184611020565b92915050565b6000806040838503121561106157611060610e30565b5b600061106f85828601610e7e565b925050602061108085828601610e7e565b9150509250929050565b7f4e487b7100000000000000000000000000000000000000000000000000000000600052602260045260246000fd5b600060028204905060018216806110d157607f821691505b6020821081036110e4576110e361108a565b5b50919050565b7f4e487b7100000000000000000000000000000000000000000000000000000000600052601160045260246000fd5b600061112482610e93565b915061112f83610e93565b9250827fffffffffffffffffffffffffffffffffffffffffffffffffffffffffffffffff03821115611164576111636110ea565b5b828201905092915050565b7f4f776e61626c653a2063616c6c6572206973206e6f7420746865206f776e6572600082015250565b60006111a5602083610d80565b91506111b08261116f565b602082019050919050565b600060208201905081810360008301526111d481611198565b9050919050565b7f45524332303a2064656372656173656420616c6c6f77616e63652062656c6f7760008201527f207a65726f000000000000000000000000000000000000000000000000000000602082015250565b6000611237602583610d80565b9150611242826111db565b604082019050919050565b600060208201905081810360008301526112668161122a565b9050919050565b7f4f776e61626c653a206e6577206f776e657220697320746865207a65726f206160008201527f6464726573730000000000000000000000000000000000000000000000000000602082015250565b60006112c9602683610d80565b91506112d48261126d565b604082019050919050565b600060208201905081810360008301526112f8816112bc565b9050919050565b7f45524332303a20617070726f76652066726f6d20746865207a65726f2061646460008201527f7265737300000000000000000000000000000000000000000000000000000000602082015250565b600061135b602483610d80565b9150611366826112ff565b604082019050919050565b6000602082019050818103600083015261138a8161134e565b9050919050565b7f45524332303a20617070726f766520746f20746865207a65726f20616464726560008201527f7373000000000000000000000000000000000000000000000000000000000000602082015250565b60006113ed602283610d80565b91506113f882611391565b604082019050919050565b6000602082019050818103600083015261141c816113e0565b9050919050565b7f45524332303a20696e73756666696369656e7420616c6c6f77616e6365000000600082015250565b6000611459601d83610d80565b915061146482611423565b602082019050919050565b600060208201905081810360008301526114888161144c565b9050919050565b7f45524332303a207472616e736665722066726f6d20746865207a65726f20616460008201527f6472657373000000000000000000000000000000000000000000000000000000602082015250565b60006114eb602583610d80565b91506114f68261148f565b604082019050919050565b6000602082019050818103600083015261151a816114de565b9050919050565b7f45524332303a207472616e7366657220746f20746865207a65726f206164647260008201527f6573730000000000000000000000000000000000000000000000000000000000602082015250565b600061157d602383610d80565b915061158882611521565b604082019050919050565b600060208201905081810360008301526115ac81611570565b9050919050565b7f45524332303a207472616e7366657220616d6f756e742065786365656473206260008201527f616c616e63650000000000000000000000000000000000000000000000000000602082015250565b600061160f602683610d80565b915061161a826115b3565b604082019050919050565b6000602082019050818103600083015261163e81611602565b905091905056fea2646970667358221220c6ead524e2dbe7c1ff6917687a309afbb80c153b52e79fae006d873dc033f24864736f6c634300080e0033a2646970667358221220122d6778155c68fe088c8f0f206fa86d87da1fc26805685f534a1bbb0ef818e464736f6c634300080e0033",
  "immutableReferences": {},
  "source": "pragma solidity ^0.8.7;\r\n\r\nimport \"./MilkToken2.sol\";\r\nimport \"./TeaToken2.sol\";\r\nimport \"./PearlToken2.sol\";\r\n\r\ncontract TokenFactory2 {\r\n    event MilkToken2Created(address contractAddress);\r\n    event TeaToken2Created(address contractAddress);\r\n    event PearlToken2Created(address contractAddress);\r\n\r\n    MilkToken2[] private milkToken2Array;\r\n    TeaToken2[] private teaToken2Array;\r\n    PearlToken2[] private pearlToken2Array;\r\n\r\n    function createNewMilkToken2(uint256 initialSupply) public returns (address) {\r\n        MilkToken2 milkToken2 = new MilkToken2(initialSupply);\r\n        milkToken2Array.push(milkToken2);\r\n        emit MilkToken2Created(address(milkToken2));\r\n        return address(milkToken2);\r\n    }\r\n\r\n    function createNewTeaToken2(uint256 initialSupply) public returns (address) {\r\n        TeaToken2 teaToken2 = new TeaToken2(initialSupply);\r\n        teaToken2Array.push(teaToken2);\r\n        emit TeaToken2Created(address(teaToken2));\r\n        return address(teaToken2);\r\n    }\r\n\r\n    function createNewPearlToken2(uint256 initialSupply) public returns (address) {\r\n        PearlToken2 pearlToken2 = new PearlToken2(initialSupply);\r\n        pearlToken2Array.push(pearlToken2);\r\n        emit PearlToken2Created(address(pearlToken2));\r\n        return address(pearlToken2);\r\n    }\r\n\r\n    function getRecentMilkToken2Address() public view returns (address) {\r\n        return address(milkToken2Array[milkToken2Array.length - 1]);\r\n    }\r\n\r\n    // function getAllMilkToken2Address() public view returns (address[] memory) {\r\n    //     address[] memory result = new address[](milkToken2Array.length);\r\n    //     for (uint i = 0; i <= milkToken2Array.length - 1; i++) {\r\n    //         result[i] = address(milkToken2Array[i]);\r\n    //     }\r\n    //     return result;\r\n    // }\r\n\r\n    function getRecentTeaToken2Address() public view returns (address) {\r\n        return address(teaToken2Array[teaToken2Array.length - 1]);\r\n    }\r\n\r\n    // function getAllTeaToken2Address() public view returns (address[] memory) {\r\n    //     address[] memory result = new address[](teaToken2Array.length);\r\n    //     for (uint i = 0; i <= teaToken2Array.length - 1; i++) {\r\n    //         result[i] = address(teaToken2Array[i]);\r\n    //     }\r\n    //     return result;\r\n    // }\r\n\r\n    function getRecentPearlToken2Address() public view returns (address) {\r\n        return address(pearlToken2Array[pearlToken2Array.length - 1]);\r\n    }\r\n\r\n    // function getAllPearlToken2Address() public view returns (address[] memory) {\r\n    //     address[] memory result = new address[](pearlToken2Array.length);\r\n    //     for (uint i = 0; i <= pearlToken2Array.length - 1; i++) {\r\n    //         result[i] = address(pearlToken2Array[i]);\r\n    //     }\r\n    //     return result;\r\n    // }    \r\n}",
  "sourcePath": "C:\\Users\\zheru\\OneDrive\\blockchain\\LPFarmApp\\contracts\\TokenFactory2.sol",
  "compiler": {
    "name": "solc",
    "version": "0.8.14+commit.80d49f37.Emscripten.clang"
  },
  "schemaVersion": "3.4.7",
  "updatedAt": "2022-06-20T13:21:15.980Z",
  "networkType": "ethereum",
  "devdoc": {
    "kind": "dev",
    "methods": {},
    "version": 1
  },
  "userdoc": {
    "kind": "user",
    "methods": {},
    "version": 1
  }
}