{
  "contractName": "TokenFactory",
  "abi": [
    {
      "anonymous": false,
      "inputs": [
        {
          "indexed": false,
          "internalType": "address",
          "name": "contractAddress",
          "type": "address"
        }
      ],
      "name": "MilkTokenCreated",
      "type": "event"
    },
    {
      "anonymous": false,
      "inputs": [
        {
          "indexed": false,
          "internalType": "address",
          "name": "contractAddress",
          "type": "address"
        }
      ],
      "name": "PearlTokenCreated",
      "type": "event"
    },
    {
      "anonymous": false,
      "inputs": [
        {
          "indexed": false,
          "internalType": "address",
          "name": "contractAddress",
          "type": "address"
        }
      ],
      "name": "TeaTokenCreated",
      "type": "event"
    },
    {
      "inputs": [
        {
          "internalType": "address",
          "name": "user",
          "type": "address"
        },
        {
          "internalType": "uint256",
          "name": "initialSupply",
          "type": "uint256"
        }
      ],
      "name": "createNewMilkToken",
      "outputs": [
        {
          "internalType": "address",
          "name": "",
          "type": "address"
        }
      ],
      "stateMutability": "nonpayable",
      "type": "function"
    },
    {
      "inputs": [
        {
          "internalType": "address",
          "name": "user",
          "type": "address"
        },
        {
          "internalType": "uint256",
          "name": "initialSupply",
          "type": "uint256"
        }
      ],
      "name": "createNewTeaToken",
      "outputs": [
        {
          "internalType": "address",
          "name": "",
          "type": "address"
        }
      ],
      "stateMutability": "nonpayable",
      "type": "function"
    },
    {
      "inputs": [
        {
          "internalType": "address",
          "name": "user",
          "type": "address"
        },
        {
          "internalType": "uint256",
          "name": "initialSupply",
          "type": "uint256"
        }
      ],
      "name": "createNewPearlToken",
      "outputs": [
        {
          "internalType": "address",
          "name": "",
          "type": "address"
        }
      ],
      "stateMutability": "nonpayable",
      "type": "function"
    },
    {
      "inputs": [],
      "name": "getRecentMilkTokenAddress",
      "outputs": [
        {
          "internalType": "address",
          "name": "",
          "type": "address"
        }
      ],
      "stateMutability": "view",
      "type": "function",
      "constant": true
    },
    {
      "inputs": [],
      "name": "getAllMilkTokenAddress",
      "outputs": [
        {
          "internalType": "address[]",
          "name": "",
          "type": "address[]"
        }
      ],
      "stateMutability": "view",
      "type": "function",
      "constant": true
    },
    {
      "inputs": [],
      "name": "getRecentTeaTokenAddress",
      "outputs": [
        {
          "internalType": "address",
          "name": "",
          "type": "address"
        }
      ],
      "stateMutability": "view",
      "type": "function",
      "constant": true
    },
    {
      "inputs": [],
      "name": "getAllTeaTokenAddress",
      "outputs": [
        {
          "internalType": "address[]",
          "name": "",
          "type": "address[]"
        }
      ],
      "stateMutability": "view",
      "type": "function",
      "constant": true
    },
    {
      "inputs": [],
      "name": "getRecentPearlTokenAddress",
      "outputs": [
        {
          "internalType": "address",
          "name": "",
          "type": "address"
        }
      ],
      "stateMutability": "view",
      "type": "function",
      "constant": true
    },
    {
      "inputs": [],
      "name": "getAllPearlTokenAddress",
      "outputs": [
        {
          "internalType": "address[]",
          "name": "",
          "type": "address[]"
        }
      ],
      "stateMutability": "view",
      "type": "function",
      "constant": true
    }
  ],
  "bytecode": "0x608060405234801561001057600080fd5b50615562806100206000396000f3fe60806040523480156200001157600080fd5b5060043610620000a05760003560e01c80637288c2af116200006f5780637288c2af146200012d578063880cfce2146200016357806395a11cb414620001995780639d7c25eb14620001bb578063a751ee8714620001dd57620000a0565b80631029061714620000a55780633fe59d4314620000c757806347900c9414620000e957806365c1fc98146200010b575b600080fd5b620000af62000213565b604051620000be9190620009b5565b60405180910390f35b620000d16200026f565b604051620000e0919062000aa0565b60405180910390f35b620000f362000395565b604051620001029190620009b5565b60405180910390f35b62000115620003ef565b604051620001249190620009b5565b60405180910390f35b6200014b600480360381019062000145919062000b35565b6200044a565b6040516200015a9190620009b5565b60405180910390f35b6200018160048036038101906200017b919062000b35565b62000530565b604051620001909190620009b5565b60405180910390f35b620001a362000616565b604051620001b2919062000aa0565b60405180910390f35b620001c56200073b565b604051620001d4919062000aa0565b60405180910390f35b620001fb6004803603810190620001f5919062000b35565b62000860565b6040516200020a9190620009b5565b60405180910390f35b6000600260016002805490506200022b919062000bab565b815481106200023f576200023e62000be6565b5b9060005260206000200160009054906101000a900473ffffffffffffffffffffffffffffffffffffffff16905090565b6060600060028054905067ffffffffffffffff81111562000295576200029462000c15565b5b604051908082528060200260200182016040528015620002c45781602001602082028036833780820191505090505b50905060005b6001600280549050620002de919062000bab565b81116200038d5760028181548110620002fc57620002fb62000be6565b5b9060005260206000200160009054906101000a900473ffffffffffffffffffffffffffffffffffffffff168282815181106200033d576200033c62000be6565b5b602002602001019073ffffffffffffffffffffffffffffffffffffffff16908173ffffffffffffffffffffffffffffffffffffffff16815250508080620003849062000c44565b915050620002ca565b508091505090565b60006001808080549050620003ab919062000bab565b81548110620003bf57620003be62000be6565b5b9060005260206000200160009054906101000a900473ffffffffffffffffffffffffffffffffffffffff16905090565b600080600160008054905062000406919062000bab565b815481106200041a576200041962000be6565b5b9060005260206000200160009054906101000a900473ffffffffffffffffffffffffffffffffffffffff16905090565b60008083836040516200045d9062000946565b6200046a92919062000ca2565b604051809103906000f08015801562000487573d6000803e3d6000fd5b5090506001819080600181540180825580915050600190039060005260206000200160009091909190916101000a81548173ffffffffffffffffffffffffffffffffffffffff021916908373ffffffffffffffffffffffffffffffffffffffff1602179055507f3251bcb3ae48e6762991ab11d4ef8d2bb37a6b003331567d6ed367affb45462f816040516200051e9190620009b5565b60405180910390a18091505092915050565b6000808383604051620005439062000954565b6200055092919062000ca2565b604051809103906000f0801580156200056d573d6000803e3d6000fd5b5090506002819080600181540180825580915050600190039060005260206000200160009091909190916101000a81548173ffffffffffffffffffffffffffffffffffffffff021916908373ffffffffffffffffffffffffffffffffffffffff1602179055507f301ac567e5e2509d55475c943dfad1c3342e0aa3d115e32e9aeb9a5dd75ec6c181604051620006049190620009b5565b60405180910390a18091505092915050565b6060600060018054905067ffffffffffffffff8111156200063c576200063b62000c15565b5b6040519080825280602002602001820160405280156200066b5781602001602082028036833780820191505090505b50905060005b6001808054905062000684919062000bab565b8111620007335760018181548110620006a257620006a162000be6565b5b9060005260206000200160009054906101000a900473ffffffffffffffffffffffffffffffffffffffff16828281518110620006e357620006e262000be6565b5b602002602001019073ffffffffffffffffffffffffffffffffffffffff16908173ffffffffffffffffffffffffffffffffffffffff168152505080806200072a9062000c44565b91505062000671565b508091505090565b60606000808054905067ffffffffffffffff81111562000760576200075f62000c15565b5b6040519080825280602002602001820160405280156200078f5781602001602082028036833780820191505090505b50905060005b6001600080549050620007a9919062000bab565b8111620008585760008181548110620007c757620007c662000be6565b5b9060005260206000200160009054906101000a900473ffffffffffffffffffffffffffffffffffffffff1682828151811062000808576200080762000be6565b5b602002602001019073ffffffffffffffffffffffffffffffffffffffff16908173ffffffffffffffffffffffffffffffffffffffff168152505080806200084f9062000c44565b91505062000795565b508091505090565b6000808383604051620008739062000962565b6200088092919062000ca2565b604051809103906000f0801580156200089d573d6000803e3d6000fd5b5090506000819080600181540180825580915050600190039060005260206000200160009091909190916101000a81548173ffffffffffffffffffffffffffffffffffffffff021916908373ffffffffffffffffffffffffffffffffffffffff1602179055507fdf252393f38aba8deb5ab4237325fa701757945614d4d7d971c9cd306851762081604051620009349190620009b5565b60405180910390a18091505092915050565b61181f8062000cd083390190565b61181f80620024ef83390190565b61181f8062003d0e83390190565b600073ffffffffffffffffffffffffffffffffffffffff82169050919050565b60006200099d8262000970565b9050919050565b620009af8162000990565b82525050565b6000602082019050620009cc6000830184620009a4565b92915050565b600081519050919050565b600082825260208201905092915050565b6000819050602082019050919050565b62000a098162000990565b82525050565b600062000a1d8383620009fe565b60208301905092915050565b6000602082019050919050565b600062000a4382620009d2565b62000a4f8185620009dd565b935062000a5c83620009ee565b8060005b8381101562000a9357815162000a77888262000a0f565b975062000a848362000a29565b92505060018101905062000a60565b5085935050505092915050565b6000602082019050818103600083015262000abc818462000a36565b905092915050565b600080fd5b62000ad48162000990565b811462000ae057600080fd5b50565b60008135905062000af48162000ac9565b92915050565b6000819050919050565b62000b0f8162000afa565b811462000b1b57600080fd5b50565b60008135905062000b2f8162000b04565b92915050565b6000806040838503121562000b4f5762000b4e62000ac4565b5b600062000b5f8582860162000ae3565b925050602062000b728582860162000b1e565b9150509250929050565b7f4e487b7100000000000000000000000000000000000000000000000000000000600052601160045260246000fd5b600062000bb88262000afa565b915062000bc58362000afa565b92508282101562000bdb5762000bda62000b7c565b5b828203905092915050565b7f4e487b7100000000000000000000000000000000000000000000000000000000600052603260045260246000fd5b7f4e487b7100000000000000000000000000000000000000000000000000000000600052604160045260246000fd5b600062000c518262000afa565b91507fffffffffffffffffffffffffffffffffffffffffffffffffffffffffffffffff820362000c865762000c8562000b7c565b5b600182019050919050565b62000c9c8162000afa565b82525050565b600060408201905062000cb96000830185620009a4565b62000cc8602083018462000c91565b939250505056fe60806040523480156200001157600080fd5b506040516200181f3803806200181f8339818101604052810190620000379190620003c8565b6040518060400160405280600881526020017f546561546f6b656e0000000000000000000000000000000000000000000000008152506040518060400160405280600381526020017f54454100000000000000000000000000000000000000000000000000000000008152508160039080519060200190620000bb92919062000273565b508060049080519060200190620000d492919062000273565b505050620000e98282620000f160201b60201c565b5050620005b0565b600073ffffffffffffffffffffffffffffffffffffffff168273ffffffffffffffffffffffffffffffffffffffff160362000163576040517f08c379a00000000000000000000000000000000000000000000000000000000081526004016200015a9062000470565b60405180910390fd5b62000177600083836200026960201b60201c565b80600260008282546200018b9190620004c1565b92505081905550806000808473ffffffffffffffffffffffffffffffffffffffff1673ffffffffffffffffffffffffffffffffffffffff1681526020019081526020016000206000828254620001e29190620004c1565b925050819055508173ffffffffffffffffffffffffffffffffffffffff16600073ffffffffffffffffffffffffffffffffffffffff167fddf252ad1be2c89b69c2b068fc378daa952ba7f163c4a11628f55a4df523b3ef836040516200024991906200052f565b60405180910390a362000265600083836200026e60201b60201c565b5050565b505050565b505050565b82805462000281906200057b565b90600052602060002090601f016020900481019282620002a55760008555620002f1565b82601f10620002c057805160ff1916838001178555620002f1565b82800160010185558215620002f1579182015b82811115620002f0578251825591602001919060010190620002d3565b5b50905062000300919062000304565b5090565b5b808211156200031f57600081600090555060010162000305565b5090565b600080fd5b600073ffffffffffffffffffffffffffffffffffffffff82169050919050565b6000620003558262000328565b9050919050565b620003678162000348565b81146200037357600080fd5b50565b60008151905062000387816200035c565b92915050565b6000819050919050565b620003a2816200038d565b8114620003ae57600080fd5b50565b600081519050620003c28162000397565b92915050565b60008060408385031215620003e257620003e162000323565b5b6000620003f28582860162000376565b92505060206200040585828601620003b1565b9150509250929050565b600082825260208201905092915050565b7f45524332303a206d696e7420746f20746865207a65726f206164647265737300600082015250565b600062000458601f836200040f565b9150620004658262000420565b602082019050919050565b600060208201905081810360008301526200048b8162000449565b9050919050565b7f4e487b7100000000000000000000000000000000000000000000000000000000600052601160045260246000fd5b6000620004ce826200038d565b9150620004db836200038d565b9250827fffffffffffffffffffffffffffffffffffffffffffffffffffffffffffffffff0382111562000513576200051262000492565b5b828201905092915050565b62000529816200038d565b82525050565b60006020820190506200054660008301846200051e565b92915050565b7f4e487b7100000000000000000000000000000000000000000000000000000000600052602260045260246000fd5b600060028204905060018216806200059457607f821691505b602082108103620005aa57620005a96200054c565b5b50919050565b61125f80620005c06000396000f3fe608060405234801561001057600080fd5b50600436106100a95760003560e01c80633950935111610071578063395093511461016857806370a082311461019857806395d89b41146101c8578063a457c2d7146101e6578063a9059cbb14610216578063dd62ed3e14610246576100a9565b806306fdde03146100ae578063095ea7b3146100cc57806318160ddd146100fc57806323b872dd1461011a578063313ce5671461014a575b600080fd5b6100b6610276565b6040516100c39190610b1a565b60405180910390f35b6100e660048036038101906100e19190610bd5565b610308565b6040516100f39190610c30565b60405180910390f35b61010461032b565b6040516101119190610c5a565b60405180910390f35b610134600480360381019061012f9190610c75565b610335565b6040516101419190610c30565b60405180910390f35b610152610364565b60405161015f9190610ce4565b60405180910390f35b610182600480360381019061017d9190610bd5565b610369565b60405161018f9190610c30565b60405180910390f35b6101b260048036038101906101ad9190610cff565b6103a0565b6040516101bf9190610c5a565b60405180910390f35b6101d06103e8565b6040516101dd9190610b1a565b60405180910390f35b61020060048036038101906101fb9190610bd5565b61047a565b60405161020d9190610c30565b60405180910390f35b610230600480360381019061022b9190610bd5565b6104f1565b60405161023d9190610c30565b60405180910390f35b610260600480360381019061025b9190610d2c565b610514565b60405161026d9190610c5a565b60405180910390f35b60606003805461028590610d9b565b80601f01602080910402602001604051908101604052809291908181526020018280546102b190610d9b565b80156102fe5780601f106102d3576101008083540402835291602001916102fe565b820191906000526020600020905b8154815290600101906020018083116102e157829003601f168201915b5050505050905090565b60008061031361059b565b90506103208185856105a3565b600191505092915050565b6000600254905090565b60008061034061059b565b905061034d85828561076c565b6103588585856107f8565b60019150509392505050565b600090565b60008061037461059b565b90506103958185856103868589610514565b6103909190610dfb565b6105a3565b600191505092915050565b60008060008373ffffffffffffffffffffffffffffffffffffffff1673ffffffffffffffffffffffffffffffffffffffff168152602001908152602001600020549050919050565b6060600480546103f790610d9b565b80601f016020809104026020016040519081016040528092919081815260200182805461042390610d9b565b80156104705780601f1061044557610100808354040283529160200191610470565b820191906000526020600020905b81548152906001019060200180831161045357829003601f168201915b5050505050905090565b60008061048561059b565b905060006104938286610514565b9050838110156104d8576040517f08c379a00000000000000000000000000000000000000000000000000000000081526004016104cf90610ec3565b60405180910390fd5b6104e582868684036105a3565b60019250505092915050565b6000806104fc61059b565b90506105098185856107f8565b600191505092915050565b6000600160008473ffffffffffffffffffffffffffffffffffffffff1673ffffffffffffffffffffffffffffffffffffffff16815260200190815260200160002060008373ffffffffffffffffffffffffffffffffffffffff1673ffffffffffffffffffffffffffffffffffffffff16815260200190815260200160002054905092915050565b600033905090565b600073ffffffffffffffffffffffffffffffffffffffff168373ffffffffffffffffffffffffffffffffffffffff1603610612576040517f08c379a000000000000000000000000000000000000000000000000000000000815260040161060990610f55565b60405180910390fd5b600073ffffffffffffffffffffffffffffffffffffffff168273ffffffffffffffffffffffffffffffffffffffff1603610681576040517f08c379a000000000000000000000000000000000000000000000000000000000815260040161067890610fe7565b60405180910390fd5b80600160008573ffffffffffffffffffffffffffffffffffffffff1673ffffffffffffffffffffffffffffffffffffffff16815260200190815260200160002060008473ffffffffffffffffffffffffffffffffffffffff1673ffffffffffffffffffffffffffffffffffffffff168152602001908152602001600020819055508173ffffffffffffffffffffffffffffffffffffffff168373ffffffffffffffffffffffffffffffffffffffff167f8c5be1e5ebec7d5bd14f71427d1e84f3dd0314c0f7b2291e5b200ac8c7c3b9258360405161075f9190610c5a565b60405180910390a3505050565b60006107788484610514565b90507fffffffffffffffffffffffffffffffffffffffffffffffffffffffffffffffff81146107f257818110156107e4576040517f08c379a00000000000000000000000000000000000000000000000000000000081526004016107db90611053565b60405180910390fd5b6107f184848484036105a3565b5b50505050565b600073ffffffffffffffffffffffffffffffffffffffff168373ffffffffffffffffffffffffffffffffffffffff1603610867576040517f08c379a000000000000000000000000000000000000000000000000000000000815260040161085e906110e5565b60405180910390fd5b600073ffffffffffffffffffffffffffffffffffffffff168273ffffffffffffffffffffffffffffffffffffffff16036108d6576040517f08c379a00000000000000000000000000000000000000000000000000000000081526004016108cd90611177565b60405180910390fd5b6108e1838383610a77565b60008060008573ffffffffffffffffffffffffffffffffffffffff1673ffffffffffffffffffffffffffffffffffffffff16815260200190815260200160002054905081811015610967576040517f08c379a000000000000000000000000000000000000000000000000000000000815260040161095e90611209565b60405180910390fd5b8181036000808673ffffffffffffffffffffffffffffffffffffffff1673ffffffffffffffffffffffffffffffffffffffff16815260200190815260200160002081905550816000808573ffffffffffffffffffffffffffffffffffffffff1673ffffffffffffffffffffffffffffffffffffffff16815260200190815260200160002060008282546109fa9190610dfb565b925050819055508273ffffffffffffffffffffffffffffffffffffffff168473ffffffffffffffffffffffffffffffffffffffff167fddf252ad1be2c89b69c2b068fc378daa952ba7f163c4a11628f55a4df523b3ef84604051610a5e9190610c5a565b60405180910390a3610a71848484610a7c565b50505050565b505050565b505050565b600081519050919050565b600082825260208201905092915050565b60005b83811015610abb578082015181840152602081019050610aa0565b83811115610aca576000848401525b50505050565b6000601f19601f8301169050919050565b6000610aec82610a81565b610af68185610a8c565b9350610b06818560208601610a9d565b610b0f81610ad0565b840191505092915050565b60006020820190508181036000830152610b348184610ae1565b905092915050565b600080fd5b600073ffffffffffffffffffffffffffffffffffffffff82169050919050565b6000610b6c82610b41565b9050919050565b610b7c81610b61565b8114610b8757600080fd5b50565b600081359050610b9981610b73565b92915050565b6000819050919050565b610bb281610b9f565b8114610bbd57600080fd5b50565b600081359050610bcf81610ba9565b92915050565b60008060408385031215610bec57610beb610b3c565b5b6000610bfa85828601610b8a565b9250506020610c0b85828601610bc0565b9150509250929050565b60008115159050919050565b610c2a81610c15565b82525050565b6000602082019050610c456000830184610c21565b92915050565b610c5481610b9f565b82525050565b6000602082019050610c6f6000830184610c4b565b92915050565b600080600060608486031215610c8e57610c8d610b3c565b5b6000610c9c86828701610b8a565b9350506020610cad86828701610b8a565b9250506040610cbe86828701610bc0565b9150509250925092565b600060ff82169050919050565b610cde81610cc8565b82525050565b6000602082019050610cf96000830184610cd5565b92915050565b600060208284031215610d1557610d14610b3c565b5b6000610d2384828501610b8a565b91505092915050565b60008060408385031215610d4357610d42610b3c565b5b6000610d5185828601610b8a565b9250506020610d6285828601610b8a565b9150509250929050565b7f4e487b7100000000000000000000000000000000000000000000000000000000600052602260045260246000fd5b60006002820490506001821680610db357607f821691505b602082108103610dc657610dc5610d6c565b5b50919050565b7f4e487b7100000000000000000000000000000000000000000000000000000000600052601160045260246000fd5b6000610e0682610b9f565b9150610e1183610b9f565b9250827fffffffffffffffffffffffffffffffffffffffffffffffffffffffffffffffff03821115610e4657610e45610dcc565b5b828201905092915050565b7f45524332303a2064656372656173656420616c6c6f77616e63652062656c6f7760008201527f207a65726f000000000000000000000000000000000000000000000000000000602082015250565b6000610ead602583610a8c565b9150610eb882610e51565b604082019050919050565b60006020820190508181036000830152610edc81610ea0565b9050919050565b7f45524332303a20617070726f76652066726f6d20746865207a65726f2061646460008201527f7265737300000000000000000000000000000000000000000000000000000000602082015250565b6000610f3f602483610a8c565b9150610f4a82610ee3565b604082019050919050565b60006020820190508181036000830152610f6e81610f32565b9050919050565b7f45524332303a20617070726f766520746f20746865207a65726f20616464726560008201527f7373000000000000000000000000000000000000000000000000000000000000602082015250565b6000610fd1602283610a8c565b9150610fdc82610f75565b604082019050919050565b6000602082019050818103600083015261100081610fc4565b9050919050565b7f45524332303a20696e73756666696369656e7420616c6c6f77616e6365000000600082015250565b600061103d601d83610a8c565b915061104882611007565b602082019050919050565b6000602082019050818103600083015261106c81611030565b9050919050565b7f45524332303a207472616e736665722066726f6d20746865207a65726f20616460008201527f6472657373000000000000000000000000000000000000000000000000000000602082015250565b60006110cf602583610a8c565b91506110da82611073565b604082019050919050565b600060208201905081810360008301526110fe816110c2565b9050919050565b7f45524332303a207472616e7366657220746f20746865207a65726f206164647260008201527f6573730000000000000000000000000000000000000000000000000000000000602082015250565b6000611161602383610a8c565b915061116c82611105565b604082019050919050565b6000602082019050818103600083015261119081611154565b9050919050565b7f45524332303a207472616e7366657220616d6f756e742065786365656473206260008201527f616c616e63650000000000000000000000000000000000000000000000000000602082015250565b60006111f3602683610a8c565b91506111fe82611197565b604082019050919050565b60006020820190508181036000830152611222816111e6565b905091905056fea26469706673582212200cd9e90ff63daa5cff14598e1bc11175a44315d0651e805af6407991935148e364736f6c634300080e003360806040523480156200001157600080fd5b506040516200181f3803806200181f8339818101604052810190620000379190620003c8565b6040518060400160405280600a81526020017f506561726c546f6b656e000000000000000000000000000000000000000000008152506040518060400160405280600581526020017f504541524c0000000000000000000000000000000000000000000000000000008152508160039080519060200190620000bb92919062000273565b508060049080519060200190620000d492919062000273565b505050620000e98282620000f160201b60201c565b5050620005b0565b600073ffffffffffffffffffffffffffffffffffffffff168273ffffffffffffffffffffffffffffffffffffffff160362000163576040517f08c379a00000000000000000000000000000000000000000000000000000000081526004016200015a9062000470565b60405180910390fd5b62000177600083836200026960201b60201c565b80600260008282546200018b9190620004c1565b92505081905550806000808473ffffffffffffffffffffffffffffffffffffffff1673ffffffffffffffffffffffffffffffffffffffff1681526020019081526020016000206000828254620001e29190620004c1565b925050819055508173ffffffffffffffffffffffffffffffffffffffff16600073ffffffffffffffffffffffffffffffffffffffff167fddf252ad1be2c89b69c2b068fc378daa952ba7f163c4a11628f55a4df523b3ef836040516200024991906200052f565b60405180910390a362000265600083836200026e60201b60201c565b5050565b505050565b505050565b82805462000281906200057b565b90600052602060002090601f016020900481019282620002a55760008555620002f1565b82601f10620002c057805160ff1916838001178555620002f1565b82800160010185558215620002f1579182015b82811115620002f0578251825591602001919060010190620002d3565b5b50905062000300919062000304565b5090565b5b808211156200031f57600081600090555060010162000305565b5090565b600080fd5b600073ffffffffffffffffffffffffffffffffffffffff82169050919050565b6000620003558262000328565b9050919050565b620003678162000348565b81146200037357600080fd5b50565b60008151905062000387816200035c565b92915050565b6000819050919050565b620003a2816200038d565b8114620003ae57600080fd5b50565b600081519050620003c28162000397565b92915050565b60008060408385031215620003e257620003e162000323565b5b6000620003f28582860162000376565b92505060206200040585828601620003b1565b9150509250929050565b600082825260208201905092915050565b7f45524332303a206d696e7420746f20746865207a65726f206164647265737300600082015250565b600062000458601f836200040f565b9150620004658262000420565b602082019050919050565b600060208201905081810360008301526200048b8162000449565b9050919050565b7f4e487b7100000000000000000000000000000000000000000000000000000000600052601160045260246000fd5b6000620004ce826200038d565b9150620004db836200038d565b9250827fffffffffffffffffffffffffffffffffffffffffffffffffffffffffffffffff0382111562000513576200051262000492565b5b828201905092915050565b62000529816200038d565b82525050565b60006020820190506200054660008301846200051e565b92915050565b7f4e487b7100000000000000000000000000000000000000000000000000000000600052602260045260246000fd5b600060028204905060018216806200059457607f821691505b602082108103620005aa57620005a96200054c565b5b50919050565b61125f80620005c06000396000f3fe608060405234801561001057600080fd5b50600436106100a95760003560e01c80633950935111610071578063395093511461016857806370a082311461019857806395d89b41146101c8578063a457c2d7146101e6578063a9059cbb14610216578063dd62ed3e14610246576100a9565b806306fdde03146100ae578063095ea7b3146100cc57806318160ddd146100fc57806323b872dd1461011a578063313ce5671461014a575b600080fd5b6100b6610276565b6040516100c39190610b1a565b60405180910390f35b6100e660048036038101906100e19190610bd5565b610308565b6040516100f39190610c30565b60405180910390f35b61010461032b565b6040516101119190610c5a565b60405180910390f35b610134600480360381019061012f9190610c75565b610335565b6040516101419190610c30565b60405180910390f35b610152610364565b60405161015f9190610ce4565b60405180910390f35b610182600480360381019061017d9190610bd5565b610369565b60405161018f9190610c30565b60405180910390f35b6101b260048036038101906101ad9190610cff565b6103a0565b6040516101bf9190610c5a565b60405180910390f35b6101d06103e8565b6040516101dd9190610b1a565b60405180910390f35b61020060048036038101906101fb9190610bd5565b61047a565b60405161020d9190610c30565b60405180910390f35b610230600480360381019061022b9190610bd5565b6104f1565b60405161023d9190610c30565b60405180910390f35b610260600480360381019061025b9190610d2c565b610514565b60405161026d9190610c5a565b60405180910390f35b60606003805461028590610d9b565b80601f01602080910402602001604051908101604052809291908181526020018280546102b190610d9b565b80156102fe5780601f106102d3576101008083540402835291602001916102fe565b820191906000526020600020905b8154815290600101906020018083116102e157829003601f168201915b5050505050905090565b60008061031361059b565b90506103208185856105a3565b600191505092915050565b6000600254905090565b60008061034061059b565b905061034d85828561076c565b6103588585856107f8565b60019150509392505050565b600090565b60008061037461059b565b90506103958185856103868589610514565b6103909190610dfb565b6105a3565b600191505092915050565b60008060008373ffffffffffffffffffffffffffffffffffffffff1673ffffffffffffffffffffffffffffffffffffffff168152602001908152602001600020549050919050565b6060600480546103f790610d9b565b80601f016020809104026020016040519081016040528092919081815260200182805461042390610d9b565b80156104705780601f1061044557610100808354040283529160200191610470565b820191906000526020600020905b81548152906001019060200180831161045357829003601f168201915b5050505050905090565b60008061048561059b565b905060006104938286610514565b9050838110156104d8576040517f08c379a00000000000000000000000000000000000000000000000000000000081526004016104cf90610ec3565b60405180910390fd5b6104e582868684036105a3565b60019250505092915050565b6000806104fc61059b565b90506105098185856107f8565b600191505092915050565b6000600160008473ffffffffffffffffffffffffffffffffffffffff1673ffffffffffffffffffffffffffffffffffffffff16815260200190815260200160002060008373ffffffffffffffffffffffffffffffffffffffff1673ffffffffffffffffffffffffffffffffffffffff16815260200190815260200160002054905092915050565b600033905090565b600073ffffffffffffffffffffffffffffffffffffffff168373ffffffffffffffffffffffffffffffffffffffff1603610612576040517f08c379a000000000000000000000000000000000000000000000000000000000815260040161060990610f55565b60405180910390fd5b600073ffffffffffffffffffffffffffffffffffffffff168273ffffffffffffffffffffffffffffffffffffffff1603610681576040517f08c379a000000000000000000000000000000000000000000000000000000000815260040161067890610fe7565b60405180910390fd5b80600160008573ffffffffffffffffffffffffffffffffffffffff1673ffffffffffffffffffffffffffffffffffffffff16815260200190815260200160002060008473ffffffffffffffffffffffffffffffffffffffff1673ffffffffffffffffffffffffffffffffffffffff168152602001908152602001600020819055508173ffffffffffffffffffffffffffffffffffffffff168373ffffffffffffffffffffffffffffffffffffffff167f8c5be1e5ebec7d5bd14f71427d1e84f3dd0314c0f7b2291e5b200ac8c7c3b9258360405161075f9190610c5a565b60405180910390a3505050565b60006107788484610514565b90507fffffffffffffffffffffffffffffffffffffffffffffffffffffffffffffffff81146107f257818110156107e4576040517f08c379a00000000000000000000000000000000000000000000000000000000081526004016107db90611053565b60405180910390fd5b6107f184848484036105a3565b5b50505050565b600073ffffffffffffffffffffffffffffffffffffffff168373ffffffffffffffffffffffffffffffffffffffff1603610867576040517f08c379a000000000000000000000000000000000000000000000000000000000815260040161085e906110e5565b60405180910390fd5b600073ffffffffffffffffffffffffffffffffffffffff168273ffffffffffffffffffffffffffffffffffffffff16036108d6576040517f08c379a00000000000000000000000000000000000000000000000000000000081526004016108cd90611177565b60405180910390fd5b6108e1838383610a77565b60008060008573ffffffffffffffffffffffffffffffffffffffff1673ffffffffffffffffffffffffffffffffffffffff16815260200190815260200160002054905081811015610967576040517f08c379a000000000000000000000000000000000000000000000000000000000815260040161095e90611209565b60405180910390fd5b8181036000808673ffffffffffffffffffffffffffffffffffffffff1673ffffffffffffffffffffffffffffffffffffffff16815260200190815260200160002081905550816000808573ffffffffffffffffffffffffffffffffffffffff1673ffffffffffffffffffffffffffffffffffffffff16815260200190815260200160002060008282546109fa9190610dfb565b925050819055508273ffffffffffffffffffffffffffffffffffffffff168473ffffffffffffffffffffffffffffffffffffffff167fddf252ad1be2c89b69c2b068fc378daa952ba7f163c4a11628f55a4df523b3ef84604051610a5e9190610c5a565b60405180910390a3610a71848484610a7c565b50505050565b505050565b505050565b600081519050919050565b600082825260208201905092915050565b60005b83811015610abb578082015181840152602081019050610aa0565b83811115610aca576000848401525b50505050565b6000601f19601f8301169050919050565b6000610aec82610a81565b610af68185610a8c565b9350610b06818560208601610a9d565b610b0f81610ad0565b840191505092915050565b60006020820190508181036000830152610b348184610ae1565b905092915050565b600080fd5b600073ffffffffffffffffffffffffffffffffffffffff82169050919050565b6000610b6c82610b41565b9050919050565b610b7c81610b61565b8114610b8757600080fd5b50565b600081359050610b9981610b73565b92915050565b6000819050919050565b610bb281610b9f565b8114610bbd57600080fd5b50565b600081359050610bcf81610ba9565b92915050565b60008060408385031215610bec57610beb610b3c565b5b6000610bfa85828601610b8a565b9250506020610c0b85828601610bc0565b9150509250929050565b60008115159050919050565b610c2a81610c15565b82525050565b6000602082019050610c456000830184610c21565b92915050565b610c5481610b9f565b82525050565b6000602082019050610c6f6000830184610c4b565b92915050565b600080600060608486031215610c8e57610c8d610b3c565b5b6000610c9c86828701610b8a565b9350506020610cad86828701610b8a565b9250506040610cbe86828701610bc0565b9150509250925092565b600060ff82169050919050565b610cde81610cc8565b82525050565b6000602082019050610cf96000830184610cd5565b92915050565b600060208284031215610d1557610d14610b3c565b5b6000610d2384828501610b8a565b91505092915050565b60008060408385031215610d4357610d42610b3c565b5b6000610d5185828601610b8a565b9250506020610d6285828601610b8a565b9150509250929050565b7f4e487b7100000000000000000000000000000000000000000000000000000000600052602260045260246000fd5b60006002820490506001821680610db357607f821691505b602082108103610dc657610dc5610d6c565b5b50919050565b7f4e487b7100000000000000000000000000000000000000000000000000000000600052601160045260246000fd5b6000610e0682610b9f565b9150610e1183610b9f565b9250827fffffffffffffffffffffffffffffffffffffffffffffffffffffffffffffffff03821115610e4657610e45610dcc565b5b828201905092915050565b7f45524332303a2064656372656173656420616c6c6f77616e63652062656c6f7760008201527f207a65726f000000000000000000000000000000000000000000000000000000602082015250565b6000610ead602583610a8c565b9150610eb882610e51565b604082019050919050565b60006020820190508181036000830152610edc81610ea0565b9050919050565b7f45524332303a20617070726f76652066726f6d20746865207a65726f2061646460008201527f7265737300000000000000000000000000000000000000000000000000000000602082015250565b6000610f3f602483610a8c565b9150610f4a82610ee3565b604082019050919050565b60006020820190508181036000830152610f6e81610f32565b9050919050565b7f45524332303a20617070726f766520746f20746865207a65726f20616464726560008201527f7373000000000000000000000000000000000000000000000000000000000000602082015250565b6000610fd1602283610a8c565b9150610fdc82610f75565b604082019050919050565b6000602082019050818103600083015261100081610fc4565b9050919050565b7f45524332303a20696e73756666696369656e7420616c6c6f77616e6365000000600082015250565b600061103d601d83610a8c565b915061104882611007565b602082019050919050565b6000602082019050818103600083015261106c81611030565b9050919050565b7f45524332303a207472616e736665722066726f6d20746865207a65726f20616460008201527f6472657373000000000000000000000000000000000000000000000000000000602082015250565b60006110cf602583610a8c565b91506110da82611073565b604082019050919050565b600060208201905081810360008301526110fe816110c2565b9050919050565b7f45524332303a207472616e7366657220746f20746865207a65726f206164647260008201527f6573730000000000000000000000000000000000000000000000000000000000602082015250565b6000611161602383610a8c565b915061116c82611105565b604082019050919050565b6000602082019050818103600083015261119081611154565b9050919050565b7f45524332303a207472616e7366657220616d6f756e742065786365656473206260008201527f616c616e63650000000000000000000000000000000000000000000000000000602082015250565b60006111f3602683610a8c565b91506111fe82611197565b604082019050919050565b60006020820190508181036000830152611222816111e6565b905091905056fea2646970667358221220b50c223cbbfb94176364c1a8bf2a8b5714229e9014f54959e34b2f72a9b5e34164736f6c634300080e003360806040523480156200001157600080fd5b506040516200181f3803806200181f8339818101604052810190620000379190620003c8565b6040518060400160405280600981526020017f4d696c6b546f6b656e00000000000000000000000000000000000000000000008152506040518060400160405280600481526020017f4d494c4b000000000000000000000000000000000000000000000000000000008152508160039080519060200190620000bb92919062000273565b508060049080519060200190620000d492919062000273565b505050620000e98282620000f160201b60201c565b5050620005b0565b600073ffffffffffffffffffffffffffffffffffffffff168273ffffffffffffffffffffffffffffffffffffffff160362000163576040517f08c379a00000000000000000000000000000000000000000000000000000000081526004016200015a9062000470565b60405180910390fd5b62000177600083836200026960201b60201c565b80600260008282546200018b9190620004c1565b92505081905550806000808473ffffffffffffffffffffffffffffffffffffffff1673ffffffffffffffffffffffffffffffffffffffff1681526020019081526020016000206000828254620001e29190620004c1565b925050819055508173ffffffffffffffffffffffffffffffffffffffff16600073ffffffffffffffffffffffffffffffffffffffff167fddf252ad1be2c89b69c2b068fc378daa952ba7f163c4a11628f55a4df523b3ef836040516200024991906200052f565b60405180910390a362000265600083836200026e60201b60201c565b5050565b505050565b505050565b82805462000281906200057b565b90600052602060002090601f016020900481019282620002a55760008555620002f1565b82601f10620002c057805160ff1916838001178555620002f1565b82800160010185558215620002f1579182015b82811115620002f0578251825591602001919060010190620002d3565b5b50905062000300919062000304565b5090565b5b808211156200031f57600081600090555060010162000305565b5090565b600080fd5b600073ffffffffffffffffffffffffffffffffffffffff82169050919050565b6000620003558262000328565b9050919050565b620003678162000348565b81146200037357600080fd5b50565b60008151905062000387816200035c565b92915050565b6000819050919050565b620003a2816200038d565b8114620003ae57600080fd5b50565b600081519050620003c28162000397565b92915050565b60008060408385031215620003e257620003e162000323565b5b6000620003f28582860162000376565b92505060206200040585828601620003b1565b9150509250929050565b600082825260208201905092915050565b7f45524332303a206d696e7420746f20746865207a65726f206164647265737300600082015250565b600062000458601f836200040f565b9150620004658262000420565b602082019050919050565b600060208201905081810360008301526200048b8162000449565b9050919050565b7f4e487b7100000000000000000000000000000000000000000000000000000000600052601160045260246000fd5b6000620004ce826200038d565b9150620004db836200038d565b9250827fffffffffffffffffffffffffffffffffffffffffffffffffffffffffffffffff0382111562000513576200051262000492565b5b828201905092915050565b62000529816200038d565b82525050565b60006020820190506200054660008301846200051e565b92915050565b7f4e487b7100000000000000000000000000000000000000000000000000000000600052602260045260246000fd5b600060028204905060018216806200059457607f821691505b602082108103620005aa57620005a96200054c565b5b50919050565b61125f80620005c06000396000f3fe608060405234801561001057600080fd5b50600436106100a95760003560e01c80633950935111610071578063395093511461016857806370a082311461019857806395d89b41146101c8578063a457c2d7146101e6578063a9059cbb14610216578063dd62ed3e14610246576100a9565b806306fdde03146100ae578063095ea7b3146100cc57806318160ddd146100fc57806323b872dd1461011a578063313ce5671461014a575b600080fd5b6100b6610276565b6040516100c39190610b1a565b60405180910390f35b6100e660048036038101906100e19190610bd5565b610308565b6040516100f39190610c30565b60405180910390f35b61010461032b565b6040516101119190610c5a565b60405180910390f35b610134600480360381019061012f9190610c75565b610335565b6040516101419190610c30565b60405180910390f35b610152610364565b60405161015f9190610ce4565b60405180910390f35b610182600480360381019061017d9190610bd5565b610369565b60405161018f9190610c30565b60405180910390f35b6101b260048036038101906101ad9190610cff565b6103a0565b6040516101bf9190610c5a565b60405180910390f35b6101d06103e8565b6040516101dd9190610b1a565b60405180910390f35b61020060048036038101906101fb9190610bd5565b61047a565b60405161020d9190610c30565b60405180910390f35b610230600480360381019061022b9190610bd5565b6104f1565b60405161023d9190610c30565b60405180910390f35b610260600480360381019061025b9190610d2c565b610514565b60405161026d9190610c5a565b60405180910390f35b60606003805461028590610d9b565b80601f01602080910402602001604051908101604052809291908181526020018280546102b190610d9b565b80156102fe5780601f106102d3576101008083540402835291602001916102fe565b820191906000526020600020905b8154815290600101906020018083116102e157829003601f168201915b5050505050905090565b60008061031361059b565b90506103208185856105a3565b600191505092915050565b6000600254905090565b60008061034061059b565b905061034d85828561076c565b6103588585856107f8565b60019150509392505050565b600090565b60008061037461059b565b90506103958185856103868589610514565b6103909190610dfb565b6105a3565b600191505092915050565b60008060008373ffffffffffffffffffffffffffffffffffffffff1673ffffffffffffffffffffffffffffffffffffffff168152602001908152602001600020549050919050565b6060600480546103f790610d9b565b80601f016020809104026020016040519081016040528092919081815260200182805461042390610d9b565b80156104705780601f1061044557610100808354040283529160200191610470565b820191906000526020600020905b81548152906001019060200180831161045357829003601f168201915b5050505050905090565b60008061048561059b565b905060006104938286610514565b9050838110156104d8576040517f08c379a00000000000000000000000000000000000000000000000000000000081526004016104cf90610ec3565b60405180910390fd5b6104e582868684036105a3565b60019250505092915050565b6000806104fc61059b565b90506105098185856107f8565b600191505092915050565b6000600160008473ffffffffffffffffffffffffffffffffffffffff1673ffffffffffffffffffffffffffffffffffffffff16815260200190815260200160002060008373ffffffffffffffffffffffffffffffffffffffff1673ffffffffffffffffffffffffffffffffffffffff16815260200190815260200160002054905092915050565b600033905090565b600073ffffffffffffffffffffffffffffffffffffffff168373ffffffffffffffffffffffffffffffffffffffff1603610612576040517f08c379a000000000000000000000000000000000000000000000000000000000815260040161060990610f55565b60405180910390fd5b600073ffffffffffffffffffffffffffffffffffffffff168273ffffffffffffffffffffffffffffffffffffffff1603610681576040517f08c379a000000000000000000000000000000000000000000000000000000000815260040161067890610fe7565b60405180910390fd5b80600160008573ffffffffffffffffffffffffffffffffffffffff1673ffffffffffffffffffffffffffffffffffffffff16815260200190815260200160002060008473ffffffffffffffffffffffffffffffffffffffff1673ffffffffffffffffffffffffffffffffffffffff168152602001908152602001600020819055508173ffffffffffffffffffffffffffffffffffffffff168373ffffffffffffffffffffffffffffffffffffffff167f8c5be1e5ebec7d5bd14f71427d1e84f3dd0314c0f7b2291e5b200ac8c7c3b9258360405161075f9190610c5a565b60405180910390a3505050565b60006107788484610514565b90507fffffffffffffffffffffffffffffffffffffffffffffffffffffffffffffffff81146107f257818110156107e4576040517f08c379a00000000000000000000000000000000000000000000000000000000081526004016107db90611053565b60405180910390fd5b6107f184848484036105a3565b5b50505050565b600073ffffffffffffffffffffffffffffffffffffffff168373ffffffffffffffffffffffffffffffffffffffff1603610867576040517f08c379a000000000000000000000000000000000000000000000000000000000815260040161085e906110e5565b60405180910390fd5b600073ffffffffffffffffffffffffffffffffffffffff168273ffffffffffffffffffffffffffffffffffffffff16036108d6576040517f08c379a00000000000000000000000000000000000000000000000000000000081526004016108cd90611177565b60405180910390fd5b6108e1838383610a77565b60008060008573ffffffffffffffffffffffffffffffffffffffff1673ffffffffffffffffffffffffffffffffffffffff16815260200190815260200160002054905081811015610967576040517f08c379a000000000000000000000000000000000000000000000000000000000815260040161095e90611209565b60405180910390fd5b8181036000808673ffffffffffffffffffffffffffffffffffffffff1673ffffffffffffffffffffffffffffffffffffffff16815260200190815260200160002081905550816000808573ffffffffffffffffffffffffffffffffffffffff1673ffffffffffffffffffffffffffffffffffffffff16815260200190815260200160002060008282546109fa9190610dfb565b925050819055508273ffffffffffffffffffffffffffffffffffffffff168473ffffffffffffffffffffffffffffffffffffffff167fddf252ad1be2c89b69c2b068fc378daa952ba7f163c4a11628f55a4df523b3ef84604051610a5e9190610c5a565b60405180910390a3610a71848484610a7c565b50505050565b505050565b505050565b600081519050919050565b600082825260208201905092915050565b60005b83811015610abb578082015181840152602081019050610aa0565b83811115610aca576000848401525b50505050565b6000601f19601f8301169050919050565b6000610aec82610a81565b610af68185610a8c565b9350610b06818560208601610a9d565b610b0f81610ad0565b840191505092915050565b60006020820190508181036000830152610b348184610ae1565b905092915050565b600080fd5b600073ffffffffffffffffffffffffffffffffffffffff82169050919050565b6000610b6c82610b41565b9050919050565b610b7c81610b61565b8114610b8757600080fd5b50565b600081359050610b9981610b73565b92915050565b6000819050919050565b610bb281610b9f565b8114610bbd57600080fd5b50565b600081359050610bcf81610ba9565b92915050565b60008060408385031215610bec57610beb610b3c565b5b6000610bfa85828601610b8a565b9250506020610c0b85828601610bc0565b9150509250929050565b60008115159050919050565b610c2a81610c15565b82525050565b6000602082019050610c456000830184610c21565b92915050565b610c5481610b9f565b82525050565b6000602082019050610c6f6000830184610c4b565b92915050565b600080600060608486031215610c8e57610c8d610b3c565b5b6000610c9c86828701610b8a565b9350506020610cad86828701610b8a565b9250506040610cbe86828701610bc0565b9150509250925092565b600060ff82169050919050565b610cde81610cc8565b82525050565b6000602082019050610cf96000830184610cd5565b92915050565b600060208284031215610d1557610d14610b3c565b5b6000610d2384828501610b8a565b91505092915050565b60008060408385031215610d4357610d42610b3c565b5b6000610d5185828601610b8a565b9250506020610d6285828601610b8a565b9150509250929050565b7f4e487b7100000000000000000000000000000000000000000000000000000000600052602260045260246000fd5b60006002820490506001821680610db357607f821691505b602082108103610dc657610dc5610d6c565b5b50919050565b7f4e487b7100000000000000000000000000000000000000000000000000000000600052601160045260246000fd5b6000610e0682610b9f565b9150610e1183610b9f565b9250827fffffffffffffffffffffffffffffffffffffffffffffffffffffffffffffffff03821115610e4657610e45610dcc565b5b828201905092915050565b7f45524332303a2064656372656173656420616c6c6f77616e63652062656c6f7760008201527f207a65726f000000000000000000000000000000000000000000000000000000602082015250565b6000610ead602583610a8c565b9150610eb882610e51565b604082019050919050565b60006020820190508181036000830152610edc81610ea0565b9050919050565b7f45524332303a20617070726f76652066726f6d20746865207a65726f2061646460008201527f7265737300000000000000000000000000000000000000000000000000000000602082015250565b6000610f3f602483610a8c565b9150610f4a82610ee3565b604082019050919050565b60006020820190508181036000830152610f6e81610f32565b9050919050565b7f45524332303a20617070726f766520746f20746865207a65726f20616464726560008201527f7373000000000000000000000000000000000000000000000000000000000000602082015250565b6000610fd1602283610a8c565b9150610fdc82610f75565b604082019050919050565b6000602082019050818103600083015261100081610fc4565b9050919050565b7f45524332303a20696e73756666696369656e7420616c6c6f77616e6365000000600082015250565b600061103d601d83610a8c565b915061104882611007565b602082019050919050565b6000602082019050818103600083015261106c81611030565b9050919050565b7f45524332303a207472616e736665722066726f6d20746865207a65726f20616460008201527f6472657373000000000000000000000000000000000000000000000000000000602082015250565b60006110cf602583610a8c565b91506110da82611073565b604082019050919050565b600060208201905081810360008301526110fe816110c2565b9050919050565b7f45524332303a207472616e7366657220746f20746865207a65726f206164647260008201527f6573730000000000000000000000000000000000000000000000000000000000602082015250565b6000611161602383610a8c565b915061116c82611105565b604082019050919050565b6000602082019050818103600083015261119081611154565b9050919050565b7f45524332303a207472616e7366657220616d6f756e742065786365656473206260008201527f616c616e63650000000000000000000000000000000000000000000000000000602082015250565b60006111f3602683610a8c565b91506111fe82611197565b604082019050919050565b60006020820190508181036000830152611222816111e6565b905091905056fea26469706673582212209e111f7eab3278aecdfa47c0e6ab4bba4f0692f11bf858a0b4e0bf250278a48164736f6c634300080e0033a264697066735822122089ab924eb5efaeb82c91ad998a081af178f70fae9e8ad52125eb2e3fcfa585be64736f6c634300080e0033",
  "immutableReferences": {},
  "source": "pragma solidity ^0.8.7;\r\n\r\nimport \"./MilkToken.sol\";\r\nimport \"./TeaToken.sol\";\r\nimport \"./PearlToken.sol\";\r\n\r\ncontract TokenFactory {\r\n    event MilkTokenCreated(address contractAddress);\r\n    event TeaTokenCreated(address contractAddress);\r\n    event PearlTokenCreated(address contractAddress);\r\n\r\n    MilkToken[] private milkTokenArray;\r\n    TeaToken[] private teaTokenArray;\r\n    PearlToken[] private pearlTokenArray;\r\n\r\n    function createNewMilkToken(address user, uint256 initialSupply) public returns (address) {\r\n        MilkToken milkToken = new MilkToken(user, initialSupply);\r\n        milkTokenArray.push(milkToken);\r\n        emit MilkTokenCreated(address(milkToken));\r\n        return address(milkToken);\r\n    }\r\n\r\n    function createNewTeaToken(address user, uint256 initialSupply) public returns (address) {\r\n        TeaToken teaToken = new TeaToken(user, initialSupply);\r\n        teaTokenArray.push(teaToken);\r\n        emit TeaTokenCreated(address(teaToken));\r\n        return address(teaToken);\r\n    }\r\n\r\n    function createNewPearlToken(address user, uint256 initialSupply) public returns (address) {\r\n        PearlToken pearlToken = new PearlToken(user, initialSupply);\r\n        pearlTokenArray.push(pearlToken);\r\n        emit PearlTokenCreated(address(pearlToken));\r\n        return address(pearlToken);\r\n    }\r\n\r\n    function getRecentMilkTokenAddress() public view returns (address) {\r\n        return address(milkTokenArray[milkTokenArray.length - 1]);\r\n    }\r\n\r\n    function getAllMilkTokenAddress() public view returns (address[] memory) {\r\n        address[] memory result = new address[](milkTokenArray.length);\r\n        for (uint i = 0; i <= milkTokenArray.length - 1; i++) {\r\n            result[i] = address(milkTokenArray[i]);\r\n        }\r\n        return result;\r\n    }\r\n\r\n    function getRecentTeaTokenAddress() public view returns (address) {\r\n        return address(teaTokenArray[teaTokenArray.length - 1]);\r\n    }\r\n\r\n    function getAllTeaTokenAddress() public view returns (address[] memory) {\r\n        address[] memory result = new address[](teaTokenArray.length);\r\n        for (uint i = 0; i <= teaTokenArray.length - 1; i++) {\r\n            result[i] = address(teaTokenArray[i]);\r\n        }\r\n        return result;\r\n    }\r\n\r\n    function getRecentPearlTokenAddress() public view returns (address) {\r\n        return address(pearlTokenArray[pearlTokenArray.length - 1]);\r\n    }\r\n\r\n    function getAllPearlTokenAddress() public view returns (address[] memory) {\r\n        address[] memory result = new address[](pearlTokenArray.length);\r\n        for (uint i = 0; i <= pearlTokenArray.length - 1; i++) {\r\n            result[i] = address(pearlTokenArray[i]);\r\n        }\r\n        return result;\r\n    }\r\n}",
  "sourcePath": "C:\\Users\\zheru\\OneDrive\\blockchain\\LPFarmApp\\contracts\\TokenFactory.sol",
  "compiler": {
    "name": "solc",
    "version": "0.8.14+commit.80d49f37.Emscripten.clang"
  },
  "schemaVersion": "3.4.7",
  "updatedAt": "2022-06-20T13:21:15.974Z",
  "networkType": "ethereum",
  "devdoc": {
    "kind": "dev",
    "methods": {},
    "version": 1
  },
  "userdoc": {
    "kind": "user",
    "methods": {},
    "version": 1
  }
}