{
  "contractName": "TokenFactory2",
  "abi": [
    {
      "anonymous": false,
      "inputs": [
        {
          "indexed": false,
          "internalType": "address",
          "name": "contractAddress",
          "type": "address"
        }
      ],
      "name": "MilkToken2Created",
      "type": "event"
    },
    {
      "anonymous": false,
      "inputs": [
        {
          "indexed": false,
          "internalType": "address",
          "name": "contractAddress",
          "type": "address"
        }
      ],
      "name": "PearlToken2Created",
      "type": "event"
    },
    {
      "anonymous": false,
      "inputs": [
        {
          "indexed": false,
          "internalType": "address",
          "name": "contractAddress",
          "type": "address"
        }
      ],
      "name": "TeaToken2Created",
      "type": "event"
    },
    {
      "inputs": [
        {
          "internalType": "uint256",
          "name": "initialSupply",
          "type": "uint256"
        }
      ],
      "name": "createNewMilkToken2",
      "outputs": [
        {
          "internalType": "address",
          "name": "",
          "type": "address"
        }
      ],
      "stateMutability": "nonpayable",
      "type": "function"
    },
    {
      "inputs": [
        {
          "internalType": "uint256",
          "name": "initialSupply",
          "type": "uint256"
        }
      ],
      "name": "createNewTeaToken2",
      "outputs": [
        {
          "internalType": "address",
          "name": "",
          "type": "address"
        }
      ],
      "stateMutability": "nonpayable",
      "type": "function"
    },
    {
      "inputs": [
        {
          "internalType": "uint256",
          "name": "initialSupply",
          "type": "uint256"
        }
      ],
      "name": "createNewPearlToken2",
      "outputs": [
        {
          "internalType": "address",
          "name": "",
          "type": "address"
        }
      ],
      "stateMutability": "nonpayable",
      "type": "function"
    },
    {
      "inputs": [],
      "name": "getRecentMilkToken2Address",
      "outputs": [
        {
          "internalType": "address",
          "name": "",
          "type": "address"
        }
      ],
      "stateMutability": "view",
      "type": "function",
      "constant": true
    },
    {
      "inputs": [],
      "name": "getAllMilkToken2Address",
      "outputs": [
        {
          "internalType": "address[]",
          "name": "",
          "type": "address[]"
        }
      ],
      "stateMutability": "view",
      "type": "function",
      "constant": true
    },
    {
      "inputs": [],
      "name": "getRecentTeaToken2Address",
      "outputs": [
        {
          "internalType": "address",
          "name": "",
          "type": "address"
        }
      ],
      "stateMutability": "view",
      "type": "function",
      "constant": true
    },
    {
      "inputs": [],
      "name": "getAllTeaToken2Address",
      "outputs": [
        {
          "internalType": "address[]",
          "name": "",
          "type": "address[]"
        }
      ],
      "stateMutability": "view",
      "type": "function",
      "constant": true
    },
    {
      "inputs": [],
      "name": "getRecentPearlToken2Address",
      "outputs": [
        {
          "internalType": "address",
          "name": "",
          "type": "address"
        }
      ],
      "stateMutability": "view",
      "type": "function",
      "constant": true
    },
    {
      "inputs": [],
      "name": "getAllPearlToken2Address",
      "outputs": [
        {
          "internalType": "address[]",
          "name": "",
          "type": "address[]"
        }
      ],
      "stateMutability": "view",
      "type": "function",
      "constant": true
    }
  ],
  "bytecode": "0x608060405234801561001057600080fd5b50615392806100206000396000f3fe60806040523480156200001157600080fd5b5060043610620000a05760003560e01c806350a10524116200006f57806350a10524146200012d5780635d83827714620001635780636ea18e2c1462000199578063a71aa47714620001bb578063e77fa60e14620001f157620000a0565b80630a377a7714620000a55780632604054514620000c75780633b5c112214620000e95780634fa6b7e2146200010b575b600080fd5b620000af62000213565b604051620000be9190620009ac565b60405180910390f35b620000d16200026d565b604051620000e09190620009ac565b60405180910390f35b620000f3620002c8565b604051620001029190620009ac565b60405180910390f35b6200011562000324565b60405162000124919062000a97565b60405180910390f35b6200014b600480360381019062000145919062000afb565b6200044a565b6040516200015a9190620009ac565b60405180910390f35b6200018160048036038101906200017b919062000afb565b6200052d565b604051620001909190620009ac565b60405180910390f35b620001a362000610565b604051620001b2919062000a97565b60405180910390f35b620001d96004803603810190620001d3919062000afb565b62000735565b604051620001e89190620009ac565b60405180910390f35b620001fb62000818565b6040516200020a919062000a97565b60405180910390f35b6000600180808054905062000229919062000b5c565b815481106200023d576200023c62000b97565b5b9060005260206000200160009054906101000a900473ffffffffffffffffffffffffffffffffffffffff16905090565b600080600160008054905062000284919062000b5c565b8154811062000298576200029762000b97565b5b9060005260206000200160009054906101000a900473ffffffffffffffffffffffffffffffffffffffff16905090565b600060026001600280549050620002e0919062000b5c565b81548110620002f457620002f362000b97565b5b9060005260206000200160009054906101000a900473ffffffffffffffffffffffffffffffffffffffff16905090565b6060600060028054905067ffffffffffffffff8111156200034a576200034962000bc6565b5b604051908082528060200260200182016040528015620003795781602001602082028036833780820191505090505b50905060005b600160028054905062000393919062000b5c565b8111620004425760028181548110620003b157620003b062000b97565b5b9060005260206000200160009054906101000a900473ffffffffffffffffffffffffffffffffffffffff16828281518110620003f257620003f162000b97565b5b602002602001019073ffffffffffffffffffffffffffffffffffffffff16908173ffffffffffffffffffffffffffffffffffffffff16815250508080620004399062000bf5565b9150506200037f565b508091505090565b600080826040516200045c906200093d565b62000468919062000c53565b604051809103906000f08015801562000485573d6000803e3d6000fd5b5090506001819080600181540180825580915050600190039060005260206000200160009091909190916101000a81548173ffffffffffffffffffffffffffffffffffffffff021916908373ffffffffffffffffffffffffffffffffffffffff1602179055507f2b4a8a25c5d5c0e886c1f5dd7198d0e5dee408c4fdfddac1d1f06ca52a3cc3fe816040516200051c9190620009ac565b60405180910390a180915050919050565b600080826040516200053f906200094b565b6200054b919062000c53565b604051809103906000f08015801562000568573d6000803e3d6000fd5b5090506002819080600181540180825580915050600190039060005260206000200160009091909190916101000a81548173ffffffffffffffffffffffffffffffffffffffff021916908373ffffffffffffffffffffffffffffffffffffffff1602179055507f1f9827d103bc6922db23a1b3da0e1f3840c70f72dbc91ca3726519201683e84381604051620005ff9190620009ac565b60405180910390a180915050919050565b60606000808054905067ffffffffffffffff81111562000635576200063462000bc6565b5b604051908082528060200260200182016040528015620006645781602001602082028036833780820191505090505b50905060005b60016000805490506200067e919062000b5c565b81116200072d57600081815481106200069c576200069b62000b97565b5b9060005260206000200160009054906101000a900473ffffffffffffffffffffffffffffffffffffffff16828281518110620006dd57620006dc62000b97565b5b602002602001019073ffffffffffffffffffffffffffffffffffffffff16908173ffffffffffffffffffffffffffffffffffffffff16815250508080620007249062000bf5565b9150506200066a565b508091505090565b60008082604051620007479062000959565b62000753919062000c53565b604051809103906000f08015801562000770573d6000803e3d6000fd5b5090506000819080600181540180825580915050600190039060005260206000200160009091909190916101000a81548173ffffffffffffffffffffffffffffffffffffffff021916908373ffffffffffffffffffffffffffffffffffffffff1602179055507fb7fcdc13378b46f7a2ed519fc2941c784d9cf5838a5d47e9ecb4ee6e088516b181604051620008079190620009ac565b60405180910390a180915050919050565b6060600060018054905067ffffffffffffffff8111156200083e576200083d62000bc6565b5b6040519080825280602002602001820160405280156200086d5781602001602082028036833780820191505090505b50905060005b6001808054905062000886919062000b5c565b8111620009355760018181548110620008a457620008a362000b97565b5b9060005260206000200160009054906101000a900473ffffffffffffffffffffffffffffffffffffffff16828281518110620008e557620008e462000b97565b5b602002602001019073ffffffffffffffffffffffffffffffffffffffff16908173ffffffffffffffffffffffffffffffffffffffff168152505080806200092c9062000bf5565b91505062000873565b508091505090565b6117a48062000c7183390190565b6117a4806200241583390190565b6117a48062003bb983390190565b600073ffffffffffffffffffffffffffffffffffffffff82169050919050565b6000620009948262000967565b9050919050565b620009a68162000987565b82525050565b6000602082019050620009c360008301846200099b565b92915050565b600081519050919050565b600082825260208201905092915050565b6000819050602082019050919050565b62000a008162000987565b82525050565b600062000a148383620009f5565b60208301905092915050565b6000602082019050919050565b600062000a3a82620009c9565b62000a468185620009d4565b935062000a5383620009e5565b8060005b8381101562000a8a57815162000a6e888262000a06565b975062000a7b8362000a20565b92505060018101905062000a57565b5085935050505092915050565b6000602082019050818103600083015262000ab3818462000a2d565b905092915050565b600080fd5b6000819050919050565b62000ad58162000ac0565b811462000ae157600080fd5b50565b60008135905062000af58162000aca565b92915050565b60006020828403121562000b145762000b1362000abb565b5b600062000b248482850162000ae4565b91505092915050565b7f4e487b7100000000000000000000000000000000000000000000000000000000600052601160045260246000fd5b600062000b698262000ac0565b915062000b768362000ac0565b92508282101562000b8c5762000b8b62000b2d565b5b828203905092915050565b7f4e487b7100000000000000000000000000000000000000000000000000000000600052603260045260246000fd5b7f4e487b7100000000000000000000000000000000000000000000000000000000600052604160045260246000fd5b600062000c028262000ac0565b91507fffffffffffffffffffffffffffffffffffffffffffffffffffffffffffffffff820362000c375762000c3662000b2d565b5b600182019050919050565b62000c4d8162000ac0565b82525050565b600060208201905062000c6a600083018462000c42565b9291505056fe60806040523480156200001157600080fd5b50604051620017a4380380620017a4833981810160405281019062000037919062000362565b6040518060400160405280600981526020017f546561546f6b656e3200000000000000000000000000000000000000000000008152506040518060400160405280600481526020017f54454132000000000000000000000000000000000000000000000000000000008152508160039080519060200190620000bb92919062000272565b508060049080519060200190620000d492919062000272565b505050620000e93382620000f060201b60201c565b5062000535565b600073ffffffffffffffffffffffffffffffffffffffff168273ffffffffffffffffffffffffffffffffffffffff160362000162576040517f08c379a00000000000000000000000000000000000000000000000000000000081526004016200015990620003f5565b60405180910390fd5b62000176600083836200026860201b60201c565b80600260008282546200018a919062000446565b92505081905550806000808473ffffffffffffffffffffffffffffffffffffffff1673ffffffffffffffffffffffffffffffffffffffff1681526020019081526020016000206000828254620001e1919062000446565b925050819055508173ffffffffffffffffffffffffffffffffffffffff16600073ffffffffffffffffffffffffffffffffffffffff167fddf252ad1be2c89b69c2b068fc378daa952ba7f163c4a11628f55a4df523b3ef83604051620002489190620004b4565b60405180910390a362000264600083836200026d60201b60201c565b5050565b505050565b505050565b828054620002809062000500565b90600052602060002090601f016020900481019282620002a45760008555620002f0565b82601f10620002bf57805160ff1916838001178555620002f0565b82800160010185558215620002f0579182015b82811115620002ef578251825591602001919060010190620002d2565b5b509050620002ff919062000303565b5090565b5b808211156200031e57600081600090555060010162000304565b5090565b600080fd5b6000819050919050565b6200033c8162000327565b81146200034857600080fd5b50565b6000815190506200035c8162000331565b92915050565b6000602082840312156200037b576200037a62000322565b5b60006200038b848285016200034b565b91505092915050565b600082825260208201905092915050565b7f45524332303a206d696e7420746f20746865207a65726f206164647265737300600082015250565b6000620003dd601f8362000394565b9150620003ea82620003a5565b602082019050919050565b600060208201905081810360008301526200041081620003ce565b9050919050565b7f4e487b7100000000000000000000000000000000000000000000000000000000600052601160045260246000fd5b6000620004538262000327565b9150620004608362000327565b9250827fffffffffffffffffffffffffffffffffffffffffffffffffffffffffffffffff0382111562000498576200049762000417565b5b828201905092915050565b620004ae8162000327565b82525050565b6000602082019050620004cb6000830184620004a3565b92915050565b7f4e487b7100000000000000000000000000000000000000000000000000000000600052602260045260246000fd5b600060028204905060018216806200051957607f821691505b6020821081036200052f576200052e620004d1565b5b50919050565b61125f80620005456000396000f3fe608060405234801561001057600080fd5b50600436106100a95760003560e01c80633950935111610071578063395093511461016857806370a082311461019857806395d89b41146101c8578063a457c2d7146101e6578063a9059cbb14610216578063dd62ed3e14610246576100a9565b806306fdde03146100ae578063095ea7b3146100cc57806318160ddd146100fc57806323b872dd1461011a578063313ce5671461014a575b600080fd5b6100b6610276565b6040516100c39190610b1a565b60405180910390f35b6100e660048036038101906100e19190610bd5565b610308565b6040516100f39190610c30565b60405180910390f35b61010461032b565b6040516101119190610c5a565b60405180910390f35b610134600480360381019061012f9190610c75565b610335565b6040516101419190610c30565b60405180910390f35b610152610364565b60405161015f9190610ce4565b60405180910390f35b610182600480360381019061017d9190610bd5565b610369565b60405161018f9190610c30565b60405180910390f35b6101b260048036038101906101ad9190610cff565b6103a0565b6040516101bf9190610c5a565b60405180910390f35b6101d06103e8565b6040516101dd9190610b1a565b60405180910390f35b61020060048036038101906101fb9190610bd5565b61047a565b60405161020d9190610c30565b60405180910390f35b610230600480360381019061022b9190610bd5565b6104f1565b60405161023d9190610c30565b60405180910390f35b610260600480360381019061025b9190610d2c565b610514565b60405161026d9190610c5a565b60405180910390f35b60606003805461028590610d9b565b80601f01602080910402602001604051908101604052809291908181526020018280546102b190610d9b565b80156102fe5780601f106102d3576101008083540402835291602001916102fe565b820191906000526020600020905b8154815290600101906020018083116102e157829003601f168201915b5050505050905090565b60008061031361059b565b90506103208185856105a3565b600191505092915050565b6000600254905090565b60008061034061059b565b905061034d85828561076c565b6103588585856107f8565b60019150509392505050565b600090565b60008061037461059b565b90506103958185856103868589610514565b6103909190610dfb565b6105a3565b600191505092915050565b60008060008373ffffffffffffffffffffffffffffffffffffffff1673ffffffffffffffffffffffffffffffffffffffff168152602001908152602001600020549050919050565b6060600480546103f790610d9b565b80601f016020809104026020016040519081016040528092919081815260200182805461042390610d9b565b80156104705780601f1061044557610100808354040283529160200191610470565b820191906000526020600020905b81548152906001019060200180831161045357829003601f168201915b5050505050905090565b60008061048561059b565b905060006104938286610514565b9050838110156104d8576040517f08c379a00000000000000000000000000000000000000000000000000000000081526004016104cf90610ec3565b60405180910390fd5b6104e582868684036105a3565b60019250505092915050565b6000806104fc61059b565b90506105098185856107f8565b600191505092915050565b6000600160008473ffffffffffffffffffffffffffffffffffffffff1673ffffffffffffffffffffffffffffffffffffffff16815260200190815260200160002060008373ffffffffffffffffffffffffffffffffffffffff1673ffffffffffffffffffffffffffffffffffffffff16815260200190815260200160002054905092915050565b600033905090565b600073ffffffffffffffffffffffffffffffffffffffff168373ffffffffffffffffffffffffffffffffffffffff1603610612576040517f08c379a000000000000000000000000000000000000000000000000000000000815260040161060990610f55565b60405180910390fd5b600073ffffffffffffffffffffffffffffffffffffffff168273ffffffffffffffffffffffffffffffffffffffff1603610681576040517f08c379a000000000000000000000000000000000000000000000000000000000815260040161067890610fe7565b60405180910390fd5b80600160008573ffffffffffffffffffffffffffffffffffffffff1673ffffffffffffffffffffffffffffffffffffffff16815260200190815260200160002060008473ffffffffffffffffffffffffffffffffffffffff1673ffffffffffffffffffffffffffffffffffffffff168152602001908152602001600020819055508173ffffffffffffffffffffffffffffffffffffffff168373ffffffffffffffffffffffffffffffffffffffff167f8c5be1e5ebec7d5bd14f71427d1e84f3dd0314c0f7b2291e5b200ac8c7c3b9258360405161075f9190610c5a565b60405180910390a3505050565b60006107788484610514565b90507fffffffffffffffffffffffffffffffffffffffffffffffffffffffffffffffff81146107f257818110156107e4576040517f08c379a00000000000000000000000000000000000000000000000000000000081526004016107db90611053565b60405180910390fd5b6107f184848484036105a3565b5b50505050565b600073ffffffffffffffffffffffffffffffffffffffff168373ffffffffffffffffffffffffffffffffffffffff1603610867576040517f08c379a000000000000000000000000000000000000000000000000000000000815260040161085e906110e5565b60405180910390fd5b600073ffffffffffffffffffffffffffffffffffffffff168273ffffffffffffffffffffffffffffffffffffffff16036108d6576040517f08c379a00000000000000000000000000000000000000000000000000000000081526004016108cd90611177565b60405180910390fd5b6108e1838383610a77565b60008060008573ffffffffffffffffffffffffffffffffffffffff1673ffffffffffffffffffffffffffffffffffffffff16815260200190815260200160002054905081811015610967576040517f08c379a000000000000000000000000000000000000000000000000000000000815260040161095e90611209565b60405180910390fd5b8181036000808673ffffffffffffffffffffffffffffffffffffffff1673ffffffffffffffffffffffffffffffffffffffff16815260200190815260200160002081905550816000808573ffffffffffffffffffffffffffffffffffffffff1673ffffffffffffffffffffffffffffffffffffffff16815260200190815260200160002060008282546109fa9190610dfb565b925050819055508273ffffffffffffffffffffffffffffffffffffffff168473ffffffffffffffffffffffffffffffffffffffff167fddf252ad1be2c89b69c2b068fc378daa952ba7f163c4a11628f55a4df523b3ef84604051610a5e9190610c5a565b60405180910390a3610a71848484610a7c565b50505050565b505050565b505050565b600081519050919050565b600082825260208201905092915050565b60005b83811015610abb578082015181840152602081019050610aa0565b83811115610aca576000848401525b50505050565b6000601f19601f8301169050919050565b6000610aec82610a81565b610af68185610a8c565b9350610b06818560208601610a9d565b610b0f81610ad0565b840191505092915050565b60006020820190508181036000830152610b348184610ae1565b905092915050565b600080fd5b600073ffffffffffffffffffffffffffffffffffffffff82169050919050565b6000610b6c82610b41565b9050919050565b610b7c81610b61565b8114610b8757600080fd5b50565b600081359050610b9981610b73565b92915050565b6000819050919050565b610bb281610b9f565b8114610bbd57600080fd5b50565b600081359050610bcf81610ba9565b92915050565b60008060408385031215610bec57610beb610b3c565b5b6000610bfa85828601610b8a565b9250506020610c0b85828601610bc0565b9150509250929050565b60008115159050919050565b610c2a81610c15565b82525050565b6000602082019050610c456000830184610c21565b92915050565b610c5481610b9f565b82525050565b6000602082019050610c6f6000830184610c4b565b92915050565b600080600060608486031215610c8e57610c8d610b3c565b5b6000610c9c86828701610b8a565b9350506020610cad86828701610b8a565b9250506040610cbe86828701610bc0565b9150509250925092565b600060ff82169050919050565b610cde81610cc8565b82525050565b6000602082019050610cf96000830184610cd5565b92915050565b600060208284031215610d1557610d14610b3c565b5b6000610d2384828501610b8a565b91505092915050565b60008060408385031215610d4357610d42610b3c565b5b6000610d5185828601610b8a565b9250506020610d6285828601610b8a565b9150509250929050565b7f4e487b7100000000000000000000000000000000000000000000000000000000600052602260045260246000fd5b60006002820490506001821680610db357607f821691505b602082108103610dc657610dc5610d6c565b5b50919050565b7f4e487b7100000000000000000000000000000000000000000000000000000000600052601160045260246000fd5b6000610e0682610b9f565b9150610e1183610b9f565b9250827fffffffffffffffffffffffffffffffffffffffffffffffffffffffffffffffff03821115610e4657610e45610dcc565b5b828201905092915050565b7f45524332303a2064656372656173656420616c6c6f77616e63652062656c6f7760008201527f207a65726f000000000000000000000000000000000000000000000000000000602082015250565b6000610ead602583610a8c565b9150610eb882610e51565b604082019050919050565b60006020820190508181036000830152610edc81610ea0565b9050919050565b7f45524332303a20617070726f76652066726f6d20746865207a65726f2061646460008201527f7265737300000000000000000000000000000000000000000000000000000000602082015250565b6000610f3f602483610a8c565b9150610f4a82610ee3565b604082019050919050565b60006020820190508181036000830152610f6e81610f32565b9050919050565b7f45524332303a20617070726f766520746f20746865207a65726f20616464726560008201527f7373000000000000000000000000000000000000000000000000000000000000602082015250565b6000610fd1602283610a8c565b9150610fdc82610f75565b604082019050919050565b6000602082019050818103600083015261100081610fc4565b9050919050565b7f45524332303a20696e73756666696369656e7420616c6c6f77616e6365000000600082015250565b600061103d601d83610a8c565b915061104882611007565b602082019050919050565b6000602082019050818103600083015261106c81611030565b9050919050565b7f45524332303a207472616e736665722066726f6d20746865207a65726f20616460008201527f6472657373000000000000000000000000000000000000000000000000000000602082015250565b60006110cf602583610a8c565b91506110da82611073565b604082019050919050565b600060208201905081810360008301526110fe816110c2565b9050919050565b7f45524332303a207472616e7366657220746f20746865207a65726f206164647260008201527f6573730000000000000000000000000000000000000000000000000000000000602082015250565b6000611161602383610a8c565b915061116c82611105565b604082019050919050565b6000602082019050818103600083015261119081611154565b9050919050565b7f45524332303a207472616e7366657220616d6f756e742065786365656473206260008201527f616c616e63650000000000000000000000000000000000000000000000000000602082015250565b60006111f3602683610a8c565b91506111fe82611197565b604082019050919050565b60006020820190508181036000830152611222816111e6565b905091905056fea264697066735822122048b9a865a8c8e1c953cef426b142ef1ddec16b271fb833dfa71c56412ecf608964736f6c634300080e003360806040523480156200001157600080fd5b50604051620017a4380380620017a4833981810160405281019062000037919062000362565b6040518060400160405280600b81526020017f506561726c546f6b656e320000000000000000000000000000000000000000008152506040518060400160405280600681526020017f504541524c3200000000000000000000000000000000000000000000000000008152508160039080519060200190620000bb92919062000272565b508060049080519060200190620000d492919062000272565b505050620000e93382620000f060201b60201c565b5062000535565b600073ffffffffffffffffffffffffffffffffffffffff168273ffffffffffffffffffffffffffffffffffffffff160362000162576040517f08c379a00000000000000000000000000000000000000000000000000000000081526004016200015990620003f5565b60405180910390fd5b62000176600083836200026860201b60201c565b80600260008282546200018a919062000446565b92505081905550806000808473ffffffffffffffffffffffffffffffffffffffff1673ffffffffffffffffffffffffffffffffffffffff1681526020019081526020016000206000828254620001e1919062000446565b925050819055508173ffffffffffffffffffffffffffffffffffffffff16600073ffffffffffffffffffffffffffffffffffffffff167fddf252ad1be2c89b69c2b068fc378daa952ba7f163c4a11628f55a4df523b3ef83604051620002489190620004b4565b60405180910390a362000264600083836200026d60201b60201c565b5050565b505050565b505050565b828054620002809062000500565b90600052602060002090601f016020900481019282620002a45760008555620002f0565b82601f10620002bf57805160ff1916838001178555620002f0565b82800160010185558215620002f0579182015b82811115620002ef578251825591602001919060010190620002d2565b5b509050620002ff919062000303565b5090565b5b808211156200031e57600081600090555060010162000304565b5090565b600080fd5b6000819050919050565b6200033c8162000327565b81146200034857600080fd5b50565b6000815190506200035c8162000331565b92915050565b6000602082840312156200037b576200037a62000322565b5b60006200038b848285016200034b565b91505092915050565b600082825260208201905092915050565b7f45524332303a206d696e7420746f20746865207a65726f206164647265737300600082015250565b6000620003dd601f8362000394565b9150620003ea82620003a5565b602082019050919050565b600060208201905081810360008301526200041081620003ce565b9050919050565b7f4e487b7100000000000000000000000000000000000000000000000000000000600052601160045260246000fd5b6000620004538262000327565b9150620004608362000327565b9250827fffffffffffffffffffffffffffffffffffffffffffffffffffffffffffffffff0382111562000498576200049762000417565b5b828201905092915050565b620004ae8162000327565b82525050565b6000602082019050620004cb6000830184620004a3565b92915050565b7f4e487b7100000000000000000000000000000000000000000000000000000000600052602260045260246000fd5b600060028204905060018216806200051957607f821691505b6020821081036200052f576200052e620004d1565b5b50919050565b61125f80620005456000396000f3fe608060405234801561001057600080fd5b50600436106100a95760003560e01c80633950935111610071578063395093511461016857806370a082311461019857806395d89b41146101c8578063a457c2d7146101e6578063a9059cbb14610216578063dd62ed3e14610246576100a9565b806306fdde03146100ae578063095ea7b3146100cc57806318160ddd146100fc57806323b872dd1461011a578063313ce5671461014a575b600080fd5b6100b6610276565b6040516100c39190610b1a565b60405180910390f35b6100e660048036038101906100e19190610bd5565b610308565b6040516100f39190610c30565b60405180910390f35b61010461032b565b6040516101119190610c5a565b60405180910390f35b610134600480360381019061012f9190610c75565b610335565b6040516101419190610c30565b60405180910390f35b610152610364565b60405161015f9190610ce4565b60405180910390f35b610182600480360381019061017d9190610bd5565b610369565b60405161018f9190610c30565b60405180910390f35b6101b260048036038101906101ad9190610cff565b6103a0565b6040516101bf9190610c5a565b60405180910390f35b6101d06103e8565b6040516101dd9190610b1a565b60405180910390f35b61020060048036038101906101fb9190610bd5565b61047a565b60405161020d9190610c30565b60405180910390f35b610230600480360381019061022b9190610bd5565b6104f1565b60405161023d9190610c30565b60405180910390f35b610260600480360381019061025b9190610d2c565b610514565b60405161026d9190610c5a565b60405180910390f35b60606003805461028590610d9b565b80601f01602080910402602001604051908101604052809291908181526020018280546102b190610d9b565b80156102fe5780601f106102d3576101008083540402835291602001916102fe565b820191906000526020600020905b8154815290600101906020018083116102e157829003601f168201915b5050505050905090565b60008061031361059b565b90506103208185856105a3565b600191505092915050565b6000600254905090565b60008061034061059b565b905061034d85828561076c565b6103588585856107f8565b60019150509392505050565b600090565b60008061037461059b565b90506103958185856103868589610514565b6103909190610dfb565b6105a3565b600191505092915050565b60008060008373ffffffffffffffffffffffffffffffffffffffff1673ffffffffffffffffffffffffffffffffffffffff168152602001908152602001600020549050919050565b6060600480546103f790610d9b565b80601f016020809104026020016040519081016040528092919081815260200182805461042390610d9b565b80156104705780601f1061044557610100808354040283529160200191610470565b820191906000526020600020905b81548152906001019060200180831161045357829003601f168201915b5050505050905090565b60008061048561059b565b905060006104938286610514565b9050838110156104d8576040517f08c379a00000000000000000000000000000000000000000000000000000000081526004016104cf90610ec3565b60405180910390fd5b6104e582868684036105a3565b60019250505092915050565b6000806104fc61059b565b90506105098185856107f8565b600191505092915050565b6000600160008473ffffffffffffffffffffffffffffffffffffffff1673ffffffffffffffffffffffffffffffffffffffff16815260200190815260200160002060008373ffffffffffffffffffffffffffffffffffffffff1673ffffffffffffffffffffffffffffffffffffffff16815260200190815260200160002054905092915050565b600033905090565b600073ffffffffffffffffffffffffffffffffffffffff168373ffffffffffffffffffffffffffffffffffffffff1603610612576040517f08c379a000000000000000000000000000000000000000000000000000000000815260040161060990610f55565b60405180910390fd5b600073ffffffffffffffffffffffffffffffffffffffff168273ffffffffffffffffffffffffffffffffffffffff1603610681576040517f08c379a000000000000000000000000000000000000000000000000000000000815260040161067890610fe7565b60405180910390fd5b80600160008573ffffffffffffffffffffffffffffffffffffffff1673ffffffffffffffffffffffffffffffffffffffff16815260200190815260200160002060008473ffffffffffffffffffffffffffffffffffffffff1673ffffffffffffffffffffffffffffffffffffffff168152602001908152602001600020819055508173ffffffffffffffffffffffffffffffffffffffff168373ffffffffffffffffffffffffffffffffffffffff167f8c5be1e5ebec7d5bd14f71427d1e84f3dd0314c0f7b2291e5b200ac8c7c3b9258360405161075f9190610c5a565b60405180910390a3505050565b60006107788484610514565b90507fffffffffffffffffffffffffffffffffffffffffffffffffffffffffffffffff81146107f257818110156107e4576040517f08c379a00000000000000000000000000000000000000000000000000000000081526004016107db90611053565b60405180910390fd5b6107f184848484036105a3565b5b50505050565b600073ffffffffffffffffffffffffffffffffffffffff168373ffffffffffffffffffffffffffffffffffffffff1603610867576040517f08c379a000000000000000000000000000000000000000000000000000000000815260040161085e906110e5565b60405180910390fd5b600073ffffffffffffffffffffffffffffffffffffffff168273ffffffffffffffffffffffffffffffffffffffff16036108d6576040517f08c379a00000000000000000000000000000000000000000000000000000000081526004016108cd90611177565b60405180910390fd5b6108e1838383610a77565b60008060008573ffffffffffffffffffffffffffffffffffffffff1673ffffffffffffffffffffffffffffffffffffffff16815260200190815260200160002054905081811015610967576040517f08c379a000000000000000000000000000000000000000000000000000000000815260040161095e90611209565b60405180910390fd5b8181036000808673ffffffffffffffffffffffffffffffffffffffff1673ffffffffffffffffffffffffffffffffffffffff16815260200190815260200160002081905550816000808573ffffffffffffffffffffffffffffffffffffffff1673ffffffffffffffffffffffffffffffffffffffff16815260200190815260200160002060008282546109fa9190610dfb565b925050819055508273ffffffffffffffffffffffffffffffffffffffff168473ffffffffffffffffffffffffffffffffffffffff167fddf252ad1be2c89b69c2b068fc378daa952ba7f163c4a11628f55a4df523b3ef84604051610a5e9190610c5a565b60405180910390a3610a71848484610a7c565b50505050565b505050565b505050565b600081519050919050565b600082825260208201905092915050565b60005b83811015610abb578082015181840152602081019050610aa0565b83811115610aca576000848401525b50505050565b6000601f19601f8301169050919050565b6000610aec82610a81565b610af68185610a8c565b9350610b06818560208601610a9d565b610b0f81610ad0565b840191505092915050565b60006020820190508181036000830152610b348184610ae1565b905092915050565b600080fd5b600073ffffffffffffffffffffffffffffffffffffffff82169050919050565b6000610b6c82610b41565b9050919050565b610b7c81610b61565b8114610b8757600080fd5b50565b600081359050610b9981610b73565b92915050565b6000819050919050565b610bb281610b9f565b8114610bbd57600080fd5b50565b600081359050610bcf81610ba9565b92915050565b60008060408385031215610bec57610beb610b3c565b5b6000610bfa85828601610b8a565b9250506020610c0b85828601610bc0565b9150509250929050565b60008115159050919050565b610c2a81610c15565b82525050565b6000602082019050610c456000830184610c21565b92915050565b610c5481610b9f565b82525050565b6000602082019050610c6f6000830184610c4b565b92915050565b600080600060608486031215610c8e57610c8d610b3c565b5b6000610c9c86828701610b8a565b9350506020610cad86828701610b8a565b9250506040610cbe86828701610bc0565b9150509250925092565b600060ff82169050919050565b610cde81610cc8565b82525050565b6000602082019050610cf96000830184610cd5565b92915050565b600060208284031215610d1557610d14610b3c565b5b6000610d2384828501610b8a565b91505092915050565b60008060408385031215610d4357610d42610b3c565b5b6000610d5185828601610b8a565b9250506020610d6285828601610b8a565b9150509250929050565b7f4e487b7100000000000000000000000000000000000000000000000000000000600052602260045260246000fd5b60006002820490506001821680610db357607f821691505b602082108103610dc657610dc5610d6c565b5b50919050565b7f4e487b7100000000000000000000000000000000000000000000000000000000600052601160045260246000fd5b6000610e0682610b9f565b9150610e1183610b9f565b9250827fffffffffffffffffffffffffffffffffffffffffffffffffffffffffffffffff03821115610e4657610e45610dcc565b5b828201905092915050565b7f45524332303a2064656372656173656420616c6c6f77616e63652062656c6f7760008201527f207a65726f000000000000000000000000000000000000000000000000000000602082015250565b6000610ead602583610a8c565b9150610eb882610e51565b604082019050919050565b60006020820190508181036000830152610edc81610ea0565b9050919050565b7f45524332303a20617070726f76652066726f6d20746865207a65726f2061646460008201527f7265737300000000000000000000000000000000000000000000000000000000602082015250565b6000610f3f602483610a8c565b9150610f4a82610ee3565b604082019050919050565b60006020820190508181036000830152610f6e81610f32565b9050919050565b7f45524332303a20617070726f766520746f20746865207a65726f20616464726560008201527f7373000000000000000000000000000000000000000000000000000000000000602082015250565b6000610fd1602283610a8c565b9150610fdc82610f75565b604082019050919050565b6000602082019050818103600083015261100081610fc4565b9050919050565b7f45524332303a20696e73756666696369656e7420616c6c6f77616e6365000000600082015250565b600061103d601d83610a8c565b915061104882611007565b602082019050919050565b6000602082019050818103600083015261106c81611030565b9050919050565b7f45524332303a207472616e736665722066726f6d20746865207a65726f20616460008201527f6472657373000000000000000000000000000000000000000000000000000000602082015250565b60006110cf602583610a8c565b91506110da82611073565b604082019050919050565b600060208201905081810360008301526110fe816110c2565b9050919050565b7f45524332303a207472616e7366657220746f20746865207a65726f206164647260008201527f6573730000000000000000000000000000000000000000000000000000000000602082015250565b6000611161602383610a8c565b915061116c82611105565b604082019050919050565b6000602082019050818103600083015261119081611154565b9050919050565b7f45524332303a207472616e7366657220616d6f756e742065786365656473206260008201527f616c616e63650000000000000000000000000000000000000000000000000000602082015250565b60006111f3602683610a8c565b91506111fe82611197565b604082019050919050565b60006020820190508181036000830152611222816111e6565b905091905056fea2646970667358221220acc897f3890ce1e5edf94c769d84bcb38e802fb9d743f22f2c86c5e66eeccb7764736f6c634300080e003360806040523480156200001157600080fd5b50604051620017a4380380620017a4833981810160405281019062000037919062000362565b6040518060400160405280600a81526020017f4d696c6b546f6b656e32000000000000000000000000000000000000000000008152506040518060400160405280600581526020017f4d494c4b320000000000000000000000000000000000000000000000000000008152508160039080519060200190620000bb92919062000272565b508060049080519060200190620000d492919062000272565b505050620000e93382620000f060201b60201c565b5062000535565b600073ffffffffffffffffffffffffffffffffffffffff168273ffffffffffffffffffffffffffffffffffffffff160362000162576040517f08c379a00000000000000000000000000000000000000000000000000000000081526004016200015990620003f5565b60405180910390fd5b62000176600083836200026860201b60201c565b80600260008282546200018a919062000446565b92505081905550806000808473ffffffffffffffffffffffffffffffffffffffff1673ffffffffffffffffffffffffffffffffffffffff1681526020019081526020016000206000828254620001e1919062000446565b925050819055508173ffffffffffffffffffffffffffffffffffffffff16600073ffffffffffffffffffffffffffffffffffffffff167fddf252ad1be2c89b69c2b068fc378daa952ba7f163c4a11628f55a4df523b3ef83604051620002489190620004b4565b60405180910390a362000264600083836200026d60201b60201c565b5050565b505050565b505050565b828054620002809062000500565b90600052602060002090601f016020900481019282620002a45760008555620002f0565b82601f10620002bf57805160ff1916838001178555620002f0565b82800160010185558215620002f0579182015b82811115620002ef578251825591602001919060010190620002d2565b5b509050620002ff919062000303565b5090565b5b808211156200031e57600081600090555060010162000304565b5090565b600080fd5b6000819050919050565b6200033c8162000327565b81146200034857600080fd5b50565b6000815190506200035c8162000331565b92915050565b6000602082840312156200037b576200037a62000322565b5b60006200038b848285016200034b565b91505092915050565b600082825260208201905092915050565b7f45524332303a206d696e7420746f20746865207a65726f206164647265737300600082015250565b6000620003dd601f8362000394565b9150620003ea82620003a5565b602082019050919050565b600060208201905081810360008301526200041081620003ce565b9050919050565b7f4e487b7100000000000000000000000000000000000000000000000000000000600052601160045260246000fd5b6000620004538262000327565b9150620004608362000327565b9250827fffffffffffffffffffffffffffffffffffffffffffffffffffffffffffffffff0382111562000498576200049762000417565b5b828201905092915050565b620004ae8162000327565b82525050565b6000602082019050620004cb6000830184620004a3565b92915050565b7f4e487b7100000000000000000000000000000000000000000000000000000000600052602260045260246000fd5b600060028204905060018216806200051957607f821691505b6020821081036200052f576200052e620004d1565b5b50919050565b61125f80620005456000396000f3fe608060405234801561001057600080fd5b50600436106100a95760003560e01c80633950935111610071578063395093511461016857806370a082311461019857806395d89b41146101c8578063a457c2d7146101e6578063a9059cbb14610216578063dd62ed3e14610246576100a9565b806306fdde03146100ae578063095ea7b3146100cc57806318160ddd146100fc57806323b872dd1461011a578063313ce5671461014a575b600080fd5b6100b6610276565b6040516100c39190610b1a565b60405180910390f35b6100e660048036038101906100e19190610bd5565b610308565b6040516100f39190610c30565b60405180910390f35b61010461032b565b6040516101119190610c5a565b60405180910390f35b610134600480360381019061012f9190610c75565b610335565b6040516101419190610c30565b60405180910390f35b610152610364565b60405161015f9190610ce4565b60405180910390f35b610182600480360381019061017d9190610bd5565b610369565b60405161018f9190610c30565b60405180910390f35b6101b260048036038101906101ad9190610cff565b6103a0565b6040516101bf9190610c5a565b60405180910390f35b6101d06103e8565b6040516101dd9190610b1a565b60405180910390f35b61020060048036038101906101fb9190610bd5565b61047a565b60405161020d9190610c30565b60405180910390f35b610230600480360381019061022b9190610bd5565b6104f1565b60405161023d9190610c30565b60405180910390f35b610260600480360381019061025b9190610d2c565b610514565b60405161026d9190610c5a565b60405180910390f35b60606003805461028590610d9b565b80601f01602080910402602001604051908101604052809291908181526020018280546102b190610d9b565b80156102fe5780601f106102d3576101008083540402835291602001916102fe565b820191906000526020600020905b8154815290600101906020018083116102e157829003601f168201915b5050505050905090565b60008061031361059b565b90506103208185856105a3565b600191505092915050565b6000600254905090565b60008061034061059b565b905061034d85828561076c565b6103588585856107f8565b60019150509392505050565b600090565b60008061037461059b565b90506103958185856103868589610514565b6103909190610dfb565b6105a3565b600191505092915050565b60008060008373ffffffffffffffffffffffffffffffffffffffff1673ffffffffffffffffffffffffffffffffffffffff168152602001908152602001600020549050919050565b6060600480546103f790610d9b565b80601f016020809104026020016040519081016040528092919081815260200182805461042390610d9b565b80156104705780601f1061044557610100808354040283529160200191610470565b820191906000526020600020905b81548152906001019060200180831161045357829003601f168201915b5050505050905090565b60008061048561059b565b905060006104938286610514565b9050838110156104d8576040517f08c379a00000000000000000000000000000000000000000000000000000000081526004016104cf90610ec3565b60405180910390fd5b6104e582868684036105a3565b60019250505092915050565b6000806104fc61059b565b90506105098185856107f8565b600191505092915050565b6000600160008473ffffffffffffffffffffffffffffffffffffffff1673ffffffffffffffffffffffffffffffffffffffff16815260200190815260200160002060008373ffffffffffffffffffffffffffffffffffffffff1673ffffffffffffffffffffffffffffffffffffffff16815260200190815260200160002054905092915050565b600033905090565b600073ffffffffffffffffffffffffffffffffffffffff168373ffffffffffffffffffffffffffffffffffffffff1603610612576040517f08c379a000000000000000000000000000000000000000000000000000000000815260040161060990610f55565b60405180910390fd5b600073ffffffffffffffffffffffffffffffffffffffff168273ffffffffffffffffffffffffffffffffffffffff1603610681576040517f08c379a000000000000000000000000000000000000000000000000000000000815260040161067890610fe7565b60405180910390fd5b80600160008573ffffffffffffffffffffffffffffffffffffffff1673ffffffffffffffffffffffffffffffffffffffff16815260200190815260200160002060008473ffffffffffffffffffffffffffffffffffffffff1673ffffffffffffffffffffffffffffffffffffffff168152602001908152602001600020819055508173ffffffffffffffffffffffffffffffffffffffff168373ffffffffffffffffffffffffffffffffffffffff167f8c5be1e5ebec7d5bd14f71427d1e84f3dd0314c0f7b2291e5b200ac8c7c3b9258360405161075f9190610c5a565b60405180910390a3505050565b60006107788484610514565b90507fffffffffffffffffffffffffffffffffffffffffffffffffffffffffffffffff81146107f257818110156107e4576040517f08c379a00000000000000000000000000000000000000000000000000000000081526004016107db90611053565b60405180910390fd5b6107f184848484036105a3565b5b50505050565b600073ffffffffffffffffffffffffffffffffffffffff168373ffffffffffffffffffffffffffffffffffffffff1603610867576040517f08c379a000000000000000000000000000000000000000000000000000000000815260040161085e906110e5565b60405180910390fd5b600073ffffffffffffffffffffffffffffffffffffffff168273ffffffffffffffffffffffffffffffffffffffff16036108d6576040517f08c379a00000000000000000000000000000000000000000000000000000000081526004016108cd90611177565b60405180910390fd5b6108e1838383610a77565b60008060008573ffffffffffffffffffffffffffffffffffffffff1673ffffffffffffffffffffffffffffffffffffffff16815260200190815260200160002054905081811015610967576040517f08c379a000000000000000000000000000000000000000000000000000000000815260040161095e90611209565b60405180910390fd5b8181036000808673ffffffffffffffffffffffffffffffffffffffff1673ffffffffffffffffffffffffffffffffffffffff16815260200190815260200160002081905550816000808573ffffffffffffffffffffffffffffffffffffffff1673ffffffffffffffffffffffffffffffffffffffff16815260200190815260200160002060008282546109fa9190610dfb565b925050819055508273ffffffffffffffffffffffffffffffffffffffff168473ffffffffffffffffffffffffffffffffffffffff167fddf252ad1be2c89b69c2b068fc378daa952ba7f163c4a11628f55a4df523b3ef84604051610a5e9190610c5a565b60405180910390a3610a71848484610a7c565b50505050565b505050565b505050565b600081519050919050565b600082825260208201905092915050565b60005b83811015610abb578082015181840152602081019050610aa0565b83811115610aca576000848401525b50505050565b6000601f19601f8301169050919050565b6000610aec82610a81565b610af68185610a8c565b9350610b06818560208601610a9d565b610b0f81610ad0565b840191505092915050565b60006020820190508181036000830152610b348184610ae1565b905092915050565b600080fd5b600073ffffffffffffffffffffffffffffffffffffffff82169050919050565b6000610b6c82610b41565b9050919050565b610b7c81610b61565b8114610b8757600080fd5b50565b600081359050610b9981610b73565b92915050565b6000819050919050565b610bb281610b9f565b8114610bbd57600080fd5b50565b600081359050610bcf81610ba9565b92915050565b60008060408385031215610bec57610beb610b3c565b5b6000610bfa85828601610b8a565b9250506020610c0b85828601610bc0565b9150509250929050565b60008115159050919050565b610c2a81610c15565b82525050565b6000602082019050610c456000830184610c21565b92915050565b610c5481610b9f565b82525050565b6000602082019050610c6f6000830184610c4b565b92915050565b600080600060608486031215610c8e57610c8d610b3c565b5b6000610c9c86828701610b8a565b9350506020610cad86828701610b8a565b9250506040610cbe86828701610bc0565b9150509250925092565b600060ff82169050919050565b610cde81610cc8565b82525050565b6000602082019050610cf96000830184610cd5565b92915050565b600060208284031215610d1557610d14610b3c565b5b6000610d2384828501610b8a565b91505092915050565b60008060408385031215610d4357610d42610b3c565b5b6000610d5185828601610b8a565b9250506020610d6285828601610b8a565b9150509250929050565b7f4e487b7100000000000000000000000000000000000000000000000000000000600052602260045260246000fd5b60006002820490506001821680610db357607f821691505b602082108103610dc657610dc5610d6c565b5b50919050565b7f4e487b7100000000000000000000000000000000000000000000000000000000600052601160045260246000fd5b6000610e0682610b9f565b9150610e1183610b9f565b9250827fffffffffffffffffffffffffffffffffffffffffffffffffffffffffffffffff03821115610e4657610e45610dcc565b5b828201905092915050565b7f45524332303a2064656372656173656420616c6c6f77616e63652062656c6f7760008201527f207a65726f000000000000000000000000000000000000000000000000000000602082015250565b6000610ead602583610a8c565b9150610eb882610e51565b604082019050919050565b60006020820190508181036000830152610edc81610ea0565b9050919050565b7f45524332303a20617070726f76652066726f6d20746865207a65726f2061646460008201527f7265737300000000000000000000000000000000000000000000000000000000602082015250565b6000610f3f602483610a8c565b9150610f4a82610ee3565b604082019050919050565b60006020820190508181036000830152610f6e81610f32565b9050919050565b7f45524332303a20617070726f766520746f20746865207a65726f20616464726560008201527f7373000000000000000000000000000000000000000000000000000000000000602082015250565b6000610fd1602283610a8c565b9150610fdc82610f75565b604082019050919050565b6000602082019050818103600083015261100081610fc4565b9050919050565b7f45524332303a20696e73756666696369656e7420616c6c6f77616e6365000000600082015250565b600061103d601d83610a8c565b915061104882611007565b602082019050919050565b6000602082019050818103600083015261106c81611030565b9050919050565b7f45524332303a207472616e736665722066726f6d20746865207a65726f20616460008201527f6472657373000000000000000000000000000000000000000000000000000000602082015250565b60006110cf602583610a8c565b91506110da82611073565b604082019050919050565b600060208201905081810360008301526110fe816110c2565b9050919050565b7f45524332303a207472616e7366657220746f20746865207a65726f206164647260008201527f6573730000000000000000000000000000000000000000000000000000000000602082015250565b6000611161602383610a8c565b915061116c82611105565b604082019050919050565b6000602082019050818103600083015261119081611154565b9050919050565b7f45524332303a207472616e7366657220616d6f756e742065786365656473206260008201527f616c616e63650000000000000000000000000000000000000000000000000000602082015250565b60006111f3602683610a8c565b91506111fe82611197565b604082019050919050565b60006020820190508181036000830152611222816111e6565b905091905056fea2646970667358221220cb6e4359a1c7df64bc8d4f6470fb23fa906ff230d33e9a996324075dd0dfa0d164736f6c634300080e0033a2646970667358221220ca22cbea8251cc0337446def708a08639ffe05494ab012c89240de6f86bfc7a764736f6c634300080e0033",
  "immutableReferences": {},
  "source": "pragma solidity ^0.8.7;\r\n\r\nimport \"./MilkToken.sol\";\r\nimport \"./TeaToken.sol\";\r\nimport \"./PearlToken.sol\";\r\nimport \"./MilkToken2.sol\";\r\nimport \"./TeaToken2.sol\";\r\nimport \"./PearlToken2.sol\";\r\n\r\ncontract TokenFactory2 {\r\n    event MilkToken2Created(address contractAddress);\r\n    event TeaToken2Created(address contractAddress);\r\n    event PearlToken2Created(address contractAddress);\r\n\r\n    MilkToken2[] private milkToken2Array;\r\n    TeaToken2[] private teaToken2Array;\r\n    PearlToken2[] private pearlToken2Array;\r\n\r\n    function createNewMilkToken2(uint256 initialSupply) public returns (address) {\r\n        MilkToken2 milkToken2 = new MilkToken2(initialSupply);\r\n        milkToken2Array.push(milkToken2);\r\n        emit MilkToken2Created(address(milkToken2));\r\n        return address(milkToken2);\r\n    }\r\n\r\n    function createNewTeaToken2(uint256 initialSupply) public returns (address) {\r\n        TeaToken2 teaToken2 = new TeaToken2(initialSupply);\r\n        teaToken2Array.push(teaToken2);\r\n        emit TeaToken2Created(address(teaToken2));\r\n        return address(teaToken2);\r\n    }\r\n\r\n    function createNewPearlToken2(uint256 initialSupply) public returns (address) {\r\n        PearlToken2 pearlToken2 = new PearlToken2(initialSupply);\r\n        pearlToken2Array.push(pearlToken2);\r\n        emit PearlToken2Created(address(pearlToken2));\r\n        return address(pearlToken2);\r\n    }\r\n\r\n    function getRecentMilkToken2Address() public view returns (address) {\r\n        return address(milkToken2Array[milkToken2Array.length - 1]);\r\n    }\r\n\r\n    function getAllMilkToken2Address() public view returns (address[] memory) {\r\n        address[] memory result = new address[](milkToken2Array.length);\r\n        for (uint i = 0; i <= milkToken2Array.length - 1; i++) {\r\n            result[i] = address(milkToken2Array[i]);\r\n        }\r\n        return result;\r\n    }\r\n\r\n    function getRecentTeaToken2Address() public view returns (address) {\r\n        return address(teaToken2Array[teaToken2Array.length - 1]);\r\n    }\r\n\r\n    function getAllTeaToken2Address() public view returns (address[] memory) {\r\n        address[] memory result = new address[](teaToken2Array.length);\r\n        for (uint i = 0; i <= teaToken2Array.length - 1; i++) {\r\n            result[i] = address(teaToken2Array[i]);\r\n        }\r\n        return result;\r\n    }\r\n\r\n    function getRecentPearlToken2Address() public view returns (address) {\r\n        return address(pearlToken2Array[pearlToken2Array.length - 1]);\r\n    }\r\n\r\n    function getAllPearlToken2Address() public view returns (address[] memory) {\r\n        address[] memory result = new address[](pearlToken2Array.length);\r\n        for (uint i = 0; i <= pearlToken2Array.length - 1; i++) {\r\n            result[i] = address(pearlToken2Array[i]);\r\n        }\r\n        return result;\r\n    }    \r\n}",
  "sourcePath": "C:\\Users\\zheru\\OneDrive\\blockchain\\LPFarmApp\\contracts\\TokenFactory2.sol",
  "compiler": {
    "name": "solc",
    "version": "0.8.14+commit.80d49f37.Emscripten.clang"
  },
  "schemaVersion": "3.4.7",
  "updatedAt": "2022-06-18T13:45:13.990Z",
  "networkType": "ethereum",
  "devdoc": {
    "kind": "dev",
    "methods": {},
    "version": 1
  },
  "userdoc": {
    "kind": "user",
    "methods": {},
    "version": 1
  }
}