{
  "contractName": "TokenFactory",
  "abi": [
    {
      "anonymous": false,
      "inputs": [
        {
          "indexed": false,
          "internalType": "address",
          "name": "contractAddress",
          "type": "address"
        }
      ],
      "name": "MilkTokenCreated",
      "type": "event"
    },
    {
      "anonymous": false,
      "inputs": [
        {
          "indexed": false,
          "internalType": "address",
          "name": "contractAddress",
          "type": "address"
        }
      ],
      "name": "PearlTokenCreated",
      "type": "event"
    },
    {
      "anonymous": false,
      "inputs": [
        {
          "indexed": false,
          "internalType": "address",
          "name": "contractAddress",
          "type": "address"
        }
      ],
      "name": "TeaTokenCreated",
      "type": "event"
    },
    {
      "inputs": [
        {
          "internalType": "uint256",
          "name": "",
          "type": "uint256"
        }
      ],
      "name": "milkTokenArray",
      "outputs": [
        {
          "internalType": "contract MilkToken",
          "name": "",
          "type": "address"
        }
      ],
      "stateMutability": "view",
      "type": "function",
      "constant": true
    },
    {
      "inputs": [
        {
          "internalType": "uint256",
          "name": "",
          "type": "uint256"
        }
      ],
      "name": "pearlTokenArray",
      "outputs": [
        {
          "internalType": "contract PearlToken",
          "name": "",
          "type": "address"
        }
      ],
      "stateMutability": "view",
      "type": "function",
      "constant": true
    },
    {
      "inputs": [
        {
          "internalType": "uint256",
          "name": "",
          "type": "uint256"
        }
      ],
      "name": "teaTokenArray",
      "outputs": [
        {
          "internalType": "contract TeaToken",
          "name": "",
          "type": "address"
        }
      ],
      "stateMutability": "view",
      "type": "function",
      "constant": true
    },
    {
      "inputs": [
        {
          "internalType": "uint256",
          "name": "initialSupply",
          "type": "uint256"
        }
      ],
      "name": "createNewMilkToken",
      "outputs": [
        {
          "internalType": "address",
          "name": "",
          "type": "address"
        }
      ],
      "stateMutability": "nonpayable",
      "type": "function"
    },
    {
      "inputs": [
        {
          "internalType": "uint256",
          "name": "initialSupply",
          "type": "uint256"
        }
      ],
      "name": "createNewTeaToken",
      "outputs": [
        {
          "internalType": "address",
          "name": "",
          "type": "address"
        }
      ],
      "stateMutability": "nonpayable",
      "type": "function"
    },
    {
      "inputs": [
        {
          "internalType": "uint256",
          "name": "initialSupply",
          "type": "uint256"
        }
      ],
      "name": "createNewPearlToken",
      "outputs": [
        {
          "internalType": "address",
          "name": "",
          "type": "address"
        }
      ],
      "stateMutability": "nonpayable",
      "type": "function"
    },
    {
      "inputs": [
        {
          "internalType": "uint256",
          "name": "index",
          "type": "uint256"
        }
      ],
      "name": "getMilkTokenAddressByIndex",
      "outputs": [
        {
          "internalType": "address",
          "name": "",
          "type": "address"
        }
      ],
      "stateMutability": "view",
      "type": "function",
      "constant": true
    },
    {
      "inputs": [
        {
          "internalType": "uint256",
          "name": "index",
          "type": "uint256"
        }
      ],
      "name": "getTeaTokenAddressByIndex",
      "outputs": [
        {
          "internalType": "address",
          "name": "",
          "type": "address"
        }
      ],
      "stateMutability": "view",
      "type": "function",
      "constant": true
    },
    {
      "inputs": [
        {
          "internalType": "uint256",
          "name": "index",
          "type": "uint256"
        }
      ],
      "name": "getPearlTokenAddressByIndex",
      "outputs": [
        {
          "internalType": "address",
          "name": "",
          "type": "address"
        }
      ],
      "stateMutability": "view",
      "type": "function",
      "constant": true
    }
  ],
  "bytecode": "0x608060405234801561001057600080fd5b506151cb806100206000396000f3fe60806040523480156200001157600080fd5b5060043610620000a05760003560e01c8063ac454237116200006f578063ac454237146200017d578063ba14d2eb14620001b3578063c808d9e414620001e9578063f03a95f9146200021f578063fee34566146200025557620000a0565b80631f2fc6e114620000a5578063246537c414620000db578063568eced51462000111578063571d32281462000147575b600080fd5b620000c36004803603810190620000bd91906200073e565b6200028b565b604051620000d29190620007b5565b60405180910390f35b620000f96004803603810190620000f391906200073e565b620002d6565b604051620001089190620007b5565b60405180910390f35b6200012f60048036038101906200012991906200073e565b62000320565b6040516200013e91906200083d565b60405180910390f35b6200016560048036038101906200015f91906200073e565b62000360565b604051620001749190620007b5565b60405180910390f35b6200019b60048036038101906200019591906200073e565b62000443565b604051620001aa91906200087f565b60405180910390f35b620001d16004803603810190620001cb91906200073e565b62000483565b604051620001e09190620007b5565b60405180910390f35b6200020760048036038101906200020191906200073e565b62000566565b604051620002169190620007b5565b60405180910390f35b6200023d60048036038101906200023791906200073e565b620005b1565b6040516200024c9190620008c1565b60405180910390f35b6200027360048036038101906200026d91906200073e565b620005f1565b604051620002829190620007b5565b60405180910390f35b600060018281548110620002a457620002a3620008de565b5b9060005260206000200160009054906101000a900473ffffffffffffffffffffffffffffffffffffffff169050919050565b6000808281548110620002ee57620002ed620008de565b5b9060005260206000200160009054906101000a900473ffffffffffffffffffffffffffffffffffffffff169050919050565b600081815481106200033157600080fd5b906000526020600020016000915054906101000a900473ffffffffffffffffffffffffffffffffffffffff1681565b600080826040516200037290620006d4565b6200037e91906200091e565b604051809103906000f0801580156200039b573d6000803e3d6000fd5b5090506001819080600181540180825580915050600190039060005260206000200160009091909190916101000a81548173ffffffffffffffffffffffffffffffffffffffff021916908373ffffffffffffffffffffffffffffffffffffffff1602179055507f3251bcb3ae48e6762991ab11d4ef8d2bb37a6b003331567d6ed367affb45462f81604051620004329190620007b5565b60405180910390a180915050919050565b600181815481106200045457600080fd5b906000526020600020016000915054906101000a900473ffffffffffffffffffffffffffffffffffffffff1681565b600080826040516200049590620006e2565b620004a191906200091e565b604051809103906000f080158015620004be573d6000803e3d6000fd5b5090506002819080600181540180825580915050600190039060005260206000200160009091909190916101000a81548173ffffffffffffffffffffffffffffffffffffffff021916908373ffffffffffffffffffffffffffffffffffffffff1602179055507f301ac567e5e2509d55475c943dfad1c3342e0aa3d115e32e9aeb9a5dd75ec6c181604051620005559190620007b5565b60405180910390a180915050919050565b6000600282815481106200057f576200057e620008de565b5b9060005260206000200160009054906101000a900473ffffffffffffffffffffffffffffffffffffffff169050919050565b60028181548110620005c257600080fd5b906000526020600020016000915054906101000a900473ffffffffffffffffffffffffffffffffffffffff1681565b600080826040516200060390620006f0565b6200060f91906200091e565b604051809103906000f0801580156200062c573d6000803e3d6000fd5b5090506000819080600181540180825580915050600190039060005260206000200160009091909190916101000a81548173ffffffffffffffffffffffffffffffffffffffff021916908373ffffffffffffffffffffffffffffffffffffffff1602179055507fdf252393f38aba8deb5ab4237325fa701757945614d4d7d971c9cd306851762081604051620006c39190620007b5565b60405180910390a180915050919050565b61181e806200093c83390190565b61181e806200215a83390190565b61181e806200397883390190565b600080fd5b6000819050919050565b620007188162000703565b81146200072457600080fd5b50565b60008135905062000738816200070d565b92915050565b600060208284031215620007575762000756620006fe565b5b6000620007678482850162000727565b91505092915050565b600073ffffffffffffffffffffffffffffffffffffffff82169050919050565b60006200079d8262000770565b9050919050565b620007af8162000790565b82525050565b6000602082019050620007cc6000830184620007a4565b92915050565b6000819050919050565b6000620007fd620007f7620007f18462000770565b620007d2565b62000770565b9050919050565b60006200081182620007dc565b9050919050565b6000620008258262000804565b9050919050565b620008378162000818565b82525050565b60006020820190506200085460008301846200082c565b92915050565b6000620008678262000804565b9050919050565b62000879816200085a565b82525050565b60006020820190506200089660008301846200086e565b92915050565b6000620008a98262000804565b9050919050565b620008bb816200089c565b82525050565b6000602082019050620008d86000830184620008b0565b92915050565b7f4e487b7100000000000000000000000000000000000000000000000000000000600052603260045260246000fd5b620009188162000703565b82525050565b60006020820190506200093560008301846200090d565b9291505056fe60806040523480156200001157600080fd5b506040516200181e3803806200181e833981810160405281019062000037919062000377565b6040518060400160405280600881526020017f546561546f6b656e0000000000000000000000000000000000000000000000008152506040518060400160405280600381526020017f54454100000000000000000000000000000000000000000000000000000000008152508160039080519060200190620000bb92919062000287565b508060049080519060200190620000d492919062000287565b505050620000fe33670de0b6b3a764000083620000f29190620003d8565b6200010560201b60201c565b50620005ab565b600073ffffffffffffffffffffffffffffffffffffffff168273ffffffffffffffffffffffffffffffffffffffff160362000177576040517f08c379a00000000000000000000000000000000000000000000000000000000081526004016200016e906200049a565b60405180910390fd5b6200018b600083836200027d60201b60201c565b80600260008282546200019f9190620004bc565b92505081905550806000808473ffffffffffffffffffffffffffffffffffffffff1673ffffffffffffffffffffffffffffffffffffffff1681526020019081526020016000206000828254620001f69190620004bc565b925050819055508173ffffffffffffffffffffffffffffffffffffffff16600073ffffffffffffffffffffffffffffffffffffffff167fddf252ad1be2c89b69c2b068fc378daa952ba7f163c4a11628f55a4df523b3ef836040516200025d91906200052a565b60405180910390a362000279600083836200028260201b60201c565b5050565b505050565b505050565b828054620002959062000576565b90600052602060002090601f016020900481019282620002b9576000855562000305565b82601f10620002d457805160ff191683800117855562000305565b8280016001018555821562000305579182015b8281111562000304578251825591602001919060010190620002e7565b5b50905062000314919062000318565b5090565b5b808211156200033357600081600090555060010162000319565b5090565b600080fd5b6000819050919050565b62000351816200033c565b81146200035d57600080fd5b50565b600081519050620003718162000346565b92915050565b60006020828403121562000390576200038f62000337565b5b6000620003a08482850162000360565b91505092915050565b7f4e487b7100000000000000000000000000000000000000000000000000000000600052601160045260246000fd5b6000620003e5826200033c565b9150620003f2836200033c565b9250817fffffffffffffffffffffffffffffffffffffffffffffffffffffffffffffffff04831182151516156200042e576200042d620003a9565b5b828202905092915050565b600082825260208201905092915050565b7f45524332303a206d696e7420746f20746865207a65726f206164647265737300600082015250565b600062000482601f8362000439565b91506200048f826200044a565b602082019050919050565b60006020820190508181036000830152620004b58162000473565b9050919050565b6000620004c9826200033c565b9150620004d6836200033c565b9250827fffffffffffffffffffffffffffffffffffffffffffffffffffffffffffffffff038211156200050e576200050d620003a9565b5b828201905092915050565b62000524816200033c565b82525050565b600060208201905062000541600083018462000519565b92915050565b7f4e487b7100000000000000000000000000000000000000000000000000000000600052602260045260246000fd5b600060028204905060018216806200058f57607f821691505b602082108103620005a557620005a462000547565b5b50919050565b61126380620005bb6000396000f3fe608060405234801561001057600080fd5b50600436106100a95760003560e01c80633950935111610071578063395093511461016857806370a082311461019857806395d89b41146101c8578063a457c2d7146101e6578063a9059cbb14610216578063dd62ed3e14610246576100a9565b806306fdde03146100ae578063095ea7b3146100cc57806318160ddd146100fc57806323b872dd1461011a578063313ce5671461014a575b600080fd5b6100b6610276565b6040516100c39190610b1e565b60405180910390f35b6100e660048036038101906100e19190610bd9565b610308565b6040516100f39190610c34565b60405180910390f35b61010461032b565b6040516101119190610c5e565b60405180910390f35b610134600480360381019061012f9190610c79565b610335565b6040516101419190610c34565b60405180910390f35b610152610364565b60405161015f9190610ce8565b60405180910390f35b610182600480360381019061017d9190610bd9565b61036d565b60405161018f9190610c34565b60405180910390f35b6101b260048036038101906101ad9190610d03565b6103a4565b6040516101bf9190610c5e565b60405180910390f35b6101d06103ec565b6040516101dd9190610b1e565b60405180910390f35b61020060048036038101906101fb9190610bd9565b61047e565b60405161020d9190610c34565b60405180910390f35b610230600480360381019061022b9190610bd9565b6104f5565b60405161023d9190610c34565b60405180910390f35b610260600480360381019061025b9190610d30565b610518565b60405161026d9190610c5e565b60405180910390f35b60606003805461028590610d9f565b80601f01602080910402602001604051908101604052809291908181526020018280546102b190610d9f565b80156102fe5780601f106102d3576101008083540402835291602001916102fe565b820191906000526020600020905b8154815290600101906020018083116102e157829003601f168201915b5050505050905090565b60008061031361059f565b90506103208185856105a7565b600191505092915050565b6000600254905090565b60008061034061059f565b905061034d858285610770565b6103588585856107fc565b60019150509392505050565b60006012905090565b60008061037861059f565b905061039981858561038a8589610518565b6103949190610dff565b6105a7565b600191505092915050565b60008060008373ffffffffffffffffffffffffffffffffffffffff1673ffffffffffffffffffffffffffffffffffffffff168152602001908152602001600020549050919050565b6060600480546103fb90610d9f565b80601f016020809104026020016040519081016040528092919081815260200182805461042790610d9f565b80156104745780601f1061044957610100808354040283529160200191610474565b820191906000526020600020905b81548152906001019060200180831161045757829003601f168201915b5050505050905090565b60008061048961059f565b905060006104978286610518565b9050838110156104dc576040517f08c379a00000000000000000000000000000000000000000000000000000000081526004016104d390610ec7565b60405180910390fd5b6104e982868684036105a7565b60019250505092915050565b60008061050061059f565b905061050d8185856107fc565b600191505092915050565b6000600160008473ffffffffffffffffffffffffffffffffffffffff1673ffffffffffffffffffffffffffffffffffffffff16815260200190815260200160002060008373ffffffffffffffffffffffffffffffffffffffff1673ffffffffffffffffffffffffffffffffffffffff16815260200190815260200160002054905092915050565b600033905090565b600073ffffffffffffffffffffffffffffffffffffffff168373ffffffffffffffffffffffffffffffffffffffff1603610616576040517f08c379a000000000000000000000000000000000000000000000000000000000815260040161060d90610f59565b60405180910390fd5b600073ffffffffffffffffffffffffffffffffffffffff168273ffffffffffffffffffffffffffffffffffffffff1603610685576040517f08c379a000000000000000000000000000000000000000000000000000000000815260040161067c90610feb565b60405180910390fd5b80600160008573ffffffffffffffffffffffffffffffffffffffff1673ffffffffffffffffffffffffffffffffffffffff16815260200190815260200160002060008473ffffffffffffffffffffffffffffffffffffffff1673ffffffffffffffffffffffffffffffffffffffff168152602001908152602001600020819055508173ffffffffffffffffffffffffffffffffffffffff168373ffffffffffffffffffffffffffffffffffffffff167f8c5be1e5ebec7d5bd14f71427d1e84f3dd0314c0f7b2291e5b200ac8c7c3b925836040516107639190610c5e565b60405180910390a3505050565b600061077c8484610518565b90507fffffffffffffffffffffffffffffffffffffffffffffffffffffffffffffffff81146107f657818110156107e8576040517f08c379a00000000000000000000000000000000000000000000000000000000081526004016107df90611057565b60405180910390fd5b6107f584848484036105a7565b5b50505050565b600073ffffffffffffffffffffffffffffffffffffffff168373ffffffffffffffffffffffffffffffffffffffff160361086b576040517f08c379a0000000000000000000000000000000000000000000000000000000008152600401610862906110e9565b60405180910390fd5b600073ffffffffffffffffffffffffffffffffffffffff168273ffffffffffffffffffffffffffffffffffffffff16036108da576040517f08c379a00000000000000000000000000000000000000000000000000000000081526004016108d19061117b565b60405180910390fd5b6108e5838383610a7b565b60008060008573ffffffffffffffffffffffffffffffffffffffff1673ffffffffffffffffffffffffffffffffffffffff1681526020019081526020016000205490508181101561096b576040517f08c379a00000000000000000000000000000000000000000000000000000000081526004016109629061120d565b60405180910390fd5b8181036000808673ffffffffffffffffffffffffffffffffffffffff1673ffffffffffffffffffffffffffffffffffffffff16815260200190815260200160002081905550816000808573ffffffffffffffffffffffffffffffffffffffff1673ffffffffffffffffffffffffffffffffffffffff16815260200190815260200160002060008282546109fe9190610dff565b925050819055508273ffffffffffffffffffffffffffffffffffffffff168473ffffffffffffffffffffffffffffffffffffffff167fddf252ad1be2c89b69c2b068fc378daa952ba7f163c4a11628f55a4df523b3ef84604051610a629190610c5e565b60405180910390a3610a75848484610a80565b50505050565b505050565b505050565b600081519050919050565b600082825260208201905092915050565b60005b83811015610abf578082015181840152602081019050610aa4565b83811115610ace576000848401525b50505050565b6000601f19601f8301169050919050565b6000610af082610a85565b610afa8185610a90565b9350610b0a818560208601610aa1565b610b1381610ad4565b840191505092915050565b60006020820190508181036000830152610b388184610ae5565b905092915050565b600080fd5b600073ffffffffffffffffffffffffffffffffffffffff82169050919050565b6000610b7082610b45565b9050919050565b610b8081610b65565b8114610b8b57600080fd5b50565b600081359050610b9d81610b77565b92915050565b6000819050919050565b610bb681610ba3565b8114610bc157600080fd5b50565b600081359050610bd381610bad565b92915050565b60008060408385031215610bf057610bef610b40565b5b6000610bfe85828601610b8e565b9250506020610c0f85828601610bc4565b9150509250929050565b60008115159050919050565b610c2e81610c19565b82525050565b6000602082019050610c496000830184610c25565b92915050565b610c5881610ba3565b82525050565b6000602082019050610c736000830184610c4f565b92915050565b600080600060608486031215610c9257610c91610b40565b5b6000610ca086828701610b8e565b9350506020610cb186828701610b8e565b9250506040610cc286828701610bc4565b9150509250925092565b600060ff82169050919050565b610ce281610ccc565b82525050565b6000602082019050610cfd6000830184610cd9565b92915050565b600060208284031215610d1957610d18610b40565b5b6000610d2784828501610b8e565b91505092915050565b60008060408385031215610d4757610d46610b40565b5b6000610d5585828601610b8e565b9250506020610d6685828601610b8e565b9150509250929050565b7f4e487b7100000000000000000000000000000000000000000000000000000000600052602260045260246000fd5b60006002820490506001821680610db757607f821691505b602082108103610dca57610dc9610d70565b5b50919050565b7f4e487b7100000000000000000000000000000000000000000000000000000000600052601160045260246000fd5b6000610e0a82610ba3565b9150610e1583610ba3565b9250827fffffffffffffffffffffffffffffffffffffffffffffffffffffffffffffffff03821115610e4a57610e49610dd0565b5b828201905092915050565b7f45524332303a2064656372656173656420616c6c6f77616e63652062656c6f7760008201527f207a65726f000000000000000000000000000000000000000000000000000000602082015250565b6000610eb1602583610a90565b9150610ebc82610e55565b604082019050919050565b60006020820190508181036000830152610ee081610ea4565b9050919050565b7f45524332303a20617070726f76652066726f6d20746865207a65726f2061646460008201527f7265737300000000000000000000000000000000000000000000000000000000602082015250565b6000610f43602483610a90565b9150610f4e82610ee7565b604082019050919050565b60006020820190508181036000830152610f7281610f36565b9050919050565b7f45524332303a20617070726f766520746f20746865207a65726f20616464726560008201527f7373000000000000000000000000000000000000000000000000000000000000602082015250565b6000610fd5602283610a90565b9150610fe082610f79565b604082019050919050565b6000602082019050818103600083015261100481610fc8565b9050919050565b7f45524332303a20696e73756666696369656e7420616c6c6f77616e6365000000600082015250565b6000611041601d83610a90565b915061104c8261100b565b602082019050919050565b6000602082019050818103600083015261107081611034565b9050919050565b7f45524332303a207472616e736665722066726f6d20746865207a65726f20616460008201527f6472657373000000000000000000000000000000000000000000000000000000602082015250565b60006110d3602583610a90565b91506110de82611077565b604082019050919050565b60006020820190508181036000830152611102816110c6565b9050919050565b7f45524332303a207472616e7366657220746f20746865207a65726f206164647260008201527f6573730000000000000000000000000000000000000000000000000000000000602082015250565b6000611165602383610a90565b915061117082611109565b604082019050919050565b6000602082019050818103600083015261119481611158565b9050919050565b7f45524332303a207472616e7366657220616d6f756e742065786365656473206260008201527f616c616e63650000000000000000000000000000000000000000000000000000602082015250565b60006111f7602683610a90565b91506112028261119b565b604082019050919050565b60006020820190508181036000830152611226816111ea565b905091905056fea264697066735822122003f5b442a06bf4d78d70c2e314d3c3b379a1a37ed648174f5da77164972547d764736f6c634300080e003360806040523480156200001157600080fd5b506040516200181e3803806200181e833981810160405281019062000037919062000377565b6040518060400160405280600a81526020017f506561726c546f6b656e000000000000000000000000000000000000000000008152506040518060400160405280600581526020017f504541524c0000000000000000000000000000000000000000000000000000008152508160039080519060200190620000bb92919062000287565b508060049080519060200190620000d492919062000287565b505050620000fe33670de0b6b3a764000083620000f29190620003d8565b6200010560201b60201c565b50620005ab565b600073ffffffffffffffffffffffffffffffffffffffff168273ffffffffffffffffffffffffffffffffffffffff160362000177576040517f08c379a00000000000000000000000000000000000000000000000000000000081526004016200016e906200049a565b60405180910390fd5b6200018b600083836200027d60201b60201c565b80600260008282546200019f9190620004bc565b92505081905550806000808473ffffffffffffffffffffffffffffffffffffffff1673ffffffffffffffffffffffffffffffffffffffff1681526020019081526020016000206000828254620001f69190620004bc565b925050819055508173ffffffffffffffffffffffffffffffffffffffff16600073ffffffffffffffffffffffffffffffffffffffff167fddf252ad1be2c89b69c2b068fc378daa952ba7f163c4a11628f55a4df523b3ef836040516200025d91906200052a565b60405180910390a362000279600083836200028260201b60201c565b5050565b505050565b505050565b828054620002959062000576565b90600052602060002090601f016020900481019282620002b9576000855562000305565b82601f10620002d457805160ff191683800117855562000305565b8280016001018555821562000305579182015b8281111562000304578251825591602001919060010190620002e7565b5b50905062000314919062000318565b5090565b5b808211156200033357600081600090555060010162000319565b5090565b600080fd5b6000819050919050565b62000351816200033c565b81146200035d57600080fd5b50565b600081519050620003718162000346565b92915050565b60006020828403121562000390576200038f62000337565b5b6000620003a08482850162000360565b91505092915050565b7f4e487b7100000000000000000000000000000000000000000000000000000000600052601160045260246000fd5b6000620003e5826200033c565b9150620003f2836200033c565b9250817fffffffffffffffffffffffffffffffffffffffffffffffffffffffffffffffff04831182151516156200042e576200042d620003a9565b5b828202905092915050565b600082825260208201905092915050565b7f45524332303a206d696e7420746f20746865207a65726f206164647265737300600082015250565b600062000482601f8362000439565b91506200048f826200044a565b602082019050919050565b60006020820190508181036000830152620004b58162000473565b9050919050565b6000620004c9826200033c565b9150620004d6836200033c565b9250827fffffffffffffffffffffffffffffffffffffffffffffffffffffffffffffffff038211156200050e576200050d620003a9565b5b828201905092915050565b62000524816200033c565b82525050565b600060208201905062000541600083018462000519565b92915050565b7f4e487b7100000000000000000000000000000000000000000000000000000000600052602260045260246000fd5b600060028204905060018216806200058f57607f821691505b602082108103620005a557620005a462000547565b5b50919050565b61126380620005bb6000396000f3fe608060405234801561001057600080fd5b50600436106100a95760003560e01c80633950935111610071578063395093511461016857806370a082311461019857806395d89b41146101c8578063a457c2d7146101e6578063a9059cbb14610216578063dd62ed3e14610246576100a9565b806306fdde03146100ae578063095ea7b3146100cc57806318160ddd146100fc57806323b872dd1461011a578063313ce5671461014a575b600080fd5b6100b6610276565b6040516100c39190610b1e565b60405180910390f35b6100e660048036038101906100e19190610bd9565b610308565b6040516100f39190610c34565b60405180910390f35b61010461032b565b6040516101119190610c5e565b60405180910390f35b610134600480360381019061012f9190610c79565b610335565b6040516101419190610c34565b60405180910390f35b610152610364565b60405161015f9190610ce8565b60405180910390f35b610182600480360381019061017d9190610bd9565b61036d565b60405161018f9190610c34565b60405180910390f35b6101b260048036038101906101ad9190610d03565b6103a4565b6040516101bf9190610c5e565b60405180910390f35b6101d06103ec565b6040516101dd9190610b1e565b60405180910390f35b61020060048036038101906101fb9190610bd9565b61047e565b60405161020d9190610c34565b60405180910390f35b610230600480360381019061022b9190610bd9565b6104f5565b60405161023d9190610c34565b60405180910390f35b610260600480360381019061025b9190610d30565b610518565b60405161026d9190610c5e565b60405180910390f35b60606003805461028590610d9f565b80601f01602080910402602001604051908101604052809291908181526020018280546102b190610d9f565b80156102fe5780601f106102d3576101008083540402835291602001916102fe565b820191906000526020600020905b8154815290600101906020018083116102e157829003601f168201915b5050505050905090565b60008061031361059f565b90506103208185856105a7565b600191505092915050565b6000600254905090565b60008061034061059f565b905061034d858285610770565b6103588585856107fc565b60019150509392505050565b60006012905090565b60008061037861059f565b905061039981858561038a8589610518565b6103949190610dff565b6105a7565b600191505092915050565b60008060008373ffffffffffffffffffffffffffffffffffffffff1673ffffffffffffffffffffffffffffffffffffffff168152602001908152602001600020549050919050565b6060600480546103fb90610d9f565b80601f016020809104026020016040519081016040528092919081815260200182805461042790610d9f565b80156104745780601f1061044957610100808354040283529160200191610474565b820191906000526020600020905b81548152906001019060200180831161045757829003601f168201915b5050505050905090565b60008061048961059f565b905060006104978286610518565b9050838110156104dc576040517f08c379a00000000000000000000000000000000000000000000000000000000081526004016104d390610ec7565b60405180910390fd5b6104e982868684036105a7565b60019250505092915050565b60008061050061059f565b905061050d8185856107fc565b600191505092915050565b6000600160008473ffffffffffffffffffffffffffffffffffffffff1673ffffffffffffffffffffffffffffffffffffffff16815260200190815260200160002060008373ffffffffffffffffffffffffffffffffffffffff1673ffffffffffffffffffffffffffffffffffffffff16815260200190815260200160002054905092915050565b600033905090565b600073ffffffffffffffffffffffffffffffffffffffff168373ffffffffffffffffffffffffffffffffffffffff1603610616576040517f08c379a000000000000000000000000000000000000000000000000000000000815260040161060d90610f59565b60405180910390fd5b600073ffffffffffffffffffffffffffffffffffffffff168273ffffffffffffffffffffffffffffffffffffffff1603610685576040517f08c379a000000000000000000000000000000000000000000000000000000000815260040161067c90610feb565b60405180910390fd5b80600160008573ffffffffffffffffffffffffffffffffffffffff1673ffffffffffffffffffffffffffffffffffffffff16815260200190815260200160002060008473ffffffffffffffffffffffffffffffffffffffff1673ffffffffffffffffffffffffffffffffffffffff168152602001908152602001600020819055508173ffffffffffffffffffffffffffffffffffffffff168373ffffffffffffffffffffffffffffffffffffffff167f8c5be1e5ebec7d5bd14f71427d1e84f3dd0314c0f7b2291e5b200ac8c7c3b925836040516107639190610c5e565b60405180910390a3505050565b600061077c8484610518565b90507fffffffffffffffffffffffffffffffffffffffffffffffffffffffffffffffff81146107f657818110156107e8576040517f08c379a00000000000000000000000000000000000000000000000000000000081526004016107df90611057565b60405180910390fd5b6107f584848484036105a7565b5b50505050565b600073ffffffffffffffffffffffffffffffffffffffff168373ffffffffffffffffffffffffffffffffffffffff160361086b576040517f08c379a0000000000000000000000000000000000000000000000000000000008152600401610862906110e9565b60405180910390fd5b600073ffffffffffffffffffffffffffffffffffffffff168273ffffffffffffffffffffffffffffffffffffffff16036108da576040517f08c379a00000000000000000000000000000000000000000000000000000000081526004016108d19061117b565b60405180910390fd5b6108e5838383610a7b565b60008060008573ffffffffffffffffffffffffffffffffffffffff1673ffffffffffffffffffffffffffffffffffffffff1681526020019081526020016000205490508181101561096b576040517f08c379a00000000000000000000000000000000000000000000000000000000081526004016109629061120d565b60405180910390fd5b8181036000808673ffffffffffffffffffffffffffffffffffffffff1673ffffffffffffffffffffffffffffffffffffffff16815260200190815260200160002081905550816000808573ffffffffffffffffffffffffffffffffffffffff1673ffffffffffffffffffffffffffffffffffffffff16815260200190815260200160002060008282546109fe9190610dff565b925050819055508273ffffffffffffffffffffffffffffffffffffffff168473ffffffffffffffffffffffffffffffffffffffff167fddf252ad1be2c89b69c2b068fc378daa952ba7f163c4a11628f55a4df523b3ef84604051610a629190610c5e565b60405180910390a3610a75848484610a80565b50505050565b505050565b505050565b600081519050919050565b600082825260208201905092915050565b60005b83811015610abf578082015181840152602081019050610aa4565b83811115610ace576000848401525b50505050565b6000601f19601f8301169050919050565b6000610af082610a85565b610afa8185610a90565b9350610b0a818560208601610aa1565b610b1381610ad4565b840191505092915050565b60006020820190508181036000830152610b388184610ae5565b905092915050565b600080fd5b600073ffffffffffffffffffffffffffffffffffffffff82169050919050565b6000610b7082610b45565b9050919050565b610b8081610b65565b8114610b8b57600080fd5b50565b600081359050610b9d81610b77565b92915050565b6000819050919050565b610bb681610ba3565b8114610bc157600080fd5b50565b600081359050610bd381610bad565b92915050565b60008060408385031215610bf057610bef610b40565b5b6000610bfe85828601610b8e565b9250506020610c0f85828601610bc4565b9150509250929050565b60008115159050919050565b610c2e81610c19565b82525050565b6000602082019050610c496000830184610c25565b92915050565b610c5881610ba3565b82525050565b6000602082019050610c736000830184610c4f565b92915050565b600080600060608486031215610c9257610c91610b40565b5b6000610ca086828701610b8e565b9350506020610cb186828701610b8e565b9250506040610cc286828701610bc4565b9150509250925092565b600060ff82169050919050565b610ce281610ccc565b82525050565b6000602082019050610cfd6000830184610cd9565b92915050565b600060208284031215610d1957610d18610b40565b5b6000610d2784828501610b8e565b91505092915050565b60008060408385031215610d4757610d46610b40565b5b6000610d5585828601610b8e565b9250506020610d6685828601610b8e565b9150509250929050565b7f4e487b7100000000000000000000000000000000000000000000000000000000600052602260045260246000fd5b60006002820490506001821680610db757607f821691505b602082108103610dca57610dc9610d70565b5b50919050565b7f4e487b7100000000000000000000000000000000000000000000000000000000600052601160045260246000fd5b6000610e0a82610ba3565b9150610e1583610ba3565b9250827fffffffffffffffffffffffffffffffffffffffffffffffffffffffffffffffff03821115610e4a57610e49610dd0565b5b828201905092915050565b7f45524332303a2064656372656173656420616c6c6f77616e63652062656c6f7760008201527f207a65726f000000000000000000000000000000000000000000000000000000602082015250565b6000610eb1602583610a90565b9150610ebc82610e55565b604082019050919050565b60006020820190508181036000830152610ee081610ea4565b9050919050565b7f45524332303a20617070726f76652066726f6d20746865207a65726f2061646460008201527f7265737300000000000000000000000000000000000000000000000000000000602082015250565b6000610f43602483610a90565b9150610f4e82610ee7565b604082019050919050565b60006020820190508181036000830152610f7281610f36565b9050919050565b7f45524332303a20617070726f766520746f20746865207a65726f20616464726560008201527f7373000000000000000000000000000000000000000000000000000000000000602082015250565b6000610fd5602283610a90565b9150610fe082610f79565b604082019050919050565b6000602082019050818103600083015261100481610fc8565b9050919050565b7f45524332303a20696e73756666696369656e7420616c6c6f77616e6365000000600082015250565b6000611041601d83610a90565b915061104c8261100b565b602082019050919050565b6000602082019050818103600083015261107081611034565b9050919050565b7f45524332303a207472616e736665722066726f6d20746865207a65726f20616460008201527f6472657373000000000000000000000000000000000000000000000000000000602082015250565b60006110d3602583610a90565b91506110de82611077565b604082019050919050565b60006020820190508181036000830152611102816110c6565b9050919050565b7f45524332303a207472616e7366657220746f20746865207a65726f206164647260008201527f6573730000000000000000000000000000000000000000000000000000000000602082015250565b6000611165602383610a90565b915061117082611109565b604082019050919050565b6000602082019050818103600083015261119481611158565b9050919050565b7f45524332303a207472616e7366657220616d6f756e742065786365656473206260008201527f616c616e63650000000000000000000000000000000000000000000000000000602082015250565b60006111f7602683610a90565b91506112028261119b565b604082019050919050565b60006020820190508181036000830152611226816111ea565b905091905056fea26469706673582212204be3807d22aec226a514785218c49937a9c651060cd6f268e2484be85b5444ba64736f6c634300080e003360806040523480156200001157600080fd5b506040516200181e3803806200181e833981810160405281019062000037919062000377565b6040518060400160405280600981526020017f4d696c6b546f6b656e00000000000000000000000000000000000000000000008152506040518060400160405280600481526020017f4d494c4b000000000000000000000000000000000000000000000000000000008152508160039080519060200190620000bb92919062000287565b508060049080519060200190620000d492919062000287565b505050620000fe33670de0b6b3a764000083620000f29190620003d8565b6200010560201b60201c565b50620005ab565b600073ffffffffffffffffffffffffffffffffffffffff168273ffffffffffffffffffffffffffffffffffffffff160362000177576040517f08c379a00000000000000000000000000000000000000000000000000000000081526004016200016e906200049a565b60405180910390fd5b6200018b600083836200027d60201b60201c565b80600260008282546200019f9190620004bc565b92505081905550806000808473ffffffffffffffffffffffffffffffffffffffff1673ffffffffffffffffffffffffffffffffffffffff1681526020019081526020016000206000828254620001f69190620004bc565b925050819055508173ffffffffffffffffffffffffffffffffffffffff16600073ffffffffffffffffffffffffffffffffffffffff167fddf252ad1be2c89b69c2b068fc378daa952ba7f163c4a11628f55a4df523b3ef836040516200025d91906200052a565b60405180910390a362000279600083836200028260201b60201c565b5050565b505050565b505050565b828054620002959062000576565b90600052602060002090601f016020900481019282620002b9576000855562000305565b82601f10620002d457805160ff191683800117855562000305565b8280016001018555821562000305579182015b8281111562000304578251825591602001919060010190620002e7565b5b50905062000314919062000318565b5090565b5b808211156200033357600081600090555060010162000319565b5090565b600080fd5b6000819050919050565b62000351816200033c565b81146200035d57600080fd5b50565b600081519050620003718162000346565b92915050565b60006020828403121562000390576200038f62000337565b5b6000620003a08482850162000360565b91505092915050565b7f4e487b7100000000000000000000000000000000000000000000000000000000600052601160045260246000fd5b6000620003e5826200033c565b9150620003f2836200033c565b9250817fffffffffffffffffffffffffffffffffffffffffffffffffffffffffffffffff04831182151516156200042e576200042d620003a9565b5b828202905092915050565b600082825260208201905092915050565b7f45524332303a206d696e7420746f20746865207a65726f206164647265737300600082015250565b600062000482601f8362000439565b91506200048f826200044a565b602082019050919050565b60006020820190508181036000830152620004b58162000473565b9050919050565b6000620004c9826200033c565b9150620004d6836200033c565b9250827fffffffffffffffffffffffffffffffffffffffffffffffffffffffffffffffff038211156200050e576200050d620003a9565b5b828201905092915050565b62000524816200033c565b82525050565b600060208201905062000541600083018462000519565b92915050565b7f4e487b7100000000000000000000000000000000000000000000000000000000600052602260045260246000fd5b600060028204905060018216806200058f57607f821691505b602082108103620005a557620005a462000547565b5b50919050565b61126380620005bb6000396000f3fe608060405234801561001057600080fd5b50600436106100a95760003560e01c80633950935111610071578063395093511461016857806370a082311461019857806395d89b41146101c8578063a457c2d7146101e6578063a9059cbb14610216578063dd62ed3e14610246576100a9565b806306fdde03146100ae578063095ea7b3146100cc57806318160ddd146100fc57806323b872dd1461011a578063313ce5671461014a575b600080fd5b6100b6610276565b6040516100c39190610b1e565b60405180910390f35b6100e660048036038101906100e19190610bd9565b610308565b6040516100f39190610c34565b60405180910390f35b61010461032b565b6040516101119190610c5e565b60405180910390f35b610134600480360381019061012f9190610c79565b610335565b6040516101419190610c34565b60405180910390f35b610152610364565b60405161015f9190610ce8565b60405180910390f35b610182600480360381019061017d9190610bd9565b61036d565b60405161018f9190610c34565b60405180910390f35b6101b260048036038101906101ad9190610d03565b6103a4565b6040516101bf9190610c5e565b60405180910390f35b6101d06103ec565b6040516101dd9190610b1e565b60405180910390f35b61020060048036038101906101fb9190610bd9565b61047e565b60405161020d9190610c34565b60405180910390f35b610230600480360381019061022b9190610bd9565b6104f5565b60405161023d9190610c34565b60405180910390f35b610260600480360381019061025b9190610d30565b610518565b60405161026d9190610c5e565b60405180910390f35b60606003805461028590610d9f565b80601f01602080910402602001604051908101604052809291908181526020018280546102b190610d9f565b80156102fe5780601f106102d3576101008083540402835291602001916102fe565b820191906000526020600020905b8154815290600101906020018083116102e157829003601f168201915b5050505050905090565b60008061031361059f565b90506103208185856105a7565b600191505092915050565b6000600254905090565b60008061034061059f565b905061034d858285610770565b6103588585856107fc565b60019150509392505050565b60006012905090565b60008061037861059f565b905061039981858561038a8589610518565b6103949190610dff565b6105a7565b600191505092915050565b60008060008373ffffffffffffffffffffffffffffffffffffffff1673ffffffffffffffffffffffffffffffffffffffff168152602001908152602001600020549050919050565b6060600480546103fb90610d9f565b80601f016020809104026020016040519081016040528092919081815260200182805461042790610d9f565b80156104745780601f1061044957610100808354040283529160200191610474565b820191906000526020600020905b81548152906001019060200180831161045757829003601f168201915b5050505050905090565b60008061048961059f565b905060006104978286610518565b9050838110156104dc576040517f08c379a00000000000000000000000000000000000000000000000000000000081526004016104d390610ec7565b60405180910390fd5b6104e982868684036105a7565b60019250505092915050565b60008061050061059f565b905061050d8185856107fc565b600191505092915050565b6000600160008473ffffffffffffffffffffffffffffffffffffffff1673ffffffffffffffffffffffffffffffffffffffff16815260200190815260200160002060008373ffffffffffffffffffffffffffffffffffffffff1673ffffffffffffffffffffffffffffffffffffffff16815260200190815260200160002054905092915050565b600033905090565b600073ffffffffffffffffffffffffffffffffffffffff168373ffffffffffffffffffffffffffffffffffffffff1603610616576040517f08c379a000000000000000000000000000000000000000000000000000000000815260040161060d90610f59565b60405180910390fd5b600073ffffffffffffffffffffffffffffffffffffffff168273ffffffffffffffffffffffffffffffffffffffff1603610685576040517f08c379a000000000000000000000000000000000000000000000000000000000815260040161067c90610feb565b60405180910390fd5b80600160008573ffffffffffffffffffffffffffffffffffffffff1673ffffffffffffffffffffffffffffffffffffffff16815260200190815260200160002060008473ffffffffffffffffffffffffffffffffffffffff1673ffffffffffffffffffffffffffffffffffffffff168152602001908152602001600020819055508173ffffffffffffffffffffffffffffffffffffffff168373ffffffffffffffffffffffffffffffffffffffff167f8c5be1e5ebec7d5bd14f71427d1e84f3dd0314c0f7b2291e5b200ac8c7c3b925836040516107639190610c5e565b60405180910390a3505050565b600061077c8484610518565b90507fffffffffffffffffffffffffffffffffffffffffffffffffffffffffffffffff81146107f657818110156107e8576040517f08c379a00000000000000000000000000000000000000000000000000000000081526004016107df90611057565b60405180910390fd5b6107f584848484036105a7565b5b50505050565b600073ffffffffffffffffffffffffffffffffffffffff168373ffffffffffffffffffffffffffffffffffffffff160361086b576040517f08c379a0000000000000000000000000000000000000000000000000000000008152600401610862906110e9565b60405180910390fd5b600073ffffffffffffffffffffffffffffffffffffffff168273ffffffffffffffffffffffffffffffffffffffff16036108da576040517f08c379a00000000000000000000000000000000000000000000000000000000081526004016108d19061117b565b60405180910390fd5b6108e5838383610a7b565b60008060008573ffffffffffffffffffffffffffffffffffffffff1673ffffffffffffffffffffffffffffffffffffffff1681526020019081526020016000205490508181101561096b576040517f08c379a00000000000000000000000000000000000000000000000000000000081526004016109629061120d565b60405180910390fd5b8181036000808673ffffffffffffffffffffffffffffffffffffffff1673ffffffffffffffffffffffffffffffffffffffff16815260200190815260200160002081905550816000808573ffffffffffffffffffffffffffffffffffffffff1673ffffffffffffffffffffffffffffffffffffffff16815260200190815260200160002060008282546109fe9190610dff565b925050819055508273ffffffffffffffffffffffffffffffffffffffff168473ffffffffffffffffffffffffffffffffffffffff167fddf252ad1be2c89b69c2b068fc378daa952ba7f163c4a11628f55a4df523b3ef84604051610a629190610c5e565b60405180910390a3610a75848484610a80565b50505050565b505050565b505050565b600081519050919050565b600082825260208201905092915050565b60005b83811015610abf578082015181840152602081019050610aa4565b83811115610ace576000848401525b50505050565b6000601f19601f8301169050919050565b6000610af082610a85565b610afa8185610a90565b9350610b0a818560208601610aa1565b610b1381610ad4565b840191505092915050565b60006020820190508181036000830152610b388184610ae5565b905092915050565b600080fd5b600073ffffffffffffffffffffffffffffffffffffffff82169050919050565b6000610b7082610b45565b9050919050565b610b8081610b65565b8114610b8b57600080fd5b50565b600081359050610b9d81610b77565b92915050565b6000819050919050565b610bb681610ba3565b8114610bc157600080fd5b50565b600081359050610bd381610bad565b92915050565b60008060408385031215610bf057610bef610b40565b5b6000610bfe85828601610b8e565b9250506020610c0f85828601610bc4565b9150509250929050565b60008115159050919050565b610c2e81610c19565b82525050565b6000602082019050610c496000830184610c25565b92915050565b610c5881610ba3565b82525050565b6000602082019050610c736000830184610c4f565b92915050565b600080600060608486031215610c9257610c91610b40565b5b6000610ca086828701610b8e565b9350506020610cb186828701610b8e565b9250506040610cc286828701610bc4565b9150509250925092565b600060ff82169050919050565b610ce281610ccc565b82525050565b6000602082019050610cfd6000830184610cd9565b92915050565b600060208284031215610d1957610d18610b40565b5b6000610d2784828501610b8e565b91505092915050565b60008060408385031215610d4757610d46610b40565b5b6000610d5585828601610b8e565b9250506020610d6685828601610b8e565b9150509250929050565b7f4e487b7100000000000000000000000000000000000000000000000000000000600052602260045260246000fd5b60006002820490506001821680610db757607f821691505b602082108103610dca57610dc9610d70565b5b50919050565b7f4e487b7100000000000000000000000000000000000000000000000000000000600052601160045260246000fd5b6000610e0a82610ba3565b9150610e1583610ba3565b9250827fffffffffffffffffffffffffffffffffffffffffffffffffffffffffffffffff03821115610e4a57610e49610dd0565b5b828201905092915050565b7f45524332303a2064656372656173656420616c6c6f77616e63652062656c6f7760008201527f207a65726f000000000000000000000000000000000000000000000000000000602082015250565b6000610eb1602583610a90565b9150610ebc82610e55565b604082019050919050565b60006020820190508181036000830152610ee081610ea4565b9050919050565b7f45524332303a20617070726f76652066726f6d20746865207a65726f2061646460008201527f7265737300000000000000000000000000000000000000000000000000000000602082015250565b6000610f43602483610a90565b9150610f4e82610ee7565b604082019050919050565b60006020820190508181036000830152610f7281610f36565b9050919050565b7f45524332303a20617070726f766520746f20746865207a65726f20616464726560008201527f7373000000000000000000000000000000000000000000000000000000000000602082015250565b6000610fd5602283610a90565b9150610fe082610f79565b604082019050919050565b6000602082019050818103600083015261100481610fc8565b9050919050565b7f45524332303a20696e73756666696369656e7420616c6c6f77616e6365000000600082015250565b6000611041601d83610a90565b915061104c8261100b565b602082019050919050565b6000602082019050818103600083015261107081611034565b9050919050565b7f45524332303a207472616e736665722066726f6d20746865207a65726f20616460008201527f6472657373000000000000000000000000000000000000000000000000000000602082015250565b60006110d3602583610a90565b91506110de82611077565b604082019050919050565b60006020820190508181036000830152611102816110c6565b9050919050565b7f45524332303a207472616e7366657220746f20746865207a65726f206164647260008201527f6573730000000000000000000000000000000000000000000000000000000000602082015250565b6000611165602383610a90565b915061117082611109565b604082019050919050565b6000602082019050818103600083015261119481611158565b9050919050565b7f45524332303a207472616e7366657220616d6f756e742065786365656473206260008201527f616c616e63650000000000000000000000000000000000000000000000000000602082015250565b60006111f7602683610a90565b91506112028261119b565b604082019050919050565b60006020820190508181036000830152611226816111ea565b905091905056fea2646970667358221220e805d8ddce1bd270f08b4728e6054ec5f8e10ce423797d34128064b4295e387064736f6c634300080e0033a2646970667358221220576f42b7f68e9f307b3d93312fe569197761d25d4605b7d8a7e531fc5617d2de64736f6c634300080e0033",
  "immutableReferences": {},
  "source": "pragma solidity ^0.8.7;\r\n\r\nimport \"./MilkToken.sol\";\r\nimport \"./TeaToken.sol\";\r\nimport \"./PearlToken.sol\";\r\n\r\ncontract TokenFactory {\r\n    event MilkTokenCreated(address contractAddress);\r\n    event TeaTokenCreated(address contractAddress);\r\n    event PearlTokenCreated(address contractAddress);\r\n\r\n    MilkToken[] public milkTokenArray;\r\n    TeaToken[] public teaTokenArray;\r\n    PearlToken[] public pearlTokenArray;\r\n\r\n    function createNewMilkToken(uint256 initialSupply) public returns (address) {\r\n        MilkToken milkToken = new MilkToken(initialSupply);\r\n        milkTokenArray.push(milkToken);\r\n        emit MilkTokenCreated(address(milkToken));\r\n        return address(milkToken);\r\n    }\r\n\r\n    function createNewTeaToken(uint256 initialSupply) public returns (address) {\r\n        TeaToken teaToken = new TeaToken(initialSupply);\r\n        teaTokenArray.push(teaToken);\r\n        emit TeaTokenCreated(address(teaToken));\r\n        return address(teaToken);\r\n    }\r\n\r\n    function createNewPearlToken(uint256 initialSupply) public returns (address) {\r\n        PearlToken pearlToken = new PearlToken(initialSupply);\r\n        pearlTokenArray.push(pearlToken);\r\n        emit PearlTokenCreated(address(pearlToken));\r\n        return address(pearlToken);\r\n    }\r\n\r\n    function getMilkTokenAddressByIndex(uint256 index) public view returns (address) {\r\n        return address(milkTokenArray[index]);\r\n    }\r\n\r\n    function getTeaTokenAddressByIndex(uint256 index) public view returns (address) {\r\n        return address(teaTokenArray[index]);\r\n    }\r\n\r\n    function getPearlTokenAddressByIndex(uint256 index) public view returns (address) {\r\n        return address(pearlTokenArray[index]);\r\n    }\r\n}",
  "sourcePath": "C:\\Users\\zheru\\OneDrive\\blockchain\\LPFarmApp\\contracts\\TokenFactory.sol",
  "compiler": {
    "name": "solc",
    "version": "0.8.14+commit.80d49f37.Emscripten.clang"
  },
  "schemaVersion": "3.4.7",
  "updatedAt": "2022-06-17T14:39:02.911Z",
  "networkType": "ethereum",
  "devdoc": {
    "kind": "dev",
    "methods": {},
    "version": 1
  },
  "userdoc": {
    "kind": "user",
    "methods": {},
    "version": 1
  }
}